:020000040000FA
:100000000C94AE000C94D6000C94D6000C94D60040
:100010000C94D6000C94D6000C94D6000C94D60008
:100020000C94D6000C94D6000C94D6000C94850940
:100030000C94D6000C94D6000C94D6000C94D600E8
:100040000C94E3080C94D6000C9453090C942D09DD
:100050000C94D6000C94D6000C94D6000C94D600C8
:100060000C94D6000C94D600504F5254452046456F
:10007000524D4545004645524D45545552452E2E4C
:100080002E00454E5452455A205241504944454D48
:10009000454E5400504F52544520204F555645521E
:1000A0005445004143434553204155544F52495311
:1000B000450053595354454D5F5245414459004200
:1000C00049454E56454E554500434F444520494EFF
:1000D000434F5252454354004163636573202020CF
:1000E00072656675736500434F444520494E434F22
:1000F00052524543540050415353574F52443A00D3
:1001000000000000240027002A0000000000250055
:1001100028002B0000000008000201000003040773
:100120000000000000000000000000002300260086
:10013000290004040404040404040202020202026A
:10014000030303030303010204081020408001029B
:1001500004081020010204081020410A11241FBEC7
:10016000CFEFD8E0DEBFCDBF11E0A0E0B1E0E0E12D
:10017000F5E202C005900D92A23EB107D9F723E047
:10018000A2EEB1E001C01D92A536B207E1F710E082
:10019000CEEAD0E004C02197FE010E947712CD3A4A
:1001A000D107C9F70E94340B0C9486120C940000FE
:1001B000CF92DF92EF92FF92CF93DF93B0913E0305
:1001C000A0E08111AB2F80913F0390E0880F991F31
:1001D000AC01485D5E4FC0904403D0904503E09071
:1001E0004603F090470330E020E0FA01C591D49136
:1001F000E881B90190E080E0EB23EA130AC02F5FA9
:100200003F4F6C157D058E059F0578F36FEF7FEFEF
:10021000CB01DF91CF91FF90EF90DF90CF900895C9
:10022000CF92DF92EF92FF92DC01A03282E0B8071A
:10023000D4F5A53BB10514F0A4EBB0E04091630305
:1002400028E830E0241B310947FD3395220F331F86
:10025000220F331F6901330FEE08FF08409164033A
:1002600028E532E0241B310947FD3395220F331F67
:10027000220F331F032E000C440B550B2C193D0984
:100280004E095F09B7FF02C0B0E0A0E00E94F60F80
:1002900024EB30E040E050E00E94CC0FC20ED31EB1
:1002A000E41EF51ED601E0916203EC3080F520914A
:1002B000630388E890E0821B910927FD9395880FDE
:1002C000991F880F991FA817B90784F0209164031C
:1002D00088E592E0821B910927FD9395880F991F6D
:1002E000880F991FA817B9070CF4CD010297880F42
:1002F000991F4FB7F8942E2F30E0F901EE0FFF1F32
:10030000E20FF31FED55FD4F928381834FBFFF90A6
:10031000EF90DF90CF90089596E0899FD00111244F
:10032000A853BD4F90967C936E935F9791E0919602
:100330009C939197E0913503F091360390913403AB
:10034000992339F0309751F0811108C08091E4026F
:100350000994309719F05C968C91FACF0895833008
:1003600081F028F4813099F08230A9F00895873027
:10037000A9F08830C9F08430B1F4809180008F7D7D
:1003800003C0809180008F7780938000089584B5AA
:100390008F7784BD089584B58F7DFBCF8091B000A9
:1003A0008F778093B00008958091B0008F7DF9CF52
:1003B000CF93DF93282F30E0F901EC5EFE4F84915C
:1003C000F901EA5BFE4FD491F901EE5CFE4FC49156
:1003D000CC23A1F081110E94AF01EC2FF0E0EE0FD1
:1003E000FF1FE85DFE4FA591B491EC91ED2381E0F4
:1003F00090E009F480E0DF91CF91089580E090E0F3
:10040000FACF1F93CF93DF93282F30E0F901EC5EF2
:10041000FE4F8491F901EA5BFE4FD491F901EE5C45
:10042000FE4FC491CC23A9F0162F81110E94AF0179
:10043000EC2FF0E0EE0FFF1FE65FFE4FA591B491A9
:100440008FB7F894EC91111108C0D095DE23DC939E
:100450008FBFDF91CF911F910895DE2BF8CFCF93FF
:10046000DF9390E0FC01EA5BFE4F24918E5C9E4F8F
:10047000FC0184918823C9F090E0880F991FFC014A
:10048000E050FF4FA591B491FC01E65FFE4FC5918E
:10049000D49161110DC09FB7F8948C91209582235F
:1004A0008C938881282328839FBFDF91CF91089563
:1004B000623051F49FB7F8943C91822F809583234A
:1004C0008C93E8812E2BEFCF8FB7F894EC912E2BE5
:1004D0002C938FBFEACF3FB7F8948091020290919E
:1004E0000302A0910402B091050226B5A89B05C0A5
:1004F0002F3F19F00196A11DB11D3FBFBA2FA92FA3
:10050000982F8827BC01CD01620F711D811D911D9F
:1005100042E0660F771F881F991F4A95D1F708950B
:100520008F929F92AF92BF92CF92DF92EF92FF9203
:100530004B015C010E946B026B017C010E946B020B
:100540006C197D098E099F09683E734081059105EC
:10055000A8F321E0821A9108A108B10888EEC80E1C
:1005600083E0D81EE11CF11C81149104A104B104A4
:1005700029F7FF90EF90DF90CF90BF90AF909F90C2
:100580008F9008952FB7F8946091FE017091FF014C
:1005900080910002909101022FBF0895CF92DF92C7
:1005A000EF92FF920F931F93CF93DF93CDB7DEB7F8
:1005B000C054D1400FB6F894DEBF0FBECDBF0E942D
:1005C000C2020091400310914103209142033091F7
:1005D00043036B017C01C01AD10AE20AF30A9701B6
:1005E0008601003D17402105310590F480914803B4
:1005F000C05CDE4F0FB6F894DEBF0FBECDBFDF91FB
:10060000CF911F910F91FF90EF90DF90CF900895C1
:10061000609340037093410380934203909343039C
:1006200010923B0310923A03109239031092380350
:100630001092370362E080913C030E942F0261E038
:1006400070E080E090E00E94900261E080913C03C5
:100650000E942F0260E080913C030E940102809181
:100660003D038551823020F58BE291E10197F1F74E
:1006700062E080913C030E942F028091490390E048
:100680008230910538F0880F991F880F991F0597C0
:100690000197F1F7F89480E00E94D8006F3F7F4FF8
:1006A0008F4F9F4F61F410924803789480E0A0CF61
:1006B00064E170E080E090E00E949002D9CF81E098
:1006C0000E94D8006F3F7F4F8F4F9F4F61F38E0185
:1006D0000F5F1F4F6E012FEBC21A2EEFD20A780167
:1006E00080E00E94D800F701608371838283938346
:1006F00081E00E94D800F701648375838683978325
:10070000F8E0EF0EF11CEC14FD0451F7789430E0A2
:1007100020E0F801C080D180E280F38044815581DF
:1007200066817781FFEFCF16DF06EF06FF0631F017
:100730004F3F8FEF58076807780719F41092480366
:10074000B5CFF90183E0F595E7958A95E1F7E95C86
:10075000FC4F8081880FC416D506E606F70610F117
:1007600080832F5F3F4F085F1F4F2832310589F686
:1007700040913B032091370380913803280F3327A2
:10078000331F80913903280F311D80913A03820F66
:10079000932F911D99274817190681F681E08093C0
:1007A000480326CF8160DCCF0F931F93CF93DF9355
:1007B000C82FD62F86E0C89FF0011124E853FD4FC3
:1007C00011A2878D90A181309105F1F058F082300F
:1007D0009105F1F1039709F440C0DF91CF911F918A
:1007E0000F9108956623C9F361E070E08C2F0E9499
:1007F0008C010E94C20260932003709321038093B6
:10080000220390932303E9CF0E94C20200912003A8
:10081000109121032091220330912303AB01BC01ED
:10082000401B510B620B730B809132039091330389
:10083000B0E0A0E084179507A607B70748F462E088
:1008400070E08C2FDF91CF911F910F910C948C0150
:1008500063E070E0D111C1CFF4CF70E060E0F1CF80
:10086000862F642F0C942F02862F642F0C94010284
:10087000862F0C94D801EF92FF920F931F93CF9382
:10088000DF938C017B01D0E0C0E0F701EC0FFD1F8E
:100890006491662361F0D801ED91FC910190F081A3
:1008A000E02DC8010995892B11F02196EECFCE01DC
:1008B000DF91CF911F910F91FF90EF900895AF922C
:1008C000BF92CF92DF92EF92FF920F931F93CF933D
:1008D000DF936C017B018B01040F151FEB015E019F
:1008E000AE18BF08C017D10759F06991D601ED9134
:1008F000FC910190F081E02DC6010995892B79F7D3
:10090000C501DF91CF911F910F91FF90EF90DF9084
:10091000CF90BF90AF900895FC01538D448D252F4B
:1009200030E0842F90E0821B930B541710F0CF9689
:10093000089501970895FC01918D828D981761F0BB
:10094000A28DAE0FBF2FB11D5D968C91928D9F5FD2
:100950009F73928F90E008958FEF9FEF0895FC01B1
:10096000918D828D981731F0828DE80FF11D858D64
:1009700090E008958FEF9FEF0895FC01918D228DF7
:10098000892F90E0805C9F4F821B91098F7399277C
:10099000089586E092E00E94BD0421E0892B09F4CD
:1009A00020E0822F089580E090E0892B29F00E94BA
:1009B000C90481110C9400000895FC01A48DA80FB6
:1009C000B92FB11DA35ABF4F2C91848D90E0019691
:1009D0008F739927848FA689B7892C93A089B189B1
:1009E0008C91837080648C93938D848D981306C052
:1009F0000288F389E02D80818F7D80830895EF92B6
:100A0000FF920F931F93CF93DF93EC0181E0888FC8
:100A10009B8D8C8D98131AC0E889F989808185FF98
:100A200015C09FB7F894EE89FF896083E889F9893A
:100A300080818370806480839FBF81E090E0DF913C
:100A4000CF911F910F91FF90EF900895F62E0B8D8F
:100A500010E00F5F1F4F0F731127E02E8C8D8E114A
:100A60000CC00FB607FCFACFE889F989808185FFB1
:100A7000F5CFCE010E94DD04F1CFEB8DEC0FFD2F01
:100A8000F11DE35AFF4FF0829FB7F8940B8FEA896C
:100A9000FB8980818062CFCFCF93DF93EC01888D7B
:100AA0008823B9F0AA89BB89E889F9898C9185FDE9
:100AB00003C0808186FD0DC00FB607FCF7CF8C9177
:100AC00085FFF2CF808185FFEDCFCE010E94DD044E
:100AD000E9CFDF91CF910895089590E080E00895E7
:100AE000CF93DF93EC0160E08E810E94010261E010
:100AF0008E810E94010260E08E810E9401028BE8DB
:100B000091E00197F1F7DF91CF910895CF92DF92B5
:100B1000EF92FF920F931F93CF93DF936C017C01B1
:100B200087E0E80EF11CD0E0C0E0062F10E0B8012D
:100B30000C2E02C0759567950A94E2F76170F70173
:100B400081917F010E9401022196C430D10579F77D
:100B5000C601DF91CF911F910F91FF90EF90DF9031
:100B6000CF900C947005CF92DF92EF92FF920F938B
:100B70001F93CF93DF93EC01F62E642F8C810E949C
:100B800001028D818F3F19F060E00E9401020F2D5C
:100B900010E08F8584FF25C06E0187E0C80ED11C50
:100BA000F12CE12CB8010E2C02C0759567950A94C2
:100BB000E2F76170F60181916F010E940102FFEF7F
:100BC000EF1AFF0A88E0E816F10461F7CE01DF9121
:100BD000CF911F910F91FF90EF90DF90CF900C94E9
:100BE0007005B80184E0759567958A95E1F7CE01A7
:100BF0000E9486056F2DCE01DF91CF911F910F913D
:100C0000FF90EF90DF90CF900C94860540E0682F26
:100C10008AE493E00C94B305CF93DF93613029F01D
:100C20009091590398609093590360935D031092DB
:100C30005E0390E490935F0380936003805C8093F5
:100C4000610361E080914E030E942F0280914F0367
:100C50008F3F19F061E00E942F0261E08091500304
:100C60000E942F02CAE4D3E09E012A5433408091AF
:100C7000590384FD0BC084E090E0219628173907C2
:100C800044F461E08E810E942F02EECF88E090E074
:100C9000F4CF8BE39DE00197F1F760E080914E0384
:100CA0000E94010260E0809150030E940102809145
:100CB0004F038F3F19F060E00E94010280915903B9
:100CC00084FD39C063E08AE493E00E948605CBE4AA
:100CD000D6E4CE010197F1F763E08AE493E00E9445
:100CE00086052197F1F763E08AE493E00E94860588
:100CF00083E592E00197F1F762E08AE493E00E94D5
:100D000086058091590380620E94060684E08093E4
:100D10005A038CE00E94060681E00E9406068BE3DF
:100D20009FE10197F1F782E080935B0386E0DF911A
:100D3000CF910C94060680620E9406068BE496E42E
:100D40000197F1F78091590380620E94060683E5BE
:100D500092E00197F1F78091590380620E940606A4
:100D6000D0CF90915D03691710F06FEF690FE62FF8
:100D7000F0E0E65BFC4F9489890F80680C940606CE
:100D800041E00E94B30581E090E00895FB010190ED
:100D90000020E9F73197AF01461B570BDC01ED91BD
:100DA000FC910280F381E02D09948F929F92AF9283
:100DB000BF920F931F93CF93DF93CDB7DEB7A19769
:100DC0000FB6F894DEBF0FBECDBF19A2423008F4B3
:100DD0004AE08E010F5D1F4F842E912CB12CA12C67
:100DE000A50194010E94FE0FE62FB901CA01EA3065
:100DF00004F5E05DD801EE938D01232B242B252BE8
:100E000079F790E080E0109729F0BD018AE493E043
:100E10000E94C606A1960FB6F894DEBF0FBECDBFE6
:100E2000DF91CF911F910F91BF90AF909F908F90C6
:100E30000895E95CDFCF4F925F926F927F928F921D
:100E40009F92AF92BF92CF92DF92EF92FF920F9359
:100E50001F93CF936B017C01742EAC019B010E9408
:100E600066126AE471E0811126C046015701E894D8
:100E7000B7F82FEF3FEF4FE75FE7C501B4010E94DE
:100E8000661281110CC02FEF3FEF4FE75FE7C501FE
:100E9000B4010E949C106EE471E0181664F02FEF0C
:100EA0003FEF4FE75FE4C701B6010E94F411181647
:100EB000ACF462E571E08AE493E0CF911F910F9169
:100EC000FF90EF90DF90CF90BF90AF909F908F906A
:100ED0007F906F905F904F900C94C6062FEF3FEF7E
:100EE0004FE75FECC701B6010E949C1087FDE1CF80
:100EF00020E030E0A901C701B6010E949C1010E07B
:100F000000E087FF0CC041E06DE28AE493E00E94BC
:100F1000B305F7FAF094F7F8F09401E010E0C0E0C0
:100F200060E070E080E09FE37C1641F020E030E07C
:100F300040E251E40E94A110CF5FF6CFA7019601D5
:100F40000E9430104B015C010E9413112B013C01E7
:100F50004AE00E94D506080F191FCC23C9F1C3012E
:100F6000B2010E9442119B01AC01C501B4010E9473
:100F70002F104B015C0141E06EE28AE493E00E9495
:100F8000B3050F5F1F4FC15018F120E030E040E281
:100F900051E4C501B4010E94F9112B013C010E94EA
:100FA00013114B01B12CA12C4AE0C501B4010E94E0
:100FB000D506080F191FC501B4010E9442119B01FB
:100FC000AC01C301B2010E942F104B015C01DBCFC9
:100FD000C801CF911F910F91FF90EF90DF90CF90BC
:100FE000BF90AF909F908F907F906F905F904F9049
:100FF00008956115710511F00C94C60690E080E02B
:10100000089560E080E00E94B10666E571E08AE440
:1010100093E00E94F90761E080E00E94B1066BE670
:1010200071E08AE493E00C94F907CF93C0E06C2F51
:1010300080E00E94B10661E871E08AE493E00E94DA
:10104000F907CF5FC33099F7CF910895CF92DF9220
:10105000EF92FF92CF93DF9364EF71E080E090E036
:101060000E9490020E94150860E083E00E94B10691
:1010700063EA70E08AE493E00E943B0461E083E06D
:101080000E94B10664E970E08AE493E00E943B04A8
:1010900084EB90E09093E3018093E201C091E20140
:1010A000D091E301D7FD0FC0CE010E9410016AE08C
:1010B00070E080E090E00E9490022597D093E301D9
:1010C000C093E201EBCF60ED77E080E090E00E941A
:1010D000900285E0C82ED12CE12CF12C0E9415083D
:1010E00060E082E00E94B10662E870E08AE493E08A
:1010F0000E943B0461E089E00E94B1064AE0C7011A
:10110000B6010E94D5066CEB72E080E090E00E9490
:10111000900281E0C81AD108E108F108F9F60E94AE
:10112000150861E084E00E94B10665E770E08AE49A
:1011300093E00E943B0468EE73E080E090E00E9440
:1011400090020E94150861E084E00E94B10668E602
:1011500070E08AE493E00E943B0460E273E080E088
:1011600090E00E94900264EF71E080E090E00E94C5
:1011700090021092E3011092E201C091E201D0913D
:10118000E301C53BD1057CF4CE010E9410016FE064
:1011900070E080E090E00E9490022596D093E301F9
:1011A000C093E201EACF64EF71E080E090E00E943A
:1011B00090020E941508DF91CF91FF90EF90DF9091
:1011C000CF900C9401081F920F920FB60F9211242A
:1011D0002F933F938F939F93AF93BF938091FE0183
:1011E0009091FF01A0910002B09101023091FD01A8
:1011F00023E0230F2D3758F50196A11DB11D209333
:10120000FD018093FE019093FF01A0930002B09333
:1012100001028091020290910302A0910402B09118
:1012200005020196A11DB11D809302029093030255
:10123000A0930402B0930502BF91AF919F918F914B
:101240003F912F910F900FBE0F901F90189526E899
:10125000230F0296A11DB11DD2CF1F920F920FB680
:101260000F9211242F933F934F935F936F937F932C
:101270008F939F93AF93BF93EF93FF9386E092E09A
:101280000E94DD04FF91EF91BF91AF919F918F91EB
:101290007F916F915F914F913F912F910F900FBE72
:1012A0000F901F9018951F920F920FB60F92112456
:1012B0002F938F939F93EF93FF93E0911602F091FA
:1012C00017028081E0911C02F0911D0282FD1BC07B
:1012D000908180911F028F5F8F732091200282176F
:1012E00041F0E0911F02F0E0EA5FFD4F958F80939F
:1012F0001F02FF91EF919F918F912F910F900FBE41
:101300000F901F9018958081F4CF1F920F920FB607
:101310000F9211242F933F934F935F936F937F937B
:101320008F939F93AF93BF93CF93DF93EF93FF93ED
:101330008091E401C091C702D0E087FF24C01092E1
:101340008500109284008091E4018F5F8093E40116
:101350008091E401082E000C990B8C179D0724F452
:101360008091E4018C30C4F18091840090918500DB
:10137000049680349C4908F47AC08091840090914E
:101380008500049676C08091E401082E000C990B2C
:101390008C179D07C4F6E091E4018E2FEE0F990B98
:1013A000FC01EE0FFF1FE80FF91FED55FD4F808187
:1013B00086FFC9CFE091E4018E2FEE0F990BFC015F
:1013C000EE0FFF1FE80FF91FED55FD4F808160E024
:1013D0008F730E940102B7CF209184003091850065
:1013E000E091E4018E2FEE0F990BFC01EE0FFF1F31
:1013F000E80FF91FED55FD4F81819281820F931FF8
:101400009093890080938800E091E4018E2FEE0F85
:10141000990BFC01EE0FFF1FE80FF91FED55FD4F73
:10142000808186FF11C0E091E4018E2FEE0F990BB1
:10143000FC01EE0FFF1FE80FF91FED55FD4F8081F6
:1014400061E08F730E940102FF91EF91DF91CF91D4
:10145000BF91AF919F918F917F916F915F914F91CC
:101460003F912F910F900FBE0F901F90189580E421
:101470009CE990938900809388008FEF8093E4012A
:10148000E3CFCF93109209021092080288EE93E006
:10149000A0E0B0E080930A0290930B02A0930C02AC
:1014A000B0930D0286E291E09093070280930602CA
:1014B00085EC90E0909313028093120284EC90E00C
:1014C000909315028093140280EC90E090931702A1
:1014D0008093160281EC90E0909319028093180299
:1014E00082EC90E090931B0280931A0286EC90E0CD
:1014F00090931D0280931C0210921F0210922002F2
:1015000010922102109222028091C7028C3008F0C2
:10151000A7C091E0980F9093C7028093620390E078
:10152000FC01EE0FFF1FE80FF91FED55FD4F88EB93
:101530009BE09283818310924D0310924C0382E4CE
:1015400091E090934B0380934A0382E180934E0392
:101550008FEF80934F0383E18093500381E1809369
:10156000510380E1809352038FE080935303CBE0DB
:10157000C0935403109255031092560310925703D0
:10158000109258031092590361E080E10E940C060A
:101590008AE080933C03C0933D03E0E5F1E0E491F1
:1015A000E0933E03ECE3F1E0E491E0933F0380E855
:1015B0009EE3A0E0B0E08093440390934503A093A2
:1015C0004603B09347031092CA021092CE021092C3
:1015D000CD021092CF0288E391E09093C9028093EC
:1015E000C802E4EEF2E0108214821382158236966D
:1015F00083E0E032F807B9F782E191E090932B03A2
:1016000080932A038FE091E090932D0380932C0325
:1016100084E080932E0383E080932F0386E191E0A2
:1016200090932903809328038AE090E090933103FC
:101630008093300384EF91E09093330380933203DF
:101640001092360310923503109224031092250352
:10165000109226031092270310923403CF9108951D
:101660008FEF8093620367CF789484B5826084BDE6
:1016700084B5816084BD85B5826085BD85B5816096
:1016800085BD80916E00816080936E001092810014
:1016900080918100826080938100809181008160CF
:1016A0008093810080918000816080938000809190
:1016B000B10084608093B1008091B000816080931C
:1016C000B00080917A00846080937A0080917A00E3
:1016D000826080937A0080917A00816080937A00A2
:1016E00080917A00806880937A001092C100E09126
:1016F0001602F091170282E08083E0911202F091CD
:1017000013021082E0911402F09115028FEC808395
:1017100010921E02E0911A02F0911B0286E0808373
:10172000E0911802F0911902808180618083E0913C
:101730001802F0911902808188608083E09118027C
:10174000F0911902808180688083E0911802F09105
:10175000190280818F7D808362EB70E086E092E0E9
:101760000E943B0466E971E086E092E00E94C606B2
:10177000809162038C3008F051C061E089E00E94E2
:101780002F0280916203282F30E0F901EE0FFF1F36
:10179000E20FF31FED55FD4F9081907C996090838F
:1017A00010926303109264032CE0622F0E946B126C
:1017B000829FB001112430E020E0AB01420F531FA3
:1017C000FA01EE0FFF1FE40FF51FED55FD4F90815D
:1017D00096FD16C02F5F3F4F2C30310571F78111F8
:1017E0000FC01092800082E08093810010928500EB
:1017F00010928400B19A80916F00826080936F0094
:10180000E09162038E2F90E0FC01EE0FFF1FE80FC6
:10181000F91FED55FD4F80818064808364E084E191
:101820000E940C0662E080913C030E942F020E94FD
:10183000C202605D77408109910960934003709313
:101840004103809342039093430387E380934903CA
:1018500061E08CE00E942F0261E08DE00E942F0287
:101860000E940108412C512C3201439464E0262E41
:1018700063E0362E0E94C2020091ED011091EE014C
:101880002091EF013091F001601B710B820B930BE3
:10189000603D77408105910508F40CC10E94C202A9
:1018A0006093ED017093EE018093EF019093F0014E
:1018B0000E94CE02882341F080913D038C3009F4D0
:1018C00068C048F48B3001F1C12CD12C30ECE32EF0
:1018D0003FE7F32E43C085518230B0F7C091390302
:1018E0006C2F70E0762F662766277F7780913A030A
:1018F000682B90E080E00E9442112DEC3CEC4CEC17
:101900005DE30E94F91161C06091390370E090E0DD
:1019100080E00E9442116B017C01C0913A03C7FF35
:101920000AC0AC019B0160E070E080E89FEB0E9480
:101930002F106B017C01CF706C2F70E090E080E085
:101940000E9444112DEC3CEC4CEC5DE30E94F9113B
:10195000A70196010E9430106B017C01C092E90141
:10196000D092EA01E092EB01F092EC010E94CE02EB
:10197000882351F080913D038B3030F08D3070F131
:101980008551823008F4FBC060E070E080EC9FE796
:1019900041C0C09139036C2F70E090E080E00E945C
:1019A00042116B017C0160913A036F7070E090E02E
:1019B00080E00E9444112DEC3CEC4CEC5DE30E9475
:1019C000F911A70196010E9430106B017C01C7FF3D
:1019D000C5CFF7FAF094F7F8F094C0CF60913803D0
:1019E00070E090E080E00E9444112DEC3CEC4CEC67
:1019F0005DE30E94F9114B015C016091370370E0D7
:101A000090E080E00E9444119B01AC01C501B4014B
:101A10000E9430106093E5017093E6018093E70126
:101A20009093E801A7019601C701B6010E946612D2
:101A3000811140C020E030E040EF51E4C701B60121
:101A40000E94F41161E087FD60E08CE00E940102D9
:101A500063E080E00E94B10669E971E08AE493E006
:101A60000E94F9076091E9017091EA018091EB0110
:101A70009091EC0141E00E941B0741E06FED8AE488
:101A800093E00E94B30560EA71E08AE493E00E946B
:101A9000F9076091E5017091E6018091E70190916D
:101AA000E80140E00E941B0769EA71E08AE493E0E4
:101AB0000E94F9070E94C2020091F1011091F20107
:101AC0002091F3013091F401601B710B820B930B99
:101AD000683E73408105910510F10E94C202609337
:101AE000F1017093F2018093F3019093F40180E48B
:101AF00080937C0080917A00806480937A0080914A
:101B00007A0086FDFCCF809178009091790061E0A9
:101B1000803991400CF060E08DE00E94010281E08C
:101B2000809334030E94C202009124031091250384
:101B30002091260330912703AB01BC01401B510BC0
:101B4000620B730B8091300390913103B0E0A0E001
:101B500084179507A607B70708F035C1C0E0809144
:101B60002E03C817F0F4E0912A03F0912B03EC0F39
:101B7000F11D62E080810E942F02CF5FF0CF609163
:101B800037037091380376276727762790E080E047
:101B90000E9442112DEC3CEC4CEC5DE30E94F911EB
:101BA00039CF10E080912F03181708F05FC0E12EA5
:101BB000F12CE0912C03F0912D03EE0DFF1D61E05F
:101BC00080810E942F02E0912C03F0912D03EE0DF5
:101BD000FF1D60E080810E940102D301C201012E3D
:101BE00004C0880F991FAA1FBB1F0A94D2F75C017B
:101BF0006C01C094D09400E080912E030817F8F493
:101C0000C02FD0E0E0912A03F0912B03EC0FFD1FD1
:101C100080810E94D8012496CC0FDD1FC853DD4F70
:101C2000892B41F4888199818A299B29998388830A
:101C30000F5FE2CF888199818C219D21F7CFE091C0
:101C40002C03F0912D03EE0DFF1D61E080810E94B9
:101C5000010280912C0390912D03E80EF91E60E0A3
:101C6000F70180810E942F021F5F9CCFC8ECD2E059
:101C70008E01D8015F968D919C919097892B59F494
:101C80005C961C925C97EFEFFFEF5E96FC93EE93F1
:101C90005D9791961C920A5F1F4F2016310649F7F7
:101CA000F12C80912E03F81608F053C0E12CCF2CB4
:101CB000D12CCC0CDD1CC60180539D4F6C012091B2
:101CC0002F03E21608F043C0D6016D917C910E2CD3
:101CD00002C0769567950A94E2F7F29E900111246E
:101CE0002E0D311DE8ECF2E080E0458D568D241775
:101CF000350709F416C18F5F36968A30B1F760FF59
:101D000024C0E8ECF2E090E080E0448D411118C07E
:101D1000E0912803F0912903E20FF31F4081B6E020
:101D2000B89FF001B99FF00D1124E853FD4F448F87
:101D3000368F258F10A2178E61E00E94D40305C054
:101D4000019636968A30910501F7E394B8CFF39463
:101D5000A8CFF12C89A18111F82E2696C017D107A2
:101D6000C9F70E94C20260932403709325038093F5
:101D7000260390932703FF2031F18091E902882305
:101D800011F18091E7029091E8020197E1F4C0918E
:101D9000E402C1111BC08091FC01811107C00E94A7
:101DA00015080E94010881E08093FC0180E090E02A
:101DB000892B09F45FCD0E94C904882309F45ACD08
:101DC0000E94000057CD10923403E5CFCA3249F487
:101DD0001092FB011092FA010E9415080E9401085E
:101DE000E5CF8091FA019091FB0184309105F4F6E2
:101DF00020ED2C0F2A30D0F6892B61F40E941508B3
:101E000060E080E00E94B10666EF70E08AE493E053
:101E10000E943B042091FA013091FB01C901019617
:101E20009093FB018093FA012B503E4FF901C08340
:101E300061E08A5F0E94B1066EEA71E08AE493E095
:101E40000E94F9078091FA019091FB01049709F033
:101E5000ADCF1092F90100E011E0D0E0C0E0D80170
:101E60006D917C9185EF91E00E947D12892B09F4A0
:101E70005AC021960B5F1F4FC330D10581F765EB28
:101E800071E085EF91E00E947D12892B19F40E9488
:101E9000260834C060EB71E085EF91E00E947D126E
:101EA000892BA9F30E94150860E083E00E94B10627
:101EB00067EE70E08AE493E00E943B0461E083E017
:101EC0000E94B10668ED70E08AE493E00E943B0452
:101ED00069EC70E086E092E00E943B0466E971E004
:101EE00086E092E00E94C6066CED75E080E090E02E
:101EF0000E9490020E9415080E940108E5EFF1E09F
:101F0000DF0125E01D922A95E9F71092FB0110925E
:101F1000FA0181E00E9406068BE39FE10197F1F749
:101F20005DCF61700ACF95E09C9FF0019D9FF00D01
:101F30001124E050FF4F81E08483C281D3810E944D
:101F4000150860E086E00E94B1066FEB70E08AE45D
:101F500093E00E943B0461E086E00E94B106BE016E
:101F60008AE493E00E94F907BE0186E092E00E94B5
:101F7000F9076AEB71E086E092E00E94C60666E926
:101F800071E086E092E00E94C60660ED77E080E0B6
:101F900090E00E9490027BCF052E97FB1EF40094E8
:101FA0000E94E30F57FD07D00E94FE0F07FC03D0ED
:101FB0004EF40C94E30F50954095309521953F4F8A
:101FC0004F4F5F4F089590958095709561957F4F25
:101FD0008F4F9F4F08950E942010A59F900DB49F92
:101FE000900DA49F800D911D11240895B7FF0C94AE
:101FF000EB0F0E94EB0F821B930B0895A1E21A2EA8
:10200000AA1BBB1BFD010DC0AA1FBB1FEE1FFF1F9C
:10201000A217B307E407F50720F0A21BB30BE40BEC
:10202000F50B661F771F881F991F1A9469F7609533
:102030007095809590959B01AC01BD01CF010895ED
:10204000A29FB001B39FC001A39F700D811D1124F9
:10205000911DB29F700D811D1124911D089550583E
:10206000BB27AA270E9447100C94BA110E94AC11FA
:1020700038F00E94B31120F039F49F3F19F426F490
:102080000C94A9110EF4E095E7FB0C94A311E92F31
:102090000E94CB1158F3BA1762077307840795079C
:1020A00020F079F4A6F50C94ED110EF4E0950B2ECA
:1020B000BA2FA02D0B01B90190010C01CA01A0019A
:1020C0001124FF27591B99F0593F50F4503E68F1F5
:1020D0001A16F040A22F232F342F4427585FF3CF36
:1020E000469537952795A795F0405395C9F77EF407
:1020F0001F16BA0B620B730B840BBAF09150A1F050
:10210000FF0FBB1F661F771F881FC2F70EC0BA0FD5
:10211000621F731F841F48F4879577956795B7955D
:10212000F7959E3F08F0B0CF9395880F08F0992758
:10213000EE0F9795879508950E947F1108F481E02E
:1021400008950E94B5100C94BA110E94B31158F072
:102150000E94AC1140F029F45F3F29F00C94A311C8
:1021600051110C94EE110C94A9110E94CB1168F33B
:102170009923B1F3552391F3951B550BBB27AA2740
:1021800062177307840738F09F5F5F4F220F331F7A
:10219000441FAA1FA9F335D00E2E3AF0E0E832D042
:1021A00091505040E695001CCAF72BD0FE2F29D045
:1021B000660F771F881FBB1F261737074807AB0717
:1021C000B0E809F0BB0B802DBF01FF2793585F4F8C
:1021D0003AF09E3F510578F00C94A3110C94EE1147
:1021E0005F3FE4F3983ED4F3869577956795B7956E
:1021F000F7959F5FC9F7880F911D9695879597F979
:102200000895E1E0660F771F881FBB1F62177307F1
:102210008407BA0720F0621B730B840BBA0BEE1F06
:1022200088F7E09508950E94D31188F09F5798F0A1
:10223000B92F9927B751B0F0E1F0660F771F881FCB
:10224000991F1AF0BA95C9F714C0B13091F00E94E5
:10225000ED11B1E008950C94ED11672F782F8827C8
:10226000B85F39F0B93FCCF3869577956795B3950C
:10227000D9F73EF490958095709561957F4F8F4F7B
:102280009F4F0895E89409C097FB3EF49095809580
:10229000709561957F4F8F4F9F4F9923A9F0F92F2C
:1022A00096E9BB279395F695879577956795B795AA
:1022B000F111F8CFFAF4BB0F11F460FF1BC06F5F90
:1022C0007F4F8F4F9F4F16C0882311F096E911C0A2
:1022D000772321F09EE8872F762F05C0662371F0C3
:1022E00096E8862F70E060E02AF09A95660F771FD7
:1022F000881FDAF7880F9695879597F90895990FB3
:102300000008550FAA0BE0E8FEEF16161706E807BF
:10231000F907C0F012161306E407F50798F0621BE0
:10232000730B840B950B39F40A2661F0232B242BB5
:10233000252B21F408950A2609F4A140A6958FEFD4
:10234000811D811D089597F99F6780E870E060E026
:1023500008959FEF80EC089500240A94161617063E
:1023600018060906089500240A9412161306140686
:1023700005060895092E0394000C11F4882352F0E9
:10238000BB0F40F4BF2B11F460FF04C06F5F7F4FA1
:102390008F4F9F4F089557FD9058440F551F59F088
:1023A0005F3F71F04795880F97FB991F61F09F3F42
:1023B00079F087950895121613061406551FF2CF6B
:1023C0004695F1DF08C0161617061806991FF1CFBB
:1023D00086957105610508940895E894BB276627E2
:1023E0007727CB0197F908950E947F1108F48FEFAA
:1023F00008950E940C120C94BA110E94AC1138F08E
:102400000E94B31120F0952311F00C94A3110C94A9
:10241000A91111240C94EE110E94CB1170F3959F19
:10242000C1F3950F50E0551F629FF001729FBB27CB
:10243000F00DB11D639FAA27F00DB11DAA1F649F67
:102440006627B00DA11D661F829F2227B00DA11D1A
:10245000621F739FB00DA11D621F839FA00D611DA0
:10246000221F749F3327A00D611D231F849F600DC1
:10247000211D822F762F6A2F11249F5750409AF0EA
:10248000F1F088234AF0EE0FFF1FBB1F661F771F76
:10249000881F91505040A9F79E3F510580F00C9441
:1024A000A3110C94EE115F3FE4F3983ED4F38695AC
:1024B00077956795B795F795E7959F5FC1F7FE2BE1
:1024C000880F911D9695879597F908950E947F1121
:1024D000880B990B0895991B79E004C0991F9617F2
:1024E00008F0961B881F7A95C9F780950895EE0F1E
:1024F000FF1F0590F491E02D0994FB01DC018D9103
:10250000019080190110D9F3990B0895F894FFCF29
:10251000C301C80100CD01D20100D801DD010006D0
:102520000708020304053132333435363738392A87
:10253000302300000000FF045F048C044C05BD0440
:102540009B04AF0400000000300434043804000091
:102550000000C0065F046D056C056E616E00696E5B
:1025600066006F76660020202053797374656D6570
:102570002064276163636573202000202020456E5E
:102580007472657A20206C6520636F64652020205A
:10259000002020202020202020202020202020205B
:1025A0002020202020000D0A0054656D703A200084
:1025B00043202048756D3A200025202020002A0065
:1025C000383838380039393939002C50524553459C
:1025D0004E540031323334004142444F00323334E0
:1025E0003500484F554441003334353600414C499D
:0225F0000000E9
:107E0000112484B714BE81FFF0D085E080938100F7
:107E100082E08093C00088E18093C10086E0809377
:107E2000C20080E18093C4008EE0C9D0259A86E02C
:107E300020E33CEF91E0309385002093840096BBD3
:107E4000B09BFECF1D9AA8958150A9F7CC24DD24C4
:107E500088248394B5E0AB2EA1E19A2EF3E0BF2EE7
:107E6000A2D0813461F49FD0082FAFD0023811F036
:107E7000013811F484E001C083E08DD089C08234E0
:107E800011F484E103C0853419F485E0A6D080C0E4
:107E9000853579F488D0E82EFF2485D0082F10E0AE
:107EA000102F00270E291F29000F111F8ED06801E7
:107EB0006FC0863521F484E090D080E0DECF843638
:107EC00009F040C070D06FD0082F6DD080E0C81688
:107ED00080E7D80618F4F601B7BEE895C0E0D1E017
:107EE00062D089930C17E1F7F0E0CF16F0E7DF06D8
:107EF00018F0F601B7BEE89568D007B600FCFDCFD4
:107F0000A601A0E0B1E02C9130E011968C91119780
:107F100090E0982F8827822B932B1296FA010C0160
:107F200087BEE89511244E5F5F4FF1E0A038BF0790
:107F300051F7F601A7BEE89507B600FCFDCF97BE46
:107F4000E89526C08437B1F42ED02DD0F82E2BD052
:107F50003CD0F601EF2C8F010F5F1F4F84911BD097
:107F6000EA94F801C1F70894C11CD11CFA94CF0C13
:107F7000D11C0EC0853739F428D08EE10CD085E9AC
:107F80000AD08FE07ACF813511F488E018D01DD067
:107F900080E101D065CF982F8091C00085FFFCCF94
:107FA0009093C60008958091C00087FFFCCF809118
:107FB000C00084FD01C0A8958091C6000895E0E648
:107FC000F0E098E1908380830895EDDF803219F02E
:107FD00088E0F5DFFFCF84E1DECF1F93182FE3DFCA
:107FE0001150E9F7F2DF1F91089580E0E8DFEE27F6
:047FF000FF270994CA
:027FFE00040479
:00000001FF
