:020000040000FA
:100000000C94AD000C94D5000C94D5000C94D50044
:100010000C94D5000C94D5000C94D5000C94D5000C
:100020000C94D5000C94D5000C94D5000C94840944
:100030000C94D5000C94D5000C94D5000C94D500EC
:100040000C94E2080C94D5000C9452090C942C09E1
:100050000C94D5000C94D5000C94D5000C94D500CC
:100060000C94D5000C94D500504F52544520464571
:10007000524D4545004645524D45545552452E2E4C
:100080002E00454E5452455A205241504944454D48
:10009000454E5400504F525445204F5556455254EA
:1000A00045004143434553204155544F5249534520
:1000B0000053595354454D5F5245414459004249FC
:1000C000454E56454E554500434F444520494E4305
:1000D0004F52524543540041636365732072656615
:1000E00075736500434F444520494E434F52524576
:1000F00043540050415353574F52443A00000000BC
:1001000000240027002A0000000000250028002B02
:1001100000000000080002010000030407000000C6
:100120000000000000000000002300260029000459
:10013000040404040404040202020202020303038E
:100140000303030102040810204080010204081088
:100150002001020408102000400A11241FBECFEF26
:10016000D8E0DEBFCDBF11E0A0E0B1E0EEE0F5E207
:1001700002C005900D92AE3DB107D9F723E0AEED78
:10018000B1E001C01D92A136B207E1F710E0CDEA5F
:10019000D0E004C02197FE010E947612CC3AD1072C
:1001A000C9F70E94330B0C9485120C940000CF9277
:1001B000DF92EF92FF92CF93DF93B0913A03A0E0EA
:1001C0008111AB2F80913B0390E0880F991FAC0108
:1001D0004B5D5E4FC0904003D0904103E0904203DE
:1001E000F090430330E020E0FA01C591D491E8811A
:1001F000B90190E080E0EB23EA130AC02F5F3F4F84
:100200006C157D058E059F0578F36FEF7FEFCB01B1
:10021000DF91CF91FF90EF90DF90CF900895CF9234
:10022000DF92EF92FF92DC01A03282E0B807D4F5B2
:10023000A53BB10514F0A4EBB0E040915F0328E8C2
:1002400030E0241B310947FD3395220F331F220F65
:10025000331F6901330FEE08FF084091600328E562
:1002600032E0241B310947FD3395220F331F220F43
:10027000331F032E000C440B550B2C193D094E095E
:100280005F09B7FF02C0B0E0A0E00E94F50F24EBC9
:1002900030E040E050E00E94CB0FC20ED31EE41EBF
:1002A000F51ED601E0915E03EC3080F520915F03EE
:1002B00088E890E0821B910927FD9395880F991F8C
:1002C000880F991FA817B90784F02091600388E56B
:1002D00092E0821B910927FD9395880F991F880F43
:1002E000991FA817B9070CF4CD010297880F991F21
:1002F0004FB7F8942E2F30E0F901EE0FFF1FE20FF9
:10030000F31FE156FD4F928381834FBFFF90EF9023
:10031000DF90CF90089596E0899FD0011124AC53CF
:10032000BD4F90967C936E935F9791E091969C93CE
:100330009197E0913103F09132039091300399232A
:1003400039F0309751F0811108C08091E002099492
:10035000309719F05C968C91FACF0895833081F034
:1003600028F4813099F08230A9F008958730A9F0FF
:100370008830C9F08430B1F4809180008F7D03C053
:10038000809180008F7780938000089584B58F7767
:1003900084BD089584B58F7DFBCF8091B0008F77A9
:1003A0008093B00008958091B0008F7DF9CFCF93F6
:1003B000DF93282F30E0F901EF5EFE4F8491F901C1
:1003C000ED5BFE4FD491F901E15DFE4FC491CC236A
:1003D000A1F081110E94AE01EC2FF0E0EE0FFF1FA3
:1003E000EB5DFE4FA591B491EC91ED2381E090E09F
:1003F00009F480E0DF91CF91089580E090E0FACF9A
:100400001F93CF93DF93282F30E0F901EF5EFE4F6B
:100410008491F901ED5BFE4FD491F901E15DFE4F4E
:10042000C491CC23A9F0162F81110E94AE01EC2FAC
:10043000F0E0EE0FFF1FE95FFE4FA591B4918FB77B
:10044000F894EC91111108C0D095DE23DC938FBF96
:10045000DF91CF911F910895DE2BF8CFCF93DF93DB
:1004600090E0FC01ED5BFE4F2491815D9E4FFC010D
:1004700084918823C9F090E0880F991FFC01E35014
:10048000FF4FA591B491FC01E95FFE4FC591D49156
:1004900061110DC09FB7F8948C91209582238C93A5
:1004A0008881282328839FBFDF91CF9108956230F0
:1004B00051F49FB7F8943C91822F809583238C93BD
:1004C000E8812E2BEFCF8FB7F894EC912E2B2C9345
:1004D0008FBFEACF3FB7F8948091FE019091FF0162
:1004E000A0910002B091010226B5A89B05C02F3F44
:1004F00019F00196A11DB11D3FBFBA2FA92F982F4A
:100500008827BC01CD01620F711D811D911D42E044
:10051000660F771F881F991F4A95D1F708958F920C
:100520009F92AF92BF92CF92DF92EF92FF924B01D8
:100530005C010E946A026B017C010E946A026C19D4
:100540007D098E099F09683E734081059105A8F3D6
:1005500021E0821A9108A108B10888EEC80E83E054
:10056000D81EE11CF11C81149104A104B10429F7E7
:10057000FF90EF90DF90CF90BF90AF909F908F90C3
:1005800008952FB7F8946091FA017091FB01809162
:10059000FC019091FD012FBF0895CF92DF92EF9261
:1005A000FF920F931F93CF93DF93CDB7DEB7C05465
:1005B000D1400FB6F894DEBF0FBECDBF0E94C1027E
:1005C00000913C0310913D0320913E0330913F0385
:1005D0006B017C01C01AD10AE20AF30A9701860175
:1005E000003D17402105310590F480914403C05C23
:1005F000DE4F0FB6F894DEBF0FBECDBFDF91CF91B7
:100600001F910F91FF90EF90DF90CF90089560932E
:100610003C0370933D0380933E0390933F031092FD
:100620003703109236031092350310923403109260
:10063000330362E0809138030E942E0261E070E093
:1006400080E090E00E948F0261E0809138030E9478
:100650002E0260E0809138030E94000280913903ED
:100660008551823020F58BE291E10197F1F762E04C
:10067000809138030E942E028091450390E08230E1
:10068000910538F0880F991F880F991F05970197DA
:10069000F1F7F89480E00E94D7006F3F7F4F8F4FB3
:1006A0009F4F61F410924403789480E0A0CF64E1FE
:1006B00070E080E090E00E948F02D9CF81E00E943C
:1006C000D7006F3F7F4F8F4F9F4F61F38E010F5FBA
:1006D0001F4F6E012FEBC21A2EEFD20A780180E075
:1006E0000E94D700F701608371838283938381E046
:1006F0000E94D700F7016483758386839783F8E0AF
:10070000EF0EF11CEC14FD0451F7789430E020E07A
:10071000F801C080D180E280F380448155816681F8
:100720007781FFEFCF16DF06EF06FF0631F04F3F70
:100730008FEF58076807780719F410924403B5CF74
:10074000F90183E0F595E7958A95E1F7ED5CFC4FBB
:100750008081880FC416D506E606F70610F180835F
:100760002F5F3F4F085F1F4F2832310589F64091B8
:1007700037032091330380913403280F3327331F2D
:1007800080913503280F311D80913603820F932FFE
:10079000911D99274817190681F681E0809344033B
:1007A00026CF8160DCCF0F931F93CF93DF93C82FA9
:1007B000D62F86E0C89FF0011124EC53FD4F11A203
:1007C000878D90A181309105F1F058F0823091052C
:1007D000F1F1039709F440C0DF91CF911F910F9180
:1007E00008956623C9F361E070E08C2F0E948B01AD
:1007F0000E94C10260931C0370931D0380931E032B
:1008000090931F03E9CF0E94C10200911C03109135
:100810001D0320911E0330911F03AB01BC01401B3F
:10082000510B620B730B80912E0390912F03B0E05C
:10083000A0E084179507A607B70748F462E070E0C8
:100840008C2FDF91CF911F910F910C948B0163E05E
:1008500070E0D111C1CFF4CF70E060E0F1CF862F0E
:10086000642F0C942E02862F642F0C940002862F86
:100870000C94D701EF92FF920F931F93CF93DF93C6
:100880008C017B01D0E0C0E0F701EC0FFD1F64910B
:10089000662361F0D801ED91FC910190F081E02D8B
:1008A000C8010995892B11F02196EECFCE01DF9179
:1008B000CF911F910F91FF90EF900895AF92BF924B
:1008C000CF92DF92EF92FF920F931F93CF93DF931C
:1008D0006C017B018B01040F151FEB015E01AE184B
:1008E000BF08C017D10759F06991D601ED91FC916D
:1008F0000190F081E02DC6010995892B79F7C5019A
:10090000DF91CF911F910F91FF90EF90DF90CF90EB
:10091000BF90AF900895FC01538D448D252F30E09A
:10092000842F90E0821B930B541710F0CF960895FC
:1009300001970895FC01918D828D981761F0A28D29
:10094000AE0FBF2FB11D5D968C91928D9F5F9F73EF
:10095000928F90E008958FEF9FEF0895FC01918DA5
:10096000828D981731F0828DE80FF11D858D90E012
:1009700008958FEF9FEF0895FC01918D228D892FAF
:1009800090E0805C9F4F821B91098F739927089597
:1009900082E092E00E94BC0421E0892B09F420E06F
:1009A000822F089580E090E0892B29F00E94C804EE
:1009B00081110C9400000895FC01A48DA80FB92F9B
:1009C000B11DA35ABF4F2C91848D90E001968F7377
:1009D0009927848FA689B7892C93A089B1898C9196
:1009E000837080648C93938D848D981306C00288E5
:1009F000F389E02D80818F7D80830895EF92FF92AF
:100A00000F931F93CF93DF93EC0181E0888F9B8D31
:100A10008C8D98131AC0E889F989808185FF15C0EB
:100A20009FB7F894EE89FF896083E889F98980810E
:100A30008370806480839FBF81E090E0DF91CF91DD
:100A40001F910F91FF90EF900895F62E0B8D10E0FF
:100A50000F5F1F4F0F731127E02E8C8D8E110CC06E
:100A60000FB607FCFACFE889F989808185FFF5CFB9
:100A7000CE010E94DC04F1CFEB8DEC0FFD2FF11DB8
:100A8000E35AFF4FF0829FB7F8940B8FEA89FB89F6
:100A900080818062CFCFCF93DF93EC01888D882354
:100AA000B9F0AA89BB89E889F9898C9185FD03C0D1
:100AB000808186FD0DC00FB607FCF7CF8C9185FFB6
:100AC000F2CF808185FFEDCFCE010E94DC04E9CF1B
:100AD000DF91CF910895089590E080E00895CF933D
:100AE000DF93EC0160E08E810E94000261E08E8164
:100AF0000E94000260E08E810E9400028BE891E07B
:100B00000197F1F7DF91CF910895CF92DF92EF92A5
:100B1000FF920F931F93CF93DF936C017C0187E0CB
:100B2000E80EF11CD0E0C0E0062F10E0B8010C2E5A
:100B300002C0759567950A94E2F76170F70181919B
:100B40007F010E9400022196C430D10579F7C601C9
:100B5000DF91CF911F910F91FF90EF90DF90CF9099
:100B60000C946F05CF92DF92EF92FF920F931F9339
:100B7000CF93DF93EC01F62E642F8C810E9400024C
:100B80008D818F3F19F060E00E9400020F2D10E070
:100B90008F8584FF25C06E0187E0C80ED11CF12C23
:100BA000E12CB8010E2C02C0759567950A94E2F706
:100BB0006170F60181916F010E940002FFEFEF1A50
:100BC000FF0A88E0E816F10461F7CE01DF91CF91CA
:100BD0001F910F91FF90EF90DF90CF900C946F05D5
:100BE000B80184E0759567958A95E1F7CE010E947A
:100BF00085056F2DCE01DF91CF911F910F91FF9051
:100C0000EF90DF90CF900C94850540E0682F86E44C
:100C100093E00C94B205CF93DF93613029F090916B
:100C200055039860909355036093590310925A03AB
:100C300090E490935B0380935C03805C80935D03FE
:100C400061E080914A030E942E0280914B038F3F06
:100C500019F061E00E942E0261E080914C030E9435
:100C60002E02C6E4D3E09E01265433408091550302
:100C700084FD0BC084E090E021962817390744F4E6
:100C800061E08E810E942E02EECF88E090E0F4CFEA
:100C90008BE39DE00197F1F760E080914A030E94A9
:100CA000000260E080914C030E94000280914B039F
:100CB0008F3F19F060E00E9400028091550384FD8F
:100CC00039C063E086E493E00E948505CBE4D6E476
:100CD000CE010197F1F763E086E493E00E94850579
:100CE0002197F1F763E086E493E00E94850583E5B0
:100CF00092E00197F1F762E086E493E00E948505B7
:100D00008091550380620E94050684E0809356031B
:100D10008CE00E94050681E00E9405068BE39FE1BE
:100D20000197F1F782E08093570386E0DF91CF913E
:100D30000C94050680620E9405068BE496E40197F8
:100D4000F1F78091550380620E94050683E592E0E9
:100D50000197F1F78091550380620E940506D0CF7C
:100D600090915903691710F06FEF690FE62FF0E0CB
:100D7000EA5BFC4F9489890F80680C94050641E07A
:100D80000E94B20581E090E00895FB0101900020EF
:100D9000E9F73197AF01461B570BDC01ED91FC9150
:100DA0000280F381E02D09948F929F92AF92BF92BF
:100DB0000F931F93CF93DF93CDB7DEB7A1970FB6F5
:100DC000F894DEBF0FBECDBF19A2423008F44AE04E
:100DD0008E010F5D1F4F842E912CB12CA12CA501EB
:100DE00094010E94FD0FE62FB901CA01EA3004F513
:100DF000E05DD801EE938D01232B242B252B79F771
:100E000090E080E0109729F0BD0186E493E00E9415
:100E1000C506A1960FB6F894DEBF0FBECDBFDF9119
:100E2000CF911F910F91BF90AF909F908F90089599
:100E3000E95CDFCF4F925F926F927F928F929F9289
:100E4000AF92BF92CF92DF92EF92FF920F931F93D8
:100E5000CF936B017C01742EAC019B010E94651243
:100E60006AE471E0811126C046015701E894B7F8A1
:100E70002FEF3FEF4FE75FE7C501B4010E94651216
:100E800081110CC02FEF3FEF4FE75FE7C501B401C1
:100E90000E949B106EE471E0181664F02FEF3FEF94
:100EA0004FE75FE4C701B6010E94F3111816ACF4D6
:100EB00062E571E086E493E0CF911F910F91FF907E
:100EC000EF90DF90CF90BF90AF909F908F907F90EA
:100ED0006F905F904F900C94C5062FEF3FEF4FE758
:100EE0005FECC701B6010E949B1087FDE1CF20E0B7
:100EF00030E0A901C701B6010E949B1010E000E09C
:100F000087FF0CC041E06DE286E493E00E94B205E9
:100F1000F7FAF094F7F8F09401E010E0C0E060E038
:100F200070E080E09FE37C1641F020E030E040E29A
:100F300051E40E94A010CF5FF6CFA70196010E9456
:100F40002F104B015C010E9412112B013C014AE061
:100F50000E94D406080F191FCC23C9F1C301B201A6
:100F60000E9441119B01AC01C501B4010E942E10E9
:100F70004B015C0141E06EE286E493E00E94B20521
:100F80000F5F1F4FC15018F120E030E040E251E404
:100F9000C501B4010E94F8112B013C010E941211FD
:100FA0004B01B12CA12C4AE0C501B4010E94D4062A
:100FB000080F191FC501B4010E9441119B01AC012A
:100FC000C301B2010E942E104B015C01DBCFC801AE
:100FD000CF911F910F91FF90EF90DF90CF90BF9036
:100FE000AF909F908F907F906F905F904F900895FB
:100FF0006115710511F00C94C50690E080E008952C
:1010000060E080E00E94B00666E571E086E493E06F
:101010000E94F80761E080E00E94B0066BE671E094
:1010200086E493E00C94F807CF93C0E06C2F80E047
:101030000E94B0066DE771E086E493E00E94F80735
:10104000CF5FC33099F7CF910895CF92DF92EF929F
:10105000FF92CF93DF9364EF71E080E090E00E9415
:101060008F020E94140860E082E00E94B00662EAEB
:1010700070E086E493E00E943A0461E083E00E941D
:10108000B00664E970E086E493E00E943A0484EBE1
:1010900090E09093DF018093DE01C091DE01D0915A
:1010A000DF01D7FD0FC0CE010E940F016AE070E0A2
:1010B00080E090E00E948F022597D093DF01C093DB
:1010C000DE01EBCF60ED77E080E090E00E948F02E0
:1010D00085E0C82ED12CE12CF12C0E94140860E090
:1010E00082E00E94B00662E870E086E493E00E942D
:1010F0003A0461E088E00E94B0064AE0C701B60108
:101100000E94D4066CEB72E080E090E00E948F02B7
:1011100081E0C81AD108E108F108F9F60E94140824
:1011200061E084E00E94B00665E770E086E493E049
:101130000E943A0468EE73E080E090E00E948F0223
:101140000E94140861E086E00E94B00668E670E044
:1011500086E493E00E943A0460E273E080E090E06D
:101160000E948F0264EF71E080E090E00E948F02A5
:101170001092DF011092DE01C091DE01D091DF01FB
:10118000C53BD1057CF4CE010E940F016FE070E0F9
:1011900080E090E00E948F022596D093DF01C093FB
:1011A000DE01EACF64EF71E080E090E00E948F0200
:1011B0000E941408DF91CF91FF90EF90DF90CF90C5
:1011C0000C9400081F920F920FB60F9211242F93C8
:1011D0003F938F939F93AF93BF938091FA01909128
:1011E000FB01A091FC01B091FD013091F90123E0D8
:1011F000230F2D3758F50196A11DB11D2093F9013C
:101200008093FA019093FB01A093FC01B093FD0140
:101210008091FE019091FF01A0910002B091010226
:101220000196A11DB11D8093FE019093FF01A09333
:101230000002B0930102BF91AF919F918F913F91B6
:101240002F910F900FBE0F901F90189526E8230F37
:101250000296A11DB11DD2CF1F920F920FB60F9211
:1012600011242F933F934F935F936F937F938F93AB
:101270009F93AF93BF93EF93FF9382E092E00E941E
:10128000DC04FF91EF91BF91AF919F918F917F917E
:101290006F915F914F913F912F910F900FBE0F90E3
:1012A0001F9018951F920F920FB60F9211242F9333
:1012B0008F939F93EF93FF93E0911202F0911302AB
:1012C0008081E0911802F091190282FD1BC090818B
:1012D00080911B028F5F8F7320911C02821741F057
:1012E000E0911B02F0E0EE5FFD4F958F80931B02B3
:1012F000FF91EF919F918F912F910F900FBE0F90C3
:101300001F9018958081F4CF1F920F920FB60F9205
:1013100011242F933F934F935F936F937F938F93FA
:101320009F93AF93BF93CF93DF93EF93FF938091FE
:10133000E001C091C302D0E087FF24C01092850075
:10134000109284008091E0018F5F8093E001809192
:10135000E001082E000C990B8C179D0724F4809156
:10136000E0018C30C4F18091840090918500049656
:1013700080349C4908F47AC0809184009091850063
:10138000049676C08091E001082E000C990B8C1712
:101390009D07C4F6E091E0018E2FEE0F990BFC0142
:1013A000EE0FFF1FE80FF91FE156FD4F808186FF0A
:1013B000C9CFE091E0018E2FEE0F990BFC01EE0FEB
:1013C000FF1FE80FF91FE156FD4F808160E08F732A
:1013D0000E940002B7CF2091840030918500E091F7
:1013E000E0018E2FEE0F990BFC01EE0FFF1FE80FAF
:1013F000F91FE156FD4F81819281820F931F9093D7
:10140000890080938800E091E0018E2FEE0F990B08
:10141000FC01EE0FFF1FE80FF91FE156FD4F808121
:1014200086FF11C0E091E0018E2FEE0F990BFC01B9
:10143000EE0FFF1FE80FF91FE156FD4F808161E0BD
:101440008F730E940002FF91EF91DF91CF91BF91C6
:10145000AF919F918F917F916F915F914F913F914C
:101460002F910F900FBE0F901F90189580E49CE96C
:1014700090938900809388008FEF8093E001E3CF01
:10148000CF93109205021092040288EE93E0A0E040
:10149000B0E08093060290930702A0930802B093F5
:1014A000090286E291E0909303028093020285ECA8
:1014B00090E090930F0280930E0284EC90E0909362
:1014C00011028093100280EC90E0909313028093BD
:1014D000120281EC90E0909315028093140282EC4A
:1014E00090E0909317028093160286EC90E0909320
:1014F00019028093180210921B0210921C02109283
:101500001D0210921E028091C3028C3008F0A7C009
:1015100091E0980F9093C30280935E0390E0FC01EA
:10152000EE0FFF1FE80FF91FE156FD4F88EB9BE020
:1015300092838183109249031092480382E491E0E0
:10154000909347038093460382E180934A038FEF91
:1015500080934B0383E180934C0381E180934D039F
:1015600080E180934E038FE080934F03CBE0C093E4
:101570005003109251031092520310925303109291
:1015800054031092550361E080E10E940B068AE04B
:1015900080933803C0933903EDE4F1E0E491E093E4
:1015A0003A03E9E3F1E0E491E0933B0380E89EE352
:1015B000A0E0B0E08093400390934103A0934203E6
:1015C000B09343031092C6021092CA021092C9024D
:1015D0001092CB0288E391E09093C5028093C402FD
:1015E000E0EEF2E01082148213821582369683E0D8
:1015F000EC31F807B9F782E191E0909327038093EB
:1016000026038FE091E0909329038093280384E0E0
:1016100080932A0383E080932B0386E191E09093EB
:101620002503809324038AE090E090932D03809318
:101630002C0384EF91E090932F0380932E0310925C
:101640003203109231031092200310922103109262
:1016500022031092230310923003CF9108958FEF4D
:1016600080935E0367CF789484B5826084BD84B52F
:10167000816084BD85B5826085BD85B5816085BD8D
:1016800080916E00816080936E0010928100809145
:1016900081008260809381008091810081608093CD
:1016A0008100809180008160809380008091B100F2
:1016B00084608093B1008091B00081608093B0001D
:1016C00080917A00846080937A0080917A008260B1
:1016D00080937A0080917A00816080937A00809173
:1016E0007A00806880937A001092C100E091120223
:1016F000F091130282E08083E0910E02F0910F02DC
:101700001082E0911002F09111028FEC8083109210
:101710001A02E0911602F091170286E08083E091B0
:101720001402F0911502808180618083E09114029F
:10173000F0911502808188608083E0911402F0911D
:101740001502808180688083E0911402F091150277
:1017500080818F7D808361EB70E082E092E00E9467
:101760003A0462E971E082E092E00E94C50680914D
:101770005E038C3008F051C061E089E00E942E02C7
:1017800080915E03282F30E0F901EE0FFF1FE20F7A
:10179000F31FE156FD4F9081907C996090831092E9
:1017A0005F03109260032CE0622F0E946A12829FF6
:1017B000B001112430E020E0AB01420F531FFA01C9
:1017C000EE0FFF1FE40FF51FE156FD4F908196FDD0
:1017D00016C02F5F3F4F2C30310571F781110FC0BC
:1017E0001092800082E08093810010928500109218
:1017F0008400B19A80916F00826080936F00E091C5
:101800005E038E2F90E0FC01EE0FFF1FE80FF91F23
:10181000E156FD4F80818064808364E084E10E9412
:101820000B0662E0809138030E942E020E94C102E2
:10183000605D77408109910960933C0370933D039B
:1018400080933E0390933F0387E38093450361E0D9
:101850008CE00E942E0261E08DE00E942E020E9428
:101860000008412C512C3201439460E0262E63E0A5
:10187000362E0E94C1020091E9011091EA012091E7
:10188000EB013091EC01601B710B820B930B603DFF
:1018900077408105910508F40CC10E94C102609354
:1018A000E9017093EA018093EB019093EC010E94AF
:1018B000CD02882341F0809139038C3009F468C04F
:1018C00048F48B3001F1C12CD12C30ECE32E3FE7F2
:1018D000F32E43C085518230B0F7C09135036C2F91
:1018E00070E0762F662766277F7780913603682B16
:1018F00090E080E00E9441112DEC3CEC4CEC5DE36B
:101900000E94F81161C06091350370E090E080E0C2
:101910000E9441116B017C01C0913603C7FF0AC0D0
:10192000AC019B0160E070E080E89FEB0E942E100C
:101930006B017C01CF706C2F70E090E080E00E9422
:1019400043112DEC3CEC4CEC5DE30E94F811A70137
:1019500096010E942F106B017C01C092E501D0928C
:10196000E601E092E701F092E8010E94CD028823AF
:1019700051F0809139038B3030F08D3070F185510A
:10198000823008F4FBC060E070E080EC9FE741C06B
:10199000C09135036C2F70E090E080E00E9441110F
:1019A0006B017C01609136036F7070E090E080E025
:1019B0000E9443112DEC3CEC4CEC5DE30E94F811CD
:1019C000A70196010E942F106B017C01C7FFC5CFB4
:1019D000F7FAF094F7F8F094C0CF6091340370E018
:1019E00090E080E00E9443112DEC3CEC4CEC5DE378
:1019F0000E94F8114B015C016091330370E090E0AC
:101A000080E00E9443119B01AC01C501B4010E941A
:101A10002F106093E1017093E2018093E3019093B2
:101A2000E401A7019601C701B6010E946512811168
:101A300040C020E030E040EF51E4C701B6010E9411
:101A4000F31161E087FD60E08CE00E94000263E03A
:101A500080E00E94B00665E971E086E493E00E94B0
:101A6000F8076091E5017091E6018091E70190919E
:101A7000E80141E00E941A0741E06FED86E493E03F
:101A80000E94B2056CE971E086E493E00E94F807D9
:101A90006091E1017091E2018091E3019091E40194
:101AA00040E00E941A0765EA71E086E493E00E9434
:101AB000F8070E94C1020091ED011091EE01209102
:101AC000EF013091F001601B710B820B930B683EAC
:101AD00073408105910510F10E94C1026093ED01F0
:101AE0007093EE018093EF019093F00180E4809376
:101AF0007C0080917A00806480937A0080917A00E3
:101B000086FDFCCF809178009091790061E080396A
:101B100091400CF060E08DE00E94000281E0809333
:101B200030030E94C10200912003109121032091F3
:101B3000220330912303AB01BC01401B510B620B0C
:101B4000730B80912C0390912D03B0E0A0E08417DB
:101B50009507A607B70708F035C1C0E080912A03B2
:101B6000C817F0F4E0912603F0912703EC0FF11D64
:101B700062E080810E942E02CF5FF0CF609133033C
:101B80007091340376276727762790E080E00E94E3
:101B900041112DEC3CEC4CEC5DE30E94F81139CF87
:101BA00010E080912B03181708F05FC0E12EF12C94
:101BB000E0912803F0912903EE0DFF1D61E0808183
:101BC0000E942E02E0912803F0912903EE0DFF1DE3
:101BD00060E080810E940002D301C201012E04C096
:101BE000880F991FAA1FBB1F0A94D2F75C016C01D2
:101BF000C094D09400E080912A030817F8F4C02F15
:101C0000D0E0E0912603F0912703EC0FFD1F8081C7
:101C10000E94D7012496CC0FDD1FCC53DD4F892BBA
:101C200041F4888199818A299B29998388830F5F50
:101C3000E2CF888199818C219D21F7CFE091280303
:101C4000F0912903EE0DFF1D61E080810E940002EA
:101C50008091280390912903E80EF91E60E0F701B6
:101C600080810E942E021F5F9CCFC4ECD2E08E01C7
:101C7000D8015F968D919C919097892B59F45C9631
:101C80001C925C97EFEFFFEF5E96FC93EE935D97EF
:101C900091961C920A5F1F4F2016310649F7F12CCE
:101CA00080912A03F81608F053C0E12CCF2CD12CD8
:101CB000CC0CDD1CC60184539D4F6C0120912B037D
:101CC000E21608F043C0D6016D917C910E2C02C043
:101CD000769567950A94E2F7F29E900111242E0DF5
:101CE000311DE4ECF2E080E0458D568D2417350778
:101CF00009F416C18F5F36968A30B1F760FF24C0B1
:101D0000E4ECF2E090E080E0448D411118C0E091F5
:101D10002403F0912503E20FF31F4081B6E0B89F42
:101D2000F001B99FF00D1124EC53FD4F448F368F15
:101D3000258F10A2178E61E00E94D30305C0019683
:101D400036968A30910501F7E394B8CFF394A8CF83
:101D5000F12C89A18111F82E2696C017D107C9F759
:101D60000E94C10260932003709321038093220399
:101D700090932303FF2031F18091E502882311F134
:101D80008091E3029091E4020197E1F4C091E002B6
:101D9000C1111BC08091F801811107C00E94140875
:101DA0000E94000881E08093F80180E090E0892B98
:101DB00009F45FCD0E94C804882309F45ACD0E941B
:101DC000000057CD10923003E5CFCA3249F410928B
:101DD000F7011092F6010E9414080E940008E5CF56
:101DE0008091F6019091F70184309105F4F620ED91
:101DF0002C0F2A30D0F6892B61F40E94140860E081
:101E000080E00E94B00663EF70E086E493E00E94F9
:101E10003A042091F6013091F701C901019690939F
:101E2000F7018093F6012F503E4FF901C08361E026
:101E30008A5F0E94B0066AEA71E086E493E00E943D
:101E4000F8078091F6019091F701049709F0ADCF62
:101E50001092F50100E011E0D0E0C0E0D8016D91F2
:101E60007C9181EF91E00E947C12892B09F45AC089
:101E700021960B5F1F4FC330D10581F761EB71E0F5
:101E800081EF91E00E947C12892B19F40E942508B1
:101E900034C06CEA71E081EF91E00E947C12892BE2
:101EA000A9F30E94140860E083E00E94B00664EE8B
:101EB00070E086E493E00E943A0461E082E00E94D0
:101EC000B00667ED70E086E493E00E943A0468ECA7
:101ED00070E082E092E00E943A0462E971E082E000
:101EE00092E00E94C5066CED75E080E090E00E94F3
:101EF0008F020E9414080E940008E1EFF1E0DF0168
:101F000025E01D922A95E9F71092F7011092F6014B
:101F100081E00E9405068BE39FE10197F1F75DCF19
:101F200061700ACF95E09C9FF0019D9FF00D1124F8
:101F3000E050FF4F81E08483C281D3810E94140866
:101F400060E083E00E94B0066EEB70E086E493E010
:101F50000E943A0461E084E00E94B006BE0186E47B
:101F600093E00E94F807BE0182E092E00E94F80729
:101F700066EB71E082E092E00E94C50662E971E0E2
:101F800082E092E00E94C50660ED77E080E090E09C
:101F90000E948F027BCF052E97FB1EF400940E94B7
:101FA000E20F57FD07D00E94FD0F07FC03D04EF44F
:101FB0000C94E20F50954095309521953F4F4F4F2F
:101FC0005F4F089590958095709561957F4F8F4FE5
:101FD0009F4F08950E941F10A59F900DB49F900DD4
:101FE000A49F800D911D11240895B7FF0C94EA0F52
:101FF0000E94EA0F821B930B0895A1E21A2EAA1BDE
:10200000BB1BFD010DC0AA1FBB1FEE1FFF1FA217A8
:10201000B307E407F50720F0A21BB30BE40BF50BA5
:10202000661F771F881F991F1A9469F7609570952E
:10203000809590959B01AC01BD01CF010895A29FB1
:10204000B001B39FC001A39F700D811D1124911D8C
:10205000B29F700D811D1124911D08955058BB270A
:10206000AA270E9446100C94B9110E94AB1138F0B7
:102070000E94B21120F039F49F3F19F426F40C9419
:10208000A8110EF4E095E7FB0C94A211E92F0E9431
:10209000CA1158F3BA17620773078407950720F02F
:1020A00079F4A6F50C94EC110EF4E0950B2EBA2FF2
:1020B000A02D0B01B90190010C01CA01A00111244E
:1020C000FF27591B99F0593F50F4503E68F11A16FA
:1020D000F040A22F232F342F4427585FF3CF46958B
:1020E00037952795A795F0405395C9F77EF41F16AD
:1020F000BA0B620B730B840BBAF09150A1F0FF0F77
:10210000BB1F661F771F881FC2F70EC0BA0F621F62
:10211000731F841F48F4879577956795B795F79552
:102120009E3F08F0B0CF9395880F08F09927EE0FE7
:102130009795879508950E947E1108F481E008958F
:102140000E94B4100C94B9110E94B21158F00E9470
:10215000AB1140F029F45F3F29F00C94A21151110A
:102160000C94ED110C94A8110E94CA1168F39923E4
:10217000B1F3552391F3951B550BBB27AA27621783
:102180007307840738F09F5F5F4F220F331F441F90
:10219000AA1FA9F335D00E2E3AF0E0E832D09150C4
:1021A0005040E695001CCAF72BD0FE2F29D0660FB1
:1021B000771F881FBB1F261737074807AB07B0E8F4
:1021C00009F0BB0B802DBF01FF2793585F4F3AF0FA
:1021D0009E3F510578F00C94A2110C94ED115F3FD5
:1021E000E4F3983ED4F3869577956795B795F79580
:1021F0009F5FC9F7880F911D9695879597F9089568
:10220000E1E0660F771F881FBB1F62177307840703
:10221000BA0720F0621B730B840BBA0BEE1F88F712
:10222000E09508950E94D21188F09F5798F0B92F39
:102230009927B751B0F0E1F0660F771F881F991FFB
:102240001AF0BA95C9F714C0B13091F00E94EC11A0
:10225000B1E008950C94EC11672F782F8827B85FB0
:1022600039F0B93FCCF3869577956795B395D9F753
:102270003EF490958095709561957F4F8F4F9F4F5D
:102280000895E89409C097FB3EF490958095709569
:1022900061957F4F8F4F9F4F9923A9F0F92F96E9B2
:1022A000BB279395F695879577956795B795F11127
:1022B000F8CFFAF4BB0F11F460FF1BC06F5F7F4FC4
:1022C0008F4F9F4F16C0882311F096E911C07723D6
:1022D00021F09EE8872F762F05C0662371F096E8DF
:1022E000862F70E060E02AF09A95660F771F881FAE
:1022F000DAF7880F9695879597F90895990F000852
:10230000550FAA0BE0E8FEEF16161706E807F907C7
:10231000C0F012161306E407F50798F0621B730B62
:10232000840B950B39F40A2661F0232B242B252BE3
:1023300021F408950A2609F4A140A6958FEF811D86
:10234000811D089597F99F6780E870E060E0089527
:102350009FEF80EC089500240A94161617061806BD
:102360000906089500240A94121613061406050699
:102370000895092E0394000C11F4882352F0BB0F2A
:1023800040F4BF2B11F460FF04C06F5F7F4F8F4F8D
:102390009F4F089557FD9058440F551F59F05F3FC8
:1023A00071F04795880F97FB991F61F09F3F79F077
:1023B00087950895121613061406551FF2CF4695F9
:1023C000F1DF08C0161617061806991FF1CF86957B
:1023D0007105610508940895E894BB27662777275F
:1023E000CB0197F908950E947E1108F48FEF0895AC
:1023F0000E940B120C94B9110E94AB1138F00E948C
:10240000B21120F0952311F00C94A2110C94A81194
:1024100011240C94ED110E94CA1170F3959FC1F321
:10242000950F50E0551F629FF001729FBB27F00D82
:10243000B11D639FAA27F00DB11DAA1F649F6627D7
:10244000B00DA11D661F829F2227B00DA11D621F26
:10245000739FB00DA11D621F839FA00D611D221FE0
:10246000749F3327A00D611D231F849F600D211DC4
:10247000822F762F6A2F11249F5750409AF0F1F047
:1024800088234AF0EE0FFF1FBB1F661F771F881FB0
:1024900091505040A9F79E3F510580F00C94A21135
:1024A0000C94ED115F3FE4F3983ED4F38695779555
:1024B0006795B795F795E7959F5FC1F7FE2B880F56
:1024C000911D9695879597F908950E947E11880B26
:1024D000990B0895991B79E004C0991F961708F08D
:1024E000961B881F7A95C9F780950895EE0FFF1FF8
:1024F0000590F491E02D0994FB01DC018D91019090
:1025000080190110D9F3990B0895F894FFCFBF01FA
:10251000C40100C901CE0100D401D9010006070899
:10252000020304053132333435363738392A302343
:1025300000000000FE045E048B044B05BC049A04FA
:10254000AE04000000002F04330437040000000034
:10255000BF065E046C056B056E616E00696E6600F9
:102560006F76660020202053797374656D65206452
:10257000276163636573202000202020456E7472FC
:10258000657A206C6520636F646500202020202020
:10259000202020202020202020202020202020005B
:1025A0000D0A0054656D703A200043202048756D77
:1025B0003A200025202020002A00383838380039F9
:1025C000393939002C50524553454E54003132337D
:1025D00034004142444F003233343500484F5544B3
:0C25E00041003334353600414C49000006
:107E0000112484B714BE81FFF0D085E080938100F7
:107E100082E08093C00088E18093C10086E0809377
:107E2000C20080E18093C4008EE0C9D0259A86E02C
:107E300020E33CEF91E0309385002093840096BBD3
:107E4000B09BFECF1D9AA8958150A9F7CC24DD24C4
:107E500088248394B5E0AB2EA1E19A2EF3E0BF2EE7
:107E6000A2D0813461F49FD0082FAFD0023811F036
:107E7000013811F484E001C083E08DD089C08234E0
:107E800011F484E103C0853419F485E0A6D080C0E4
:107E9000853579F488D0E82EFF2485D0082F10E0AE
:107EA000102F00270E291F29000F111F8ED06801E7
:107EB0006FC0863521F484E090D080E0DECF843638
:107EC00009F040C070D06FD0082F6DD080E0C81688
:107ED00080E7D80618F4F601B7BEE895C0E0D1E017
:107EE00062D089930C17E1F7F0E0CF16F0E7DF06D8
:107EF00018F0F601B7BEE89568D007B600FCFDCFD4
:107F0000A601A0E0B1E02C9130E011968C91119780
:107F100090E0982F8827822B932B1296FA010C0160
:107F200087BEE89511244E5F5F4FF1E0A038BF0790
:107F300051F7F601A7BEE89507B600FCFDCF97BE46
:107F4000E89526C08437B1F42ED02DD0F82E2BD052
:107F50003CD0F601EF2C8F010F5F1F4F84911BD097
:107F6000EA94F801C1F70894C11CD11CFA94CF0C13
:107F7000D11C0EC0853739F428D08EE10CD085E9AC
:107F80000AD08FE07ACF813511F488E018D01DD067
:107F900080E101D065CF982F8091C00085FFFCCF94
:107FA0009093C60008958091C00087FFFCCF809118
:107FB000C00084FD01C0A8958091C6000895E0E648
:107FC000F0E098E1908380830895EDDF803219F02E
:107FD00088E0F5DFFFCF84E1DECF1F93182FE3DFCA
:107FE0001150E9F7F2DF1F91089580E0E8DFEE27F6
:047FF000FF270994CA
:027FFE00040479
:00000001FF
