:100000000C9462000C948A000C948A000C948A0070
:100010000C948A000C948A000C948A000C948A0038
:100020000C948A000C948A000C948A000C942B097E
:100030000C948A000C948A000C948A000C948A0018
:100040000C9489080C948A000C94F9080C94D30839
:100050000C948A000C948A000C948A000C948A00F8
:100060000C948A000C948A000000000024002700F1
:100070002A0000000000250028002B0000000008D6
:10008000000201000003040700000000000000005F
:1000900000000000230026002900040404040404D6
:1000A0000404020202020202030303030303010227
:1000B00004081020408001020408102001020408F6
:1000C0001020E70911241FBECFEFD8E0DEBFCDBF5F
:1000D00012E0A0E0B1E0E2E6F1E202C005900D928C
:1000E000A236B107D9F723E0A2E6B2E001C01D9223
:1000F000A53DB207E1F710E0C2E6D0E004C02197C9
:10010000FE010E94A010C136D107C9F70E94D90A8A
:100110000C94AF100C940000CF92DF92EF92FF92FC
:10012000DC01A03282E0B807D4F5A53BB10514F09C
:10013000A4EBB0E04091D30328E830E0241B310960
:1001400047FD3395220F331F220F331F6901330FF1
:10015000EE08FF084091D40328E532E0241B310962
:1001600047FD3395220F331F220F331F032E000C40
:10017000440B550B2C193D094E095F09B7FF02C00E
:10018000B0E0A0E00E94CA0E24EB30E040E050E076
:100190000E94A00EC20ED31EE41EF51ED601E091F1
:1001A000D203EC3080F52091D30388E890E0821BE5
:1001B000910927FD9395880F991F880F991FA817FC
:1001C000B90784F02091D40388E592E0821B91095D
:1001D00027FD9395880F991F880F991FA817B907B6
:1001E0000CF4CD010297880F991F4FB7F8942E2F6A
:1001F00030E0F901EE0FFF1FE20FF31FED5EFC4F41
:10020000928381834FBFFF90EF90DF90CF9008954E
:1002100096E0899FD0011124A85CBC4F90967C93F6
:100220006E935F9791E091969C939197E091A503CF
:10023000F091A6039091A403992339F0309751F0DF
:10024000811108C0809154030994309719F05C968D
:100250008C91FACF0895CF92DF92EF92FF92CF93D5
:10026000DF93B091AE03A0E08111AB2F8091AF037B
:1002700090E0880F991FAC0140575F4FC090B403C6
:10028000D090B503E090B603F090B70330E020E0E3
:10029000FA01C591D491E881B90190E080E0EB23A7
:1002A000EA130AC02F5F3F4F6C157D058E059F0531
:1002B00078F36FEF7FEFCB01DF91CF91FF90EF905D
:1002C000DF90CF900895833081F028F4813099F049
:1002D0008230A9F008958730A9F08830C9F08430C1
:1002E000B1F4809180008F7D03C0809180008F7772
:1002F00080938000089584B58F7784BD089584B578
:100300008F7DFBCF8091B0008F778093B0000895F0
:100310008091B0008F7DF9CFCF93DF93282F30E00D
:10032000F901E458FF4F8491F901E255FF4FD49150
:10033000F901E656FF4FC491CC23A1F081110E9430
:100340006301EC2FF0E0EE0FFF1FE057FF4FA59188
:10035000B491EC91ED2381E090E009F480E0DF912D
:10036000CF91089580E090E0FACF1F93CF93DF9371
:10037000282F30E0F901E458FF4F8491F901E2554C
:10038000FF4FD491F901E656FF4FC491CC23A9F059
:10039000162F81110E946301EC2FF0E0EE0FFF1F7A
:1003A000EE58FF4FA591B4918FB7F894EC911111CD
:1003B00008C0D095DE23DC938FBFDF91CF911F91D2
:1003C0000895DE2BF8CFCF93DF9390E0FC01E25548
:1003D000FF4F249186569F4FFC0184918823C9F0DA
:1003E00090E0880F991FFC01E859FF4FA591B49147
:1003F000FC01EE58FF4FC591D49161110DC09FB71C
:10040000F8948C91209582238C93888128232883CB
:100410009FBFDF91CF910895623051F49FB7F89458
:100420003C91822F809583238C93E8812E2BEFCFF4
:100430008FB7F894EC912E2B2C938FBFEACF3FB758
:10044000F8948091720290917302A0917402B0911D
:10045000750226B5A89B05C02F3F19F00196A11D76
:10046000B11D3FBFBA2FA92F982F8827BC01CD01FE
:10047000620F711D811D911D42E0660F771F881F5D
:10048000991F4A95D1F708958F929F92AF92BF928C
:10049000CF92DF92EF92FF924B015C010E941F020C
:1004A0006B017C010E941F026C197D098E099F0956
:1004B000683E734081059105A8F321E0821A9108F6
:1004C000A108B10888EEC80E83E0D81EE11CF11C1B
:1004D00081149104A104B10429F7FF90EF90DF90FB
:1004E000CF90BF90AF909F908F9008952FB7F894C2
:1004F00060916E0270916F02809170029091710212
:100500002FBF08950F931F93CF93DF93C82FD62F3C
:1005100086E0C89FF0011124E85CFC4F11A2878D92
:1005200090A181309105F1F058F082309105F1F100
:10053000039709F440C0DF91CF911F910F91089567
:100540006623C9F361E070E08C2F0E9408010E94CD
:10055000760260939003709391038093920390933B
:100560009303E9CF0E9476020091900310919103CA
:100570002091920330919303AB01BC01401B510BBE
:10058000620B730B8091A2039091A303B0E0A0E0F3
:1005900084179507A607B70748F462E070E08C2F30
:1005A000DF91CF911F910F910C94080163E070E0EF
:1005B000D111C1CFF4CF70E060E0F1CFCF92DF92E4
:1005C000EF92FF920F931F93CF93DF93CDB7DEB7D8
:1005D000C054D1400FB6F894DEBF0FBECDBF0E940D
:1005E00076020091B0031091B1032091B2033091D3
:1005F000B3036B017C01C01AD10AE20AF30A970126
:100600008601003D17402105310590F48091B80323
:10061000C05CDE4F0FB6F894DEBF0FBECDBFDF91DA
:10062000CF911F910F91FF90EF90DF90CF900895A1
:100630006093B0037093B1038093B2039093B303BC
:100640001092AB031092AA031092A9031092A80370
:100650001092A70362E08091AC030E94E30161E085
:1006600070E080E090E00E94440261E08091AC0381
:100670000E94E30160E08091AC030E94B50180918B
:10068000AD038551823020F58BE291E10197F1F7BE
:1006900062E08091AC030E94E3018091B90390E095
:1006A0008230910538F0880F991F880F991F0597A0
:1006B0000197F1F7F89480E00E942B016F3F7F4F84
:1006C0008F4F9F4F61F41092B803789480E0A0CFD1
:1006D00064E170E080E090E00E944402D9CF81E0C4
:1006E0000E942B016F3F7F4F8F4F9F4F61F38E0111
:1006F0000F5F1F4F6E012FEBC21A2EEFD20A780147
:1007000080E00E942B01F7016083718382839383D1
:1007100081E00E942B01F7016483758386839783B0
:10072000F8E0EF0EF11CEC14FD0451F7789430E082
:1007300020E0F801C080D180E280F38044815581BF
:1007400066817781FFEFCF16DF06EF06FF0631F0F7
:100750004F3F8FEF58076807780719F41092B803D6
:10076000B5CFF90183E0F595E7958A95E1F7E9556D
:10077000FC4F8081880FC416D506E606F70610F1F7
:1007800080832F5F3F4F085F1F4F2832310589F666
:100790004091AB032091A7038091A803280F332732
:1007A000331F8091A903280F311D8091AA03820F66
:1007B000932F911D99274817190681F681E08093A0
:1007C000B80326CF8160DCCF862F642F0C94E30121
:1007D000862F642F0C94B501862F0C948C01AF9258
:1007E000BF92CF92DF92EF92FF920F931F93CF931E
:1007F000DF936C017B018B01040F151FEB015E0180
:10080000AE18BF08C017D10759F06991D601ED9114
:10081000FC910190F081E02DC6010995892B79F7B3
:10082000C501DF91CF911F910F91FF90EF90DF9065
:10083000CF90BF90AF900895FC01538D448D252F2C
:1008400030E0842F90E0821B930B541710F0CF966A
:10085000089501970895FC01918D828D981761F09C
:10086000A28DAE0FBF2FB11D5D968C91928D9F5FB3
:100870009F73928F90E008958FEF9FEF0895FC0192
:10088000918D828D981731F0828DE80FF11D858D45
:1008900090E008958FEF9FEF0895FC01918D228DD8
:1008A000892F90E0805C9F4F821B91098F7399275D
:1008B000089586E792E00E944D0421E0892B09F417
:1008C00020E0822F089580E090E0892B29F00E949B
:1008D000590481110C9400000895FC01A48DA80F07
:1008E000B92FB11DA35ABF4F2C91848D90E0019672
:1008F0008F739927848FA689B7892C93A089B18992
:100900008C91837080648C93938D848D981306C032
:100910000288F389E02D80818F7D80830895EF9296
:10092000FF920F931F93CF93DF93EC0181E0888FA9
:100930009B8D8C8D98131AC0E889F989808185FF79
:1009400015C09FB7F894EE89FF896083E889F9891B
:1009500080818370806480839FBF81E090E0DF911D
:10096000CF911F910F91FF90EF900895F62E0B8D70
:1009700010E00F5F1F4F0F731127E02E8C8D8E112B
:100980000CC00FB607FCFACFE889F989808185FF92
:10099000F5CFCE010E946D04F1CFEB8DEC0FFD2F52
:1009A000F11DE35AFF4FF0829FB7F8940B8FEA894D
:1009B000FB8980818062CFCFCF93DF93EC01888D5C
:1009C0008823B9F0AA89BB89E889F9898C9185FDCA
:1009D00003C0808186FD0DC00FB607FCF7CF8C9158
:1009E00085FFF2CF808185FFEDCFCE010E946D049F
:1009F000E9CFDF91CF910895089590E080E00895C8
:100A0000FB0101900020E9F73197AF01461B570B1E
:100A1000DC01ED91FC910280F381E02D09940F93AC
:100A20001F93CF93DF93EC010E9400058C016AE4D1
:100A300071E0CE010E940005800F911FDF91CF91E0
:100A40001F910F9108956115710511F00C94000527
:100A500090E080E00895CF93DF93EC0160E08E8119
:100A60000E94B50161E08E810E94B50160E08E8137
:100A70000E94B5018BE891E00197F1F7DF91CF91EA
:100A80000895CF92DF92EF92FF920F931F93CF932F
:100A9000DF936C017C0187E0E80EF11CD0E0C0E040
:100AA000062F10E0B8010C2E02C0759567950A94C8
:100AB000E2F76170F70181917F010E94B5012196F3
:100AC000C430D10579F7C601DF91CF911F910F9105
:100AD000FF90EF90DF90CF900C942B05CF92DF9298
:100AE000EF92FF920F931F93CF93DF93EC01F62EBB
:100AF000642F8C810E94B5018D818F3F19F060E0D9
:100B00000E94B5010F2D10E08F8584FF25C06E0176
:100B100087E0C80ED11CF12CE12CB8010E2C02C0CC
:100B2000759567950A94E2F76170F60181916F01FE
:100B30000E94B501FFEFEF1AFF0A88E0E816F10402
:100B400061F7CE01DF91CF911F910F91FF90EF9050
:100B5000DF90CF900C942B05B80184E075956795D4
:100B60008A95E1F7CE010E9441056F2DCE01DF91FC
:100B7000CF911F910F91FF90EF90DF90CF900C9449
:100B8000410540E0682F8AEB93E00C946E0581E00C
:100B90000E94C1058BE39FE10197F1F70895CF9380
:100BA000DF93823029F49091C90398609093C90330
:100BB0008093CD031092CE0380E48093CF0380E135
:100BC0008093D00380E58093D10361E08091BE03E0
:100BD0000E94E3018091BF038F3F19F061E00E9402
:100BE000E30161E08091C0030E94E301CAEBD3E01E
:100BF0009E012A5B33408091C90384FD0BC084E0D1
:100C000090E021962817390744F461E08E810E9414
:100C1000E301EECF88E090E0F4CF8BE39DE0019715
:100C2000F1F760E08091BE030E94B50160E0809121
:100C3000C0030E94B5018091BF038F3F19F060E0AF
:100C40000E94B5018091C90384FD34C063E08AEB42
:100C500093E00E944105CBE4D6E4CE010197F1F781
:100C600063E08AEB93E00E9441052197F1F763E08E
:100C70008AEB93E00E94410583E592E00197F1F74A
:100C800062E08AEB93E00E9441058091C903806293
:100C90000E94C10584E08093CA038CE00E94C105D4
:100CA0000E94C70582E08093CB0386E0DF91CF915D
:100CB0000C94C10580620E94C1058BE496E4019703
:100CC000F1F78091C90380620E94C10583E592E03B
:100CD0000197F1F78091C90380620E94C105D5CFC9
:100CE000643008F063E09091CD03691710F06FEF66
:100CF000690FE62FF0E0E654FC4F9489890F806875
:100D00000C94C10560E080E00E9470066DE471E023
:100D10008AEB93E00E940F0561E081E00E9470067B
:100D20006EE571E08AEB93E00C940F05CF93DF93AF
:100D300064E873E080E090E00E94440260E080E0BC
:100D40000E9470066DE671E08AEB93E00E940F0549
:100D500060E081E00E9470066FE671E08AEB93E04C
:100D60000E94230561E084E00E9470066EE771E056
:100D70008AEB93E00E940F0561E08FE00E9470060D
:100D80006DE671E08AEB93E00E940F0561E080E17F
:100D90000E9470066DE671E08AEB93E00E940F05F9
:100DA00061E08EE00E9470066DE671E08AEB93E0F0
:100DB0000E940F0561E08DE00E9470066DE671E013
:100DC0008AEB93E00E940F0584EB90E0909363021E
:100DD00080936202C0916202D0916302D7FD0FC07E
:100DE000CE010E948C0065E070E080E090E00E94FF
:100DF00044022597D0936302C0936202EBCF60ED6B
:100E000077E080E090E00E94440268EE73E080E0CA
:100E100090E00E94440260EB74E080E090E00E9469
:100E200044020E94C7056FE082E00E9470066DE6F2
:100E300071E08AEB93E00E940F056EE082E00E9471
:100E400070066DE671E08AEB93E00E940F0560E0AA
:100E500082E00E94700668EC70E080E090E00E9402
:100E6000440268E871E08AEB93E00E940F0561E0BC
:100E700084E00E94700661E572E08AEB93E00E94D4
:100E8000230568EC70E080E090E00E9444020E943C
:100E9000C70560E082E00E94700669E971E08AEBB4
:100EA00093E00E940F0568EE73E080E090E00E94FE
:100EB000440260E082E00E94700669E971E08AEB1A
:100EC00093E00E940F0561E084E00E94700667E4F1
:100ED00072E08AEB93E00E94230564E670E080E014
:100EE00090E00E9444020E94C70560E082E00E94F8
:100EF000700669E971E08AEB93E00E940F0568EEE5
:100F000073E080E090E00E94440260E082E00E9492
:100F1000700669E971E08AEB93E00E940F0561E0D9
:100F200084E00E94700668EA71E08AEB93E00E9418
:100F3000230564E670E080E090E00E9444020E9495
:100F4000C70560E082E00E94700669E971E08AEB03
:100F500093E00E940F0568EE73E080E090E00E944D
:100F6000440260E082E00E94700669E971E08AEB69
:100F700093E00E940F0561E084E00E9470066AEA37
:100F800071E08AEB93E00E94230564E670E080E064
:100F900090E00E9444020E94C70560E082E00E9447
:100FA000700669E971E08AEB93E00E940F0568EE34
:100FB00073E080E090E00E94440261E084E00E94DF
:100FC00070066CEA71E08AEB93E00E94230564E608
:100FD00070E080E090E00E9444020E94C70560E05B
:100FE00082E00E9470066EEA71E08AEB93E00E9454
:100FF0000F0568EE73E080E090E00E94440268E232
:1010000070E080E090E00E9444020E94C70560E02A
:1010100082E00E9470066EEB71E08AEB93E00E9422
:10102000230564EF71E080E090E00E94440260E0FC
:101030008CE00E94700669EC71E08AEB93E00E94FC
:10104000230564EF71E080E090E00E94440260E0DC
:101050008DE00E94700669EC71E08AEB93E00E94DB
:10106000230564EF71E080E090E00E94440260E0BC
:101070008EE00E94700669EC71E08AEB93E00E94BA
:10108000230560E971E080E090E00E9444020E9444
:10109000C70560E084E00E9470066BEC71E08AEBAB
:1010A00093E00E94230568EB71E080E090E00E94ED
:1010B000440268EE73E080E090E00E9444021092E7
:1010C0006302109262028091620290916302853BFA
:1010D0009105B4F40E948C006FE070E080E090E035
:1010E0000E9444020E94C7050E948206809162020B
:1010F0009091630205969093630280936202E3CF1E
:10110000DF91CF91089541E00E946E0581E090E06B
:1011100008951F920F920FB60F9211242F933F93B1
:101120008F939F93AF93BF9380916E0290916F02C4
:10113000A0917002B091710230916D0223E0230FF3
:101140002D3758F50196A11DB11D20936D02809396
:101150006E0290936F02A0937002B093710280911F
:10116000720290917302A0917402B091750201967F
:10117000A11DB11D8093720290937302A09374021B
:10118000B0937502BF91AF919F918F913F912F9135
:101190000F900FBE0F901F90189526E8230F029610
:1011A000A11DB11DD2CF1F920F920FB60F92112425
:1011B0002F933F934F935F936F937F938F939F935F
:1011C000AF93BF93EF93FF9386E792E00E946D0485
:1011D000FF91EF91BF91AF919F918F917F916F910F
:1011E0005F914F913F912F910F900FBE0F901F90E5
:1011F00018951F920F920FB60F9211242F938F9371
:101200009F93EF93FF93E0918602F0918702808194
:10121000E0918C02F0918D0282FD1BC09081809143
:101220008F028F5F8F7320919002821741F0E091BF
:101230008F02F0E0EA58FD4F958F80938F02FF9167
:10124000EF919F918F912F910F900FBE0F901F9054
:1012500018958081F4CF1F920F920FB60F92112430
:101260002F933F934F935F936F937F938F939F93AE
:10127000AF93BF93CF93DF93EF93FF93809164027B
:10128000C0913703D0E087FF24C0109285001092F0
:101290008400809164028F5F809364028091640275
:1012A000082E000C990B8C179D0724F48091640282
:1012B0008C30C4F180918400909185000496803434
:1012C0009C4908F47AC0809184009091850004962E
:1012D00076C080916402082E000C990B8C179D0734
:1012E000C4F6E09164028E2FEE0F990BFC01EE0F15
:1012F000FF1FE80FF91FED5EFC4F808186FFC9CF0D
:10130000E09164028E2FEE0F990BFC01EE0FFF1F90
:10131000E80FF91FED5EFC4F808160E08F730E9443
:10132000B501B7CF2091840030918500E09164022F
:101330008E2FEE0F990BFC01EE0FFF1FE80FF91F28
:10134000ED5EFC4F81819281820F931F9093890003
:1013500080938800E09164028E2FEE0F990BFC01C0
:10136000EE0FFF1FE80FF91FED5EFC4F808186FF37
:1013700011C0E09164028E2FEE0F990BFC01EE0F6D
:10138000FF1FE80FF91FED5EFC4F808161E08F7356
:101390000E94B501FF91EF91DF91CF91BF91AF9185
:1013A0009F918F917F916F915F914F913F912F917D
:1013B0000F900FBE0F901F90189580E49CE99093BA
:1013C0008900809388008FEF80936402E3CFCF93EE
:1013D000109279021092780288EE93E0A0E0B0E0DB
:1013E00080937A0290937B02A0937C02B0937D025B
:1013F00086E291E0909377028093760285EC90E00C
:10140000909383028093820284EC90E09093850213
:101410008093840280EC90E0909387028093860210
:1014200081EC90E0909389028093880282EC90E0B6
:1014300090938B0280938A0286EC90E090938D02C9
:1014400080938C0210928F0210929002109291025F
:1014500010929202809137038C3008F0A6C091E080
:10146000980F909337038093D20390E0FC01EE0F26
:10147000FF1FE80FF91FED5EFC4F88EB9BE09283A6
:1014800081831092BD031092BC0382E491E090939B
:10149000BB038093BA0382E18093BE038FEF8093F6
:1014A000BF0383E18093C00381E18093C10380E1A6
:1014B0008093C2038FE08093C303CBE0C093C40347
:1014C0001092C5031092C6031092C7031092C8036E
:1014D0001092C90381E00E94CF058AE08093AC039B
:1014E000C093AD03E8EBF0E0E491E093AE03E4EAEF
:1014F000F0E0E491E093AF0380E89EE3A0E0B0E089
:101500008093B4039093B503A093B603B093B7034D
:1015100010923A0310923E0310923D0310923F0343
:1015200088E391E09093390380933803E4E5F3E096
:101530001082148213821582369683E0E039F80710
:10154000B9F782E191E090939B0380939A038FE037
:1015500091E090939D0380939C0384E080939E038D
:1015600083E080939F0386E191E0909399038093B9
:1015700098038AE090E09093A1038093A00384EF06
:1015800091E09093A3038093A2031092A60310927C
:10159000A503109294031092950310929603109253
:1015A00097031092A403CF9108958FEF8093D203F5
:1015B00068CF789484B5826084BD84B5816084BD31
:1015C00085B5826085BD85B5816085BD80916E00E1
:1015D000816080936E001092810080918100826012
:1015E000809381008091810081608093810080914F
:1015F00080008160809380008091B100846080933E
:10160000B1008091B00081608093B00080917A0039
:10161000846080937A0080917A00826080937A005F
:1016200080917A00816080937A0080917A0080684E
:1016300080937A001092C100E0918602F0918702B7
:1016400082E08083E0918202F09183021082E09137
:101650008402F09185028FEC808310928E02E091DB
:101660008A02F0918B0286E08083E0918802F091FB
:101670008902808180618083E0918802F0918902F3
:10168000808188608083E0918802F0918902808166
:1016900080688083E0918802F091890280818F7D4B
:1016A000808363ED71E086E792E00E940F050E945F
:1016B00082068091D2038C3008F051C061E089E04D
:1016C0000E94E3018091D203282F30E0F901EE0F50
:1016D000FF1FE20FF31FED5EFC4F9081907C99603D
:1016E00090831092D3031092D4032CE0622F0E94B7
:1016F0009410829FB001112430E020E0AB01420F32
:10170000531FFA01EE0FFF1FE40FF51FED5EFC4FB4
:10171000908196FD16C02F5F3F4F2C30310571F739
:1017200081110FC01092800082E08093810010929E
:10173000850010928400B19A80916F00826080933E
:101740006F00E091D2038E2F90E0FC01EE0FFF1F9F
:10175000E80FF91FED5EFC4F80818064808382E09A
:101760000E94CF0562E08091AC030E94E3010E94D9
:101770007602605D7740810991096093B0037093B0
:10178000B1038093B2039093B30387E38093B903CB
:1017900061E08CE00E94E30161E08DE00E94E301E2
:1017A000812C912C5401839422242A94322C60E0C1
:1017B000662E60E0762E20E420937C0080917A00F3
:1017C000806480937A0080917A0086FDFCCF8091BE
:1017D00078009091790061E0803991400CF060E0F0
:1017E0008DE00E94B5010E94DE02882341F08091C5
:1017F000AD038C3009F485C038F48B30F1F060E033
:1018000070E080EC9FE741C085518230C0F7C09105
:10181000A9036C2F70E0762F662766277F7780916B
:10182000AA03682B90E080E00E94700F2DEC3CEC46
:101830004CEC5DE30E94031080C06091A90370E04E
:1018400090E080E00E94700F6B017C01C091AA03C0
:10185000C7FF0AC0AC019B0160E070E080E89FEB2D
:101860000E94030F6B017C01CF706C2F70E090E041
:1018700080E00E94720F2DEC3CEC4CEC5DE30E948A
:101880000310A70196010E94040F20E030E040EF12
:1018900051E40E94FE0F61E087FD60E08CE00E9451
:1018A000B50181E08093A4030E9476020091940325
:1018B000109195032091960330919703AB01BC01E1
:1018C000401B510B620B730B8091A0039091A103FD
:1018D000B0E0A0E084179507A607B70708F039C164
:1018E000C0E080919E03C81760F5E0919A03F091E3
:1018F0009B03EC0FF11D62E080810E94E301CF5F4A
:10190000F0CFC091A9036C2F70E090E080E00E94BE
:10191000700F6B017C016091AA036F7070E090E022
:1019200080E00E94720F2DEC3CEC4CEC5DE30E94D9
:101930000310A70196010E94040FC7FFA6CF90587D
:10194000A4CF512C80919F03581608F05FC0052D3D
:1019500010E0E0919C03F0919D03E00FF11F61E026
:1019600080810E94E301E0919C03F0919D03E00FD0
:10197000F11F60E080810E94B501D501C401052CF2
:1019800004C0880F991FAA1FBB1F0A94D2F76C01CD
:101990007C01E094F094412C80919E034816F8F469
:1019A000C42DD0E0E0919A03F0919B03EC0FFD1F52
:1019B00080810E948C012496CC0FDD1FC85CDC4F17
:1019C000892B41F4888199818C299D299983888369
:1019D0004394E2CF888199818E219F21F7CFE091B6
:1019E0009C03F0919D03E00FF11F61E080810E9454
:1019F000B50180919C0390919D03080F191F60E031
:101A0000D8018C910E94E30153949CCF08E313E02A
:101A1000F801878D90A1892B21F4148E368E258EA6
:101A200011A23696B3E0E437FB0799F7F12C8091C9
:101A30009E03F81608F050C0E12CCF2DD0E0CC0F5B
:101A4000DD1FC05CDC4F20919F03E21608F042C00E
:101A5000688179810E2C02C0769567950A94E2F729
:101A6000F29E900111242E0D311DE8E3F3E080E099
:101A7000458D568D2417350709F42BC18F5F369697
:101A80008A30B1F760FF24C0E8E3F3E090E080E043
:101A9000448D411118C0E0919803F0919903E20F31
:101AA000F31F408156E0589FF001599FF00D11241B
:101AB000E85CFC4F448F368F258F10A2178E61E0B3
:101AC0000E94820205C0019636968A30910501F780
:101AD000E394B9CFF394ABCFC0E0D80191968C9149
:101AE0008111C82F0A5F1F4FB3E004371B07A9F706
:101AF0000E947602609394037093950380939603FB
:101B000090939703CC2329F180915903882309F1FD
:101B100080915703909158030197D9F4C0915403D1
:101B2000C1111AC080916C02811107C00E94C705C3
:101B30000E94820681E080936C026114710409F4B2
:101B40003ACE0E945904882309F435CE0E94000041
:101B500032CE1092A403E6CFCA3249F410926B023F
:101B600010926A020E94C7050E948206E6CF809109
:101B70006A0290916B0284309105FCF620ED2C0FE7
:101B80002A30D8F6892B61F40E94C70560E080E016
:101B90000E94700660EE71E08AEB93E00E942305DC
:101BA00020916A0230916B02C901019690936B02F9
:101BB00080936A022B593D4FF901C08361E08A5F2F
:101BC0000E9470066CE571E08AEB93E00E942305A9
:101BD00080916A0290916B02049709F0AECF109247
:101BE000690200E011E0D0E0C0E0D8016D917C9185
:101BF00085E692E00E94A610892B09F46CC021961C
:101C00000B5F1F4FC330D10581F76FE372E085E6AC
:101C100092E00E94A610892B09F48FC06AEE71E051
:101C200085E692E00E94A610892B09F486C064EF35
:101C300071E080E090E00E9444020E94C70560E0ED
:101C400081E00E9470066FEE71E08AEB93E00E94E3
:101C5000230560E086E00E94700664EF71E08AEB85
:101C600093E00E94230561E08FE00E9470066DE61C
:101C700071E08AEB93E00E940F0561E084E00E942E
:101C800070066EEF71E08AEB93E00E940F0561E051
:101C90008DE00E9470066DE671E08AEB93E00E9491
:101CA0000F056AE072E086E792E00E940F0568EB9C
:101CB0007BE080E090E00E9444020E94C7050E9401
:101CC0008206E5E6F2E0DF0125E01D922A95E9F7BC
:101CD00045CF6170F5CE55E05C9FF0015D9FF00D42
:101CE0001124E050FF4F81E08483C281D3810E94A0
:101CF000C70560E085E00E9470066EE272E08AEB44
:101D000093E00E94230561E085E00E947006BE0119
:101D10008AEB93E00E942305BE0186E792E00E94D1
:101D2000230566E372E086E792E00E940F0560ED0E
:101D300077E080E090E00E9444020E949606C1CFC6
:101D4000052E97FB1EF400940E94B70E57FD07D096
:101D50000E94D20E07FC03D04EF40C94B70E50959F
:101D60004095309521953F4F4F4F5F4F0895909587
:101D70008095709561957F4F8F4F9F4F08950E947A
:101D8000F40EA59F900DB49F900DA49F800D911D02
:101D900011240895B7FF0C94BF0E0E94BF0E821B42
:101DA000930B0895A1E21A2EAA1BBB1BFD010DC0C7
:101DB000AA1FBB1FEE1FFF1FA217B307E407F507FB
:101DC00020F0A21BB30BE40BF50B661F771F881FD7
:101DD000991F1A9469F760957095809590959B016D
:101DE000AC01BD01CF010895A29FB001B39FC00116
:101DF000A39F700D811D1124911DB29F700D811D37
:101E00001124911D08955058BB27AA270E941B0F2B
:101E10000C94C40F0E94B60F38F00E94BD0F20F042
:101E200039F49F3F19F426F40C94B30F0EF4E095A7
:101E3000E7FB0C94AD0FE92F0E94D50F58F3BA17AA
:101E4000620773078407950720F079F4A6F50C94D0
:101E5000F70F0EF4E0950B2EBA2FA02D0B01B90150
:101E600090010C01CA01A0011124FF27591B99F010
:101E7000593F50F4503E68F11A16F040A22F232F1C
:101E8000342F4427585FF3CF469537952795A7956C
:101E9000F0405395C9F77EF41F16BA0B620B730B13
:101EA000840BBAF09150A1F0FF0FBB1F661F771F84
:101EB000881FC2F70EC0BA0F621F731F841F48F439
:101EC000879577956795B795F7959E3F08F0B0CFC2
:101ED0009395880F08F09927EE0F979587950895A9
:101EE000E89409C097FB3EF49095809570956195B4
:101EF0007F4F8F4F9F4F9923A9F0F92F96E9BB276A
:101F00009395F695879577956795B795F111F8CFE5
:101F1000FAF4BB0F11F460FF1BC06F5F7F4F8F4F50
:101F20009F4F16C0882311F096E911C0772321F046
:101F30009EE8872F762F05C0662371F096E8862FDE
:101F400070E060E02AF09A95660F771F881FDAF735
:101F5000880F9695879597F9089597F99F6780E878
:101F600070E060E008959FEF80EC089500240A94EB
:101F70001616170618060906089500240A94121664
:101F80001306140605060895092E0394000C11F497
:101F9000882352F0BB0F40F4BF2B11F460FF04C044
:101FA0006F5F7F4F8F4F9F4F089557FD9058440F9D
:101FB000551F59F05F3F71F04795880F97FB991FA8
:101FC00061F09F3F79F08795089512161306140665
:101FD000551FF2CF4695F1DF08C0161617061806F2
:101FE000991FF1CF86957105610508940895E894CD
:101FF000BB2766277727CB0197F908950E947010B9
:1020000008F48FEF08950E9416100C94C40F0E94DC
:10201000B60F38F00E94BD0F20F0952311F00C94FC
:10202000AD0F0C94B30F11240C94F80F0E94D50F30
:1020300070F3959FC1F3950F50E0551F629FF0011B
:10204000729FBB27F00DB11D639FAA27F00DB11D34
:10205000AA1F649F6627B00DA11D661F829F2227BD
:10206000B00DA11D621F739FB00DA11D621F839F44
:10207000A00D611D221F749F3327A00D611D231F1A
:10208000849F600D211D822F762F6A2F11249F5768
:1020900050409AF0F1F088234AF0EE0FFF1FBB1F6B
:1020A000661F771F881F91505040A9F79E3F51052A
:1020B00080F00C94AD0F0C94F80F5F3FE4F3983E62
:1020C000D4F3869577956795B795F795E7959F5FD4
:1020D000C1F7FE2B880F911D9695879597F9089566
:1020E000990F0008550FAA0BE0E8FEEF1616170629
:1020F000E807F907C0F012161306E407F50798F091
:10210000621B730B840B950B39F40A2661F0232BA9
:10211000242B252B21F408950A2609F4A140A69525
:102120008FEF811D811D0895991B79E004C0991FCF
:10213000961708F0961B881F7A95C9F78095089521
:10214000EE0FFF1F0590F491E02D0994FB01DC01D7
:102150008D91019080190110D9F3990B0895F8948D
:02216000FFCFAF
:1021620044024902004E0253020059025E02000676
:102172000708020304053132333435363738392A39
:102182003023000000008F04EF031C04DC044D0424
:102192002B043F0400000000E403E803EC0300000A
:1021A20000008308EF03FD04FC040D0A002A454EDB
:1021B2005445522054484520434F44452A00544F29
:1021C200204F50454E20444F4F52212100200041C4
:1021D2006363657373204772616E7465640057456B
:1021E2004C434F4D4521210047455420494E20572D
:1021F200495448494E3A3A3A0047455420494E20FC
:1022020057495448494E3A0033003200310047459D
:102212005420494E2057495448494E3A3A005245B3
:102222002D4C4F434B494E47002E004C4F434B45DC
:1022320044210053595354454D5F5245414459007E
:1022420050415353574F52443A00383838380043BC
:102252004F444500494E434F52524543540047456F
:1022620054204157415921212100434F44452049DF
:102272004E434F525245435420594F5520415245E7
:1022820020554E415554484F52495A4544005745EE
:102292004C434F4D45002C50524553454E54003946
:1022A2003939390031323334004142444F0032333C
:1022B200343500484F554441003334353600414CE3
:0222C2004900D1
:00000001FF
