:020000040000FA
:100000000C94AE000C94D6000C94D6000C94D60040
:100010000C94D6000C94D6000C94D6000C94D60008
:100020000C94D6000C94D6000C94D6000C949C0929
:100030000C94D6000C94D6000C94D6000C94D600E8
:100040000C94FA080C94D6000C946A090C94440998
:100050000C94D6000C94D6000C94D6000C94D600C8
:100060000C94D6000C94D600504F5254452046456F
:10007000524D4545004645524D45545552452E2E4C
:100080002E00454E5452455A205241504944454D48
:10009000454E5400504F52544520204F555645521E
:1000A0005445004143434553204155544F52495311
:1000B000450053595354454D5F5245414459004200
:1000C00049454E56454E554500434F444520494EFF
:1000D000434F5252454354004163636573202020CF
:1000E00072656675736500434F444520494E434F22
:1000F00052524543540050415353574F52443A00D3
:1001000000000000240027002A0000000000250055
:1001100028002B0000000008000201000003040773
:100120000000000000000000000000002300260086
:10013000290004040404040404040202020202026A
:10014000030303030303010204081020408001029B
:1001500004081020010204081020580A11241FBEB0
:10016000CFEFD8E0DEBFCDBF11E0A0E0B1E0E4E921
:10017000F5E202C005900D92A83EB107D9F723E041
:10018000A8EEB1E001C01D92AB36B207E1F710E076
:10019000CEEAD0E004C02197FE010E94B912CD3A08
:1001A000D107C9F70E944B0B0C94C8120C940000A5
:1001B000CF92DF92EF92FF92CF93DF93B0914403FF
:1001C000A0E08111AB2F8091450390E0880F991F2B
:1001D000AC01485D5E4FC0904A03D0904B03E09065
:1001E0004C03F0904D0330E020E0FA01C591D4912A
:1001F000E881B90190E080E0EB23EA130AC02F5FA9
:100200003F4F6C157D058E059F0578F36FEF7FEFEF
:10021000CB01DF91CF91FF90EF90DF90CF900895C9
:10022000CF92DF92EF92FF92DC01A03282E0B8071A
:10023000D4F5A53BB10514F0A4EBB0E040916903FF
:1002400028E830E0241B310947FD3395220F331F86
:10025000220F331F6901330FEE08FF0840916A0334
:1002600028E532E0241B310947FD3395220F331F67
:10027000220F331F032E000C440B550B2C193D0984
:100280004E095F09B7FF02C0B0E0A0E00E9438103D
:1002900024EB30E040E050E00E940E10C20ED31E6E
:1002A000E41EF51ED601E0916803EC3080F5209144
:1002B000690388E890E0821B910927FD9395880FD8
:1002C000991F880F991FA817B90784F020916A0316
:1002D00088E592E0821B910927FD9395880F991F6D
:1002E000880F991FA817B9070CF4CD010297880F42
:1002F000991F4FB7F8942E2F30E0F901EE0FFF1F32
:10030000E20FF31FE755FD4F928381834FBFFF90AC
:10031000EF90DF90CF90089596E0899FD00111244F
:10032000A253BD4F90967C936E935F9791E0919608
:100330009C939197E0913B03F0913C0390913A0399
:10034000992339F0309751F0811108C08091EA0269
:100350000994309719F05C968C91FACF0895833008
:1003600081F028F4813099F08230A9F00895873027
:10037000A9F08830C9F08430B1F4809180008F7D7D
:1003800003C0809180008F7780938000089584B5AA
:100390008F7784BD089584B58F7DFBCF8091B000A9
:1003A0008F778093B00008958091B0008F7DF9CF52
:1003B000CF93DF93282F30E0F901EC5EFE4F84915C
:1003C000F901EA5BFE4FD491F901EE5CFE4FC49156
:1003D000CC23A1F081110E94AF01EC2FF0E0EE0FD1
:1003E000FF1FE85DFE4FA591B491EC91ED2381E0F4
:1003F00090E009F480E0DF91CF91089580E090E0F3
:10040000FACF1F93CF93DF93282F30E0F901EC5EF2
:10041000FE4F8491F901EA5BFE4FD491F901EE5C45
:10042000FE4FC491CC23A9F0162F81110E94AF0179
:10043000EC2FF0E0EE0FFF1FE65FFE4FA591B491A9
:100440008FB7F894EC91111108C0D095DE23DC939E
:100450008FBFDF91CF911F910895DE2BF8CFCF93FF
:10046000DF9390E0FC01EA5BFE4F24918E5C9E4F8F
:10047000FC0184918823C9F090E0880F991FFC014A
:10048000E050FF4FA591B491FC01E65FFE4FC5918E
:10049000D49161110DC09FB7F8948C91209582235F
:1004A0008C938881282328839FBFDF91CF91089563
:1004B000623051F49FB7F8943C91822F809583234A
:1004C0008C93E8812E2BEFCF8FB7F894EC912E2BE5
:1004D0002C938FBFEACF3FB7F89480910802909198
:1004E0000902A0910A02B0910B0226B5A89B05C093
:1004F0002F3F19F00196A11DB11D3FBFBA2FA92FA3
:10050000982F8827BC01CD01620F711D811D911D9F
:1005100042E0660F771F881F991F4A95D1F708950B
:100520008F929F92AF92BF92CF92DF92EF92FF9203
:100530004B015C010E946B026B017C010E946B020B
:100540006C197D098E099F09683E734081059105EC
:10055000A8F321E0821A9108A108B10888EEC80E1C
:1005600083E0D81EE11CF11C81149104A104B104A4
:1005700029F7FF90EF90DF90CF90BF90AF909F90C2
:100580008F9008952FB7F89460910402709105023E
:1005900080910602909107022FBF0895CF92DF92BB
:1005A000EF92FF920F931F93CF93DF93CDB7DEB7F8
:1005B000C054D1400FB6F894DEBF0FBECDBF0E942D
:1005C000C2020091460310914703209148033091E5
:1005D00049036B017C01C01AD10AE20AF30A9701B0
:1005E0008601003D17402105310590F480914E03AE
:1005F000C05CDE4F0FB6F894DEBF0FBECDBFDF91FB
:10060000CF911F910F91FF90EF90DF90CF900895C1
:100610006093460370934703809348039093490384
:10062000109241031092400310923F0310923E0338
:1006300010923D0362E0809142030E942F0261E02C
:1006400070E080E090E00E94900261E080914203BF
:100650000E942F0260E0809142030E94010280917B
:1006600043038551823020F58BE291E10197F1F748
:1006700062E0809142030E942F0280914F0390E03C
:100680008230910538F0880F991F880F991F0597C0
:100690000197F1F7F89480E00E94D8006F3F7F4FF8
:1006A0008F4F9F4F61F410924E03789480E0A0CF5B
:1006B00064E170E080E090E00E949002D9CF81E098
:1006C0000E94D8006F3F7F4F8F4F9F4F61F38E0185
:1006D0000F5F1F4F6E012FEBC21A2EEFD20A780167
:1006E00080E00E94D800F701608371838283938346
:1006F00081E00E94D800F701648375838683978325
:10070000F8E0EF0EF11CEC14FD0451F7789430E0A2
:1007100020E0F801C080D180E280F38044815581DF
:1007200066817781FFEFCF16DF06EF06FF0631F017
:100730004F3F8FEF58076807780719F410924E0360
:10074000B5CFF90183E0F595E7958A95E1F7E35C8C
:10075000FC4F8081880FC416D506E606F70610F117
:1007600080832F5F3F4F085F1F4F2832310589F686
:100770004091410320913D0380913E03280F332790
:10078000331F80913F03280F311D80914003820F5A
:10079000932F911D99274817190681F681E08093C0
:1007A0004E0326CF8160DCCF0F931F93CF93DF934F
:1007B000C82FD62F86E0C89FF0011124E253FD4FC9
:1007C00011A2878D90A181309105F1F058F082300F
:1007D0009105F1F1039709F440C0DF91CF911F918A
:1007E0000F9108956623C9F361E070E08C2F0E9499
:1007F0008C010E94C20260932603709327038093AA
:10080000280390932903E9CF0E94C2020091260396
:10081000109127032091280330912903AB01BC01DB
:10082000401B510B620B730B80913803909139037D
:10083000B0E0A0E084179507A607B70748F462E088
:1008400070E08C2FDF91CF911F910F910C948C0150
:1008500063E070E0D111C1CFF4CF70E060E0F1CF80
:10086000862F642F0C942F02862F642F0C94010284
:10087000862F0C94D801DC01ED91FC910190F08160
:10088000E02D0994EF92FF920F931F93CF93DF9384
:100890008C017B01D0E0C0E0F701EC0FFD1F6491FB
:1008A000662361F0D801ED91FC910190F081E02D7B
:1008B000C8010995892B11F02196EECFCE01DF9169
:1008C000CF911F910F91FF90EF900895AF92BF923B
:1008D000CF92DF92EF92FF920F931F93CF93DF930C
:1008E0006C017B018B01040F151FEB015E01AE183B
:1008F000BF08C017D10759F06991D601ED91FC915D
:100900000190F081E02DC6010995892B79F7C50189
:10091000DF91CF911F910F91FF90EF90DF90CF90DB
:10092000BF90AF900895FC01538D448D252F30E08A
:10093000842F90E0821B930B541710F0CF960895EC
:1009400001970895FC01918D828D981761F0A28D19
:10095000AE0FBF2FB11D5D968C91928D9F5F9F73DF
:10096000928F90E008958FEF9FEF0895FC01918D95
:10097000828D981731F0828DE80FF11D858D90E002
:1009800008958FEF9FEF0895FC01918D228D892F9F
:1009900090E0805C9F4F821B91098F739927089587
:1009A0008CE092E00E94C40421E0892B09F420E04D
:1009B000822F089580E090E0892B29F00E94D004D6
:1009C00081110C9400000895FC01A48DA80FB92F8B
:1009D000B11DA35ABF4F2C91848D90E001968F7367
:1009E0009927848FA689B7892C93A089B1898C9186
:1009F000837080648C93938D848D981306C00288D5
:100A0000F389E02D80818F7D80830895EF92FF929E
:100A10000F931F93CF93DF93EC0181E0888F9B8D21
:100A20008C8D98131AC0E889F989808185FF15C0DB
:100A30009FB7F894EE89FF896083E889F9898081FE
:100A40008370806480839FBF81E090E0DF91CF91CD
:100A50001F910F91FF90EF900895F62E0B8D10E0EF
:100A60000F5F1F4F0F731127E02E8C8D8E110CC05E
:100A70000FB607FCFACFE889F989808185FFF5CFA9
:100A8000CE010E94E404F1CFEB8DEC0FFD2FF11DA0
:100A9000E35AFF4FF0829FB7F8940B8FEA89FB89E6
:100AA00080818062CFCFCF93DF93EC01888D882344
:100AB000B9F0AA89BB89E889F9898C9185FD03C0C1
:100AC000808186FD0DC00FB607FCF7CF8C9185FFA6
:100AD000F2CF808185FFEDCFCE010E94E404E9CF03
:100AE000DF91CF910895089590E080E00895FB0193
:100AF00001900020E9F73197AF01461B570BDC014D
:100B0000ED91FC910280F381E02D09948F929F92E8
:100B1000AF92BF92EF92FF920F931F93CF93DF9309
:100B2000CDB7DEB7A1970FB6F894DEBF0FBECDBF2D
:100B30007C01FA01CB0119A2223008F42AE08E01CF
:100B40000F5D1F4F822E912CB12CA12CBF01A5014E
:100B500094010E944010F901CA016A300CF5605DF1
:100B6000D8016E938D01232B242B252B79F790E050
:100B700080E0109721F0BD01C7010E947705A19682
:100B80000FB6F894DEBF0FBECDBFDF91CF911F919E
:100B90000F91FF90EF90BF90AF909F908F9008952E
:100BA000695CDECF6115710511F00C94770590E05A
:100BB00080E008952F923F924F925F926F927F92C2
:100BC0008F929F92AF92BF92CF92DF92EF92FF925D
:100BD0001F93CF93DF93EC016A017B01722EAB016F
:100BE0009601CB01B6010E94A8126AE471E081115E
:100BF00026C046015701E894B7F82FEF3FEF4FE7C3
:100C00005FE7C501B4010E94A81281110CC02FEF4B
:100C10003FEF4FE75FE7C501B4010E94DE106EE4CD
:100C200071E0181664F02FEF3FEF4FE75FE4C70164
:100C3000B6010E9436121816B4F462E571E0CE01D6
:100C4000DF91CF911F91FF90EF90DF90CF90BF90F9
:100C5000AF909F908F907F906F905F904F903F905C
:100C60002F900C9477052FEF3FEF4FE75FECC70114
:100C7000B6010E94DE1087FDE0CF20E030E0A90140
:100C8000C701B6010E94DE10312C212C87FF09C05C
:100C90006DE2CE010E943B041C01F7FAF094F7F8D4
:100CA000F09410E060E070E080E09FE3711641F0A6
:100CB00020E030E040E251E40E94E3101F5FF6CFF5
:100CC000A70196010E9472102B013C010E94551150
:100CD0004B015C012AE0BC01A401CE010E94860503
:100CE0007C01E20CF31C1123C1F1C501B4010E9487
:100CF00084119B01AC01C301B2010E9471104B0130
:100D00005C016EE2CE010E943B04E80EF91E115018
:100D100020F120E030E040E251E4C501B4010E943E
:100D20003B122B013C010E9455114B01B12CA12C0F
:100D30002AE0B501A401CE010E948605E80EF91E45
:100D4000C501B4010E9484119B01AC01C301B20131
:100D50000E9471104B015C01DACFC701DF91CF9186
:100D60001F91FF90EF90DF90CF90BF90AF909F903A
:100D70008F907F906F905F904F903F902F9008954D
:100D8000CF93DF93EC0160E08E810E94010261E06D
:100D90008E810E94010260E08E810E9401028BE838
:100DA00091E00197F1F7DF91CF910895CF92DF9213
:100DB000EF92FF920F931F93CF93DF936C017C010F
:100DC00087E0E80EF11CD0E0C0E0062F10E0B8018B
:100DD0000C2E02C0759567950A94E2F76170F701D1
:100DE00081917F010E9401022196C430D10579F7DB
:100DF000C601DF91CF911F910F91FF90EF90DF908F
:100E0000CF900C94C006CF92DF92EF92FF920F9397
:100E10001F93CF93DF93EC01F62E642F8C810E94F9
:100E200001028D818F3F19F060E00E9401020F2DB9
:100E300010E08F8584FF25C06E0187E0C80ED11CAD
:100E4000F12CE12CB8010E2C02C0759567950A941F
:100E5000E2F76170F60181916F010E940102FFEFDC
:100E6000EF1AFF0A88E0E816F10461F7CE01DF917E
:100E7000CF911F910F91FF90EF90DF90CF900C9446
:100E8000C006B80184E0759567958A95E1F7CE01B3
:100E90000E94D6066F2DCE01DF91CF911F910F9149
:100EA000FF90EF90DF90CF900C94D60640E0682F33
:100EB00080E593E00C940307CF93DF93613029F032
:100EC00090915F03986090935F0360936303109227
:100ED000640390E49093650380936603805C809341
:100EE000670361E0809154030E942F0280915503B3
:100EF0008F3F19F061E00E942F0261E0809156035C
:100F00000E942F02C0E5D3E09E012055334080911E
:100F10005F0384FD0BC084E090E021962817390719
:100F200044F461E08E810E942F02EECF88E090E0D1
:100F3000F4CF8BE39DE00197F1F760E080915403DB
:100F40000E94010260E0809156030E94010280919C
:100F500055038F3F19F060E00E94010280915F030A
:100F600084FD39C063E080E593E00E94D606CBE4BF
:100F7000D6E4CE010197F1F763E080E593E00E94AB
:100F8000D6062197F1F763E080E593E00E94D6064C
:100F900083E592E00197F1F762E080E593E00E943B
:100FA000D60680915F0380620E94560784E080939A
:100FB00060038CE00E94560781E00E9456078BE395
:100FC0009FE10197F1F782E08093610386E0DF9172
:100FD000CF910C94560780620E9456078BE496E4EA
:100FE0000197F1F780915F0380620E94560783E5C5
:100FF00092E00197F1F780915F0380620E945607AB
:10100000D0CF90916303691710F06FEF690FE62F4F
:10101000F0E0E05BFC4F9489890F80680C945607E0
:1010200060E080E00E94010866E571E080E593E001
:101030000E94D20561E080E00E9401086BE671E049
:1010400080E593E00C94D205CF93C0E06C2F80E054
:101050000E94010861E871E080E593E00E94D205FA
:10106000CF5FC33099F7CF91089541E00E94030705
:1010700081E090E00895CF92DF92EF92FF92CF93BC
:10108000DF9364EF71E080E090E00E9490020E94A4
:10109000240860E083E00E94010863EA70E080E5D4
:1010A00093E00E94420461E083E00E94010864E949
:1010B00070E080E593E00E94420484EB90E090931E
:1010C000E9018093E801C091E801D091E901D7FDE1
:1010D0000FC0CE010E9410016AE070E080E090E055
:1010E0000E9490022597D093E901C093E801EBCFCD
:1010F00060ED77E080E090E00E94900285E0C82EED
:10110000D12CE12CF12C0E94240860E082E00E94A6
:10111000010862E870E080E593E00E94420461E02B
:1011200089E00E9401082AE0B701A60180E593E06A
:101130000E9486056CEB72E080E090E00E949002D5
:1011400081E0C81AD108E108F108E9F60E942408F4
:1011500061E084E00E94010865E770E080E593E0CB
:101160000E94420468EE73E080E090E00E949002EA
:101170000E94240861E084E00E94010868E670E0B3
:1011800080E593E00E94420460E273E080E090E03A
:101190000E94900264EF71E080E090E00E94900273
:1011A0001092E9011092E801C091E801D091E901A3
:1011B000C53BD1057CF4CE010E9410016FE070E0C8
:1011C00080E090E00E9490022596D093E901C093C0
:1011D000E801EACF64EF71E080E090E00E949002C5
:1011E0000E942408DF91CF91FF90EF90DF90CF9085
:1011F0000C9410081F920F920FB60F9211242F9388
:101200003F938F939F93AF93BF93809104029091EC
:101210000502A0910602B09107023091030223E07B
:10122000230F2D3758F50196A11DB11D2093030200
:101230008093040290930502A0930602B0930702E4
:101240008091080290910902A0910A02B0910B02CC
:101250000196A11DB11D8093080290930902A093ED
:101260000A02B0930B02BF91AF919F918F913F9172
:101270002F910F900FBE0F901F90189526E8230F07
:101280000296A11DB11DD2CF1F920F920FB60F92E1
:1012900011242F933F934F935F936F937F938F937B
:1012A0009F93AF93BF93EF93FF938CE092E00E94E4
:1012B000E404FF91EF91BF91AF919F918F917F9146
:1012C0006F915F914F913F912F910F900FBE0F90B3
:1012D0001F9018951F920F920FB60F9211242F9303
:1012E0008F939F93EF93FF93E0911C02F0911D0267
:1012F0008081E0912202F091230282FD1BC0908147
:10130000809125028F5F8F7320912602821741F012
:10131000E0912502F0E0E45FFD4F958F8093250278
:10132000FF91EF919F918F912F910F900FBE0F9092
:101330001F9018958081F4CF1F920F920FB60F92D5
:1013400011242F933F934F935F936F937F938F93CA
:101350009F93AF93BF93CF93DF93EF93FF938091CE
:10136000EA01C091CD02D0E087FF24C01092850031
:10137000109284008091EA018F5F8093EA0180914E
:10138000EA01082E000C990B8C179D0724F480911C
:10139000EA018C30C4F1809184009091850004961C
:1013A00080349C4908F47AC0809184009091850033
:1013B000049676C08091EA01082E000C990B8C17D8
:1013C0009D07C4F6E091EA018E2FEE0F990BFC0108
:1013D000EE0FFF1FE80FF91FE755FD4F808186FFD5
:1013E000C9CFE091EA018E2FEE0F990BFC01EE0FB1
:1013F000FF1FE80FF91FE755FD4F808160E08F73F5
:101400000E940102B7CF2091840030918500E091C5
:10141000EA018E2FEE0F990BFC01EE0FFF1FE80F74
:10142000F91FE755FD4F81819281820F931F9093A1
:10143000890080938800E091EA018E2FEE0F990BCE
:10144000FC01EE0FFF1FE80FF91FE755FD4F8081EC
:1014500086FF11C0E091EA018E2FEE0F990BFC017F
:10146000EE0FFF1FE80FF91FE755FD4F808161E088
:101470008F730E940102FF91EF91DF91CF91BF9195
:10148000AF919F918F917F916F915F914F913F911C
:101490002F910F900FBE0F901F90189580E49CE93C
:1014A00090938900809388008FEF8093EA01E3CFC7
:1014B000CF9310920F0210920E0288EE93E0A0E0FC
:1014C000B0E08093100290931102A0931202B093A7
:1014D000130286E291E090930D0280930C0285EC5A
:1014E00090E0909319028093180284EC90E090931E
:1014F0001B0280931A0280EC90E090931D0280936F
:101500001C0281EC90E090931F0280931E0282ECFB
:1015100090E0909321028093200286EC90E09093DB
:10152000230280932202109225021092260210922A
:101530002702109228028091CD028C3008F0A7C0BB
:1015400091E0980F9093CD028093680390E0FC01A6
:10155000EE0FFF1FE80FF91FE755FD4F88EB9BE0EB
:1015600092838183109253031092520382E491E09C
:10157000909351038093500382E1809354038FEF43
:101580008093550383E18093560381E18093570351
:1015900080E1809358038FE080935903CBE0C093A0
:1015A0005A0310925B0310925C0310925D03109239
:1015B0005E0310925F0361E080E10E945C078AE0B5
:1015C00080934203C0934303E0E5F1E0E491E093AC
:1015D0004403ECE3F1E0E491E093450380E89EE30B
:1015E000A0E0B0E080934A0390934B03A0934C0398
:1015F000B0934D031092D0021092D4021092D302F5
:101600001092D50288E391E09093CF028093CE02AE
:10161000EAEEF2E01082148213821582369683E09D
:10162000E632F807B9F782E191E0909331038093B5
:1016300030038FE091E0909333038093320384E092
:101640008093340383E08093350386E191E09093A7
:101650002F0380932E038AE090E0909337038093CA
:10166000360384EF91E0909339038093380310920E
:101670003C0310923B0310922A0310922B0310920A
:101680002C0310922D0310923A03CF9108958FEFFF
:101690008093680367CF789484B5826084BD84B5F5
:1016A000816084BD85B5826085BD85B5816085BD5D
:1016B00080916E00816080936E0010928100809115
:1016C000810082608093810080918100816080939D
:1016D0008100809180008160809380008091B100C2
:1016E00084608093B1008091B00081608093B000ED
:1016F00080917A00846080937A0080917A00826081
:1017000080937A0080917A00816080937A00809142
:101710007A00806880937A001092C100E0911C02E8
:10172000F0911D0282E08083E0911802F09119028D
:101730001082E0911A02F0911B028FEC80831092CC
:101740002402E0912002F091210286E08083E09162
:101750001E02F0911F02808180618083E0911E0251
:10176000F0911F02808188608083E0911E02F091D9
:101770001F02808180688083E0911E02F0911F0229
:1017800080818F7D808362EB70E08CE092E00E942C
:10179000420466E971E08CE092E00E947705809156
:1017A00068038C3008F051C061E089E00E942F028C
:1017B00080916803282F30E0F901EE0FFF1FE20F40
:1017C000F31FE755FD4F9081907C996090831092B4
:1017D000690310926A032CE0622F0E94AD12829F6F
:1017E000B001112430E020E0AB01420F531FFA0199
:1017F000EE0FFF1FE40FF51FE755FD4F908196FD9B
:1018000016C02F5F3F4F2C30310571F781110FC08B
:101810001092800082E080938100109285001092E7
:101820008400B19A80916F00826080936F00E09194
:1018300068038E2F90E0FC01EE0FFF1FE80FF91FE9
:10184000E755FD4F80818064808364E084E10E94DD
:101850005C0762E0809142030E942F020E94C20254
:10186000605D774081099109609346037093470357
:10187000809348039093490387E380934F0361E08B
:101880008CE00E942F0261E08DE00E942F020E94F6
:101890001008412C512C320143946AE0262E63E05B
:1018A000362E0E94C2020091F3011091F4012091A2
:1018B000F5013091F601601B710B820B930B603DBB
:1018C00077408105910508F432C10E94C2026093FD
:1018D000F3017093F4018093F5019093F6010E9457
:1018E000CE02882341F0809143038C3009F468C014
:1018F00048F48B3001F1C12CD12C30ECE32E3FE7C2
:10190000F32E43C085518230B0F7C0913F036C2F56
:1019100070E0762F662766277F7780914003682BDB
:1019200090E080E00E9484112DEC3CEC4CEC5DE3F7
:101930000E943B1261C060913F0370E090E080E044
:101940000E9484116B017C01C0914003C7FF0AC053
:10195000AC019B0160E070E080E89FEB0E94711099
:101960006B017C01CF706C2F70E090E080E00E94F2
:1019700086112DEC3CEC4CEC5DE30E943B12A70180
:1019800096010E9472106B017C01C092EF01D0920F
:10199000F001E092F101F092F2010E94CE02882360
:1019A00051F0809143038B3030F08D3070F18551D0
:1019B000823008F421C160E070E080EC9FE741C014
:1019C000C0913F036C2F70E090E080E00E94841192
:1019D0006B017C01609140036F7070E090E080E0EB
:1019E0000E9486112DEC3CEC4CEC5DE30E943B1216
:1019F000A70196010E9472106B017C01C7FFC5CF41
:101A0000F7FAF094F7F8F094C0CF60913E0370E0DD
:101A100090E080E00E9486112DEC3CEC4CEC5DE304
:101A20000E943B124B015C0160913D0370E090E02D
:101A300080E00E9486119B01AC01C501B4010E94A7
:101A400072106093EB017093EC018093ED01909321
:101A5000EE01A7019601C701B6010E94A8128111EB
:101A600066C020E030E040EF51E4C701B6010E94BB
:101A7000361287FDD3C061E08CE00E94010220E0B5
:101A800030E048E452E4C701B6010E94361287FDF7
:101A900019C069E971E08CE092E00E94D2054091A2
:101AA000EF015091F0016091F1017091F20122E09B
:101AB0008CE092E00E94DA0566E971E08CE092E049
:101AC0000E94770563E080E00E9401086FE971E001
:101AD00080E593E00E94D2054091EF015091F00122
:101AE0006091F1017091F20121E080E593E00E94A4
:101AF000DA056FED80E593E00E943B0466EA71E051
:101B000080E593E00E94D2054091EB015091EC01F9
:101B10006091ED017091EE0120E080E593E00E947C
:101B2000DA056FEA71E080E593E00E94D2050E9439
:101B3000C2020091F7011091F8012091F901309152
:101B4000FA01601B710B820B930B683E7340810599
:101B5000910510F10E94C2026093F7017093F801A1
:101B60008093F9019093FA0180E480937C00809146
:101B70007A00806480937A0080917A0086FDFCCFA1
:101B8000809178009091790061E0803991400CF06B
:101B900060E08DE00E94010281E080933A030E94A0
:101BA000C20200912A0310912B0320912C03309143
:101BB0002D03AB01BC01401B510B620B730B8091D9
:101BC000360390913703B0E0A0E084179507A6078D
:101BD000B70708F03AC1C0E080913403C81718F580
:101BE000E0913003F0913103EC0FF11D62E0808150
:101BF0000E942F02CF5FF0CF60913D0370913E03B2
:101C000076276727762790E080E00E9484112DECEC
:101C10003CEC4CEC5DE30E943B1213CF60E08CE0A7
:101C20000E9401024FCF10E080913503181708F091
:101C30005FC0E12EF12CE0913203F0913303EE0D01
:101C4000FF1D61E080810E942F02E0913203F0913C
:101C50003303EE0DFF1D60E080810E940102D3017D
:101C6000C201012E04C0880F991FAA1FBB1F0A942E
:101C7000D2F75C016C01C094D09400E080913403F1
:101C80000817F8F4C02FD0E0E0913003F091310351
:101C9000EC0FFD1F80810E94D8012496CC0FDD1F20
:101CA000C253DD4F892B41F4888199818A299B2970
:101CB000998388830F5FE2CF888199818C219D2150
:101CC000F7CFE0913203F0913303EE0DFF1D61E099
:101CD00080810E9401028091320390913303E80ECB
:101CE000F91E60E0F70180810E942F021F5F9CCFE8
:101CF000CEECD2E08E01D8015F968D919C919097A9
:101D0000892B59F45C961C925C97EFEFFFEF5E967F
:101D1000FC93EE935D9791961C920A5F1F4F2016DD
:101D2000310649F7F12C80913403F81608F053C0BE
:101D3000E12CCF2CD12CCC0CDD1CC6018A529D4F3E
:101D40006C0120913503E21608F043C0D6016D9175
:101D50007C910E2C02C0769567950A94E2F7F29E6C
:101D6000900111242E0D311DEEECF2E080E0458D46
:101D7000568D2417350709F416C18F5F36968A30C1
:101D8000B1F760FF24C0EEECF2E090E080E0448D1B
:101D9000411118C0E0912E03F0912F03E20FF31FC1
:101DA0004081B6E0B89FF001B99FF00D1124E253D5
:101DB000FD4F448F368F258F10A2178E61E00E9451
:101DC000D40305C0019636968A30910501F7E39455
:101DD000B8CFF394A8CFF12C89A18111F82E2696C3
:101DE000C017D107C9F70E94C20260932A037093FB
:101DF0002B0380932C0390932D03FF2031F18091CE
:101E0000EF02882311F18091ED029091EE0201978B
:101E1000E1F4C091EA02C1111BC08091020281115C
:101E200007C00E9424080E94100881E080930202EB
:101E300080E090E0892B09F434CD0E94D0048823FF
:101E400009F42FCD0E9400002CCD10923A03E5CF6B
:101E5000CA3249F410920102109200020E94240832
:101E60000E941008E5CF8091000290910102843019
:101E70009105F4F620ED2C0F2A30D0F6892B61F471
:101E80000E94240860E080E00E94010866EF70E094
:101E900080E593E00E94420420910002309101020B
:101EA000C9010196909301028093000225503E4F94
:101EB000F901C08361E08A5F0E94010864EB71E070
:101EC00080E593E00E94D20580910002909101028A
:101ED000049709F0ADCF1092FF0100E011E0D0E0CF
:101EE000C0E0D8016D917C918BEF91E00E94BF1210
:101EF000892B09F45AC021960B5F1F4FC330D105BF
:101F000081F76BEB71E08BEF91E00E94BF12892BA0
:101F100019F40E943B0834C066EB71E08BEF91E04E
:101F20000E94BF12892BA9F30E94240860E083E07D
:101F30000E94010867EE70E080E593E00E94420491
:101F400061E083E00E94010868ED70E080E593E0C5
:101F50000E94420469EC70E08CE092E00E9442042E
:101F600066E971E08CE092E00E9477056CED75E027
:101F700080E090E00E9490020E9424080E941008D5
:101F8000EBEFF1E0DF0125E01D922A95E9F71092D1
:101F900001021092000281E00E9456078BE39FE14C
:101FA0000197F1F75DCF61700ACF95E09C9FF0013A
:101FB0009D9FF00D1124E050FF4F81E08483C2818A
:101FC000D3810E94240860E086E00E9401086FEB44
:101FD00070E080E593E00E94420461E086E00E94A8
:101FE0000108BE0180E593E00E94D205BE018CE0AD
:101FF00092E00E94D20560EC71E08CE092E00E94D9
:10200000770566E971E08CE092E00E94770560ED6B
:1020100077E080E090E00E9490027BCF052E97FB56
:102020001EF400940E94251057FD07D00E94401016
:1020300007FC03D04EF40C94251050954095309534
:1020400021953F4F4F4F5F4F089590958095709524
:1020500061957F4F8F4F9F4F08950E946210A59FFB
:10206000900DB49F900DA49F800D911D1124089593
:10207000B7FF0C942D100E942D10821B930B089516
:10208000A1E21A2EAA1BBB1BFD010DC0AA1FBB1F7C
:10209000EE1FFF1FA217B307E407F50720F0A21BEE
:1020A000B30BE40BF50B661F771F881F991F1A945B
:1020B00069F760957095809590959B01AC01BD0185
:1020C000CF010895A29FB001B39FC001A39F700DDF
:1020D000811D1124911DB29F700D811D1124911D30
:1020E00008955058BB27AA270E9489100C94FC1110
:1020F0000E94EE1138F00E94F51120F039F49F3F54
:1021000019F426F40C94EB110EF4E095E7FB0C9413
:10211000E511E92F0E940D1258F3BA1762077307F1
:102120008407950720F079F4A6F50C942F120EF48D
:10213000E0950B2EBA2FA02D0B01B90190010C01D7
:10214000CA01A0011124FF27591B99F0593F50F4EF
:10215000503E68F11A16F040A22F232F342F442747
:10216000585FF3CF469537952795A795F04053953F
:10217000C9F77EF41F16BA0B620B730B840BBAF00F
:102180009150A1F0FF0FBB1F661F771F881FC2F77A
:102190000EC0BA0F621F731F841F48F4879577958E
:1021A0006795B795F7959E3F08F0B0CF9395880F48
:1021B00008F09927EE0F9795879508950E94C11111
:1021C00008F481E008950E94F7100C94FC110E941D
:1021D000F51158F00E94EE1140F029F45F3F29F00C
:1021E0000C94E51151110C9430120C94EB110E94D7
:1021F0000D1268F39923B1F3552391F3951B550BF9
:10220000BB27AA2762177307840738F09F5F5F4FC9
:10221000220F331F441FAA1FA9F335D00E2E3AF008
:10222000E0E832D091505040E695001CCAF72BD020
:10223000FE2F29D0660F771F881FBB1F2617370771
:102240004807AB07B0E809F0BB0B802DBF01FF27A3
:1022500093585F4F3AF09E3F510578F00C94E5118A
:102260000C9430125F3FE4F3983ED4F38695779553
:102270006795B795F7959F5FC9F7880F911D96955C
:10228000879597F90895E1E0660F771F881FBB1FB8
:10229000621773078407BA0720F0621B730B840B65
:1022A000BA0BEE1F88F7E09508950E94151288F08A
:1022B0009F5798F0B92F9927B751B0F0E1F0660F0A
:1022C000771F881F991F1AF0BA95C9F714C0B1304B
:1022D00091F00E942F12B1E008950C942F12672FF5
:1022E000782F8827B85F39F0B93FCCF3869577957A
:1022F0006795B395D9F73EF4909580957095619563
:102300007F4F8F4F9F4F0895E89409C097FB3EF48D
:1023100090958095709561957F4F8F4F9F4F992332
:10232000A9F0F92F96E9BB279395F69587957795B0
:102330006795B795F111F8CFFAF4BB0F11F460FF70
:102340001BC06F5F7F4F8F4F9F4F16C0882311F0C8
:1023500096E911C0772321F09EE8872F762F05C0DC
:10236000662371F096E8862F70E060E02AF09A9577
:10237000660F771F881FDAF7880F9695879597F96C
:102380000895990F0008550FAA0BE0E8FEEF161606
:102390001706E807F907C0F012161306E407F50759
:1023A00098F0621B730B840B950B39F40A2661F0CD
:1023B000232B242B252B21F408950A2609F4A14070
:1023C000A6958FEF811D811D089597F99F6780E87D
:1023D00070E060E008959FEF80EC089500240A9477
:1023E0001616170618060906089500240A941216F0
:1023F0001306140605060895092E0394000C11F423
:10240000882352F0BB0F40F4BF2B11F460FF04C0CF
:102410006F5F7F4F8F4F9F4F089557FD9058440F28
:10242000551F59F05F3F71F04795880F97FB991F33
:1024300061F09F3F79F087950895121613061406F0
:10244000551FF2CF4695F1DF08C01616170618067D
:10245000991FF1CF86957105610508940895E89458
:10246000BB2766277727CB0197F908950E94C111F2
:1024700008F48FEF08950E944E120C94FC110E94F4
:10248000EE1138F00E94F51120F0952311F00C9414
:10249000E5110C94EB1111240C9430120E940D12D2
:1024A00070F3959FC1F3950F50E0551F629FF001A7
:1024B000729FBB27F00DB11D639FAA27F00DB11DC0
:1024C000AA1F649F6627B00DA11D661F829F222749
:1024D000B00DA11D621F739FB00DA11D621F839FD0
:1024E000A00D611D221F749F3327A00D611D231FA6
:1024F000849F600D211D822F762F6A2F11249F57F4
:1025000050409AF0F1F088234AF0EE0FFF1FBB1FF6
:10251000661F771F881F91505040A9F79E3F5105B5
:1025200080F00C94E5110C9430125F3FE4F3983E78
:10253000D4F3869577956795B795F795E7959F5F5F
:10254000C1F7FE2B880F911D9695879597F90895F1
:102550000E94C111880B990B0895991B79E004C062
:10256000991F961708F0961B881F7A95C9F78095D2
:102570000895EE0FFF1F0590F491E02D0994FB01E3
:10258000DC018D91019080190110D9F3990B089508
:10259000F894FFCFC901CE0100D301D80100DE01BC
:1025A000E3010006070802030405313233343536EF
:1025B0003738392A302300000000060566049304EA
:1025C0005305C404A204B60400000000300434041F
:1025D00038040000000035086604740573056E6158
:1025E0006E00696E66006F76660020202053797356
:1025F00074656D6520642761636365732020002026
:102600002020456E7472657A20206C6520636F64AB
:102610006520202000202020202020202020202095
:10262000202020202020202020000D0A0054454D8D
:10263000502C0054656D703A200043202048756D81
:102640003A200025202020002A0038383838003968
:10265000393939002C50524553454E5400313233EC
:1026600034004142444F003233343500484F554422
:0C26700041003334353600414C49000075
:107E0000112484B714BE81FFF0D085E080938100F7
:107E100082E08093C00088E18093C10086E0809377
:107E2000C20080E18093C4008EE0C9D0259A86E02C
:107E300020E33CEF91E0309385002093840096BBD3
:107E4000B09BFECF1D9AA8958150A9F7CC24DD24C4
:107E500088248394B5E0AB2EA1E19A2EF3E0BF2EE7
:107E6000A2D0813461F49FD0082FAFD0023811F036
:107E7000013811F484E001C083E08DD089C08234E0
:107E800011F484E103C0853419F485E0A6D080C0E4
:107E9000853579F488D0E82EFF2485D0082F10E0AE
:107EA000102F00270E291F29000F111F8ED06801E7
:107EB0006FC0863521F484E090D080E0DECF843638
:107EC00009F040C070D06FD0082F6DD080E0C81688
:107ED00080E7D80618F4F601B7BEE895C0E0D1E017
:107EE00062D089930C17E1F7F0E0CF16F0E7DF06D8
:107EF00018F0F601B7BEE89568D007B600FCFDCFD4
:107F0000A601A0E0B1E02C9130E011968C91119780
:107F100090E0982F8827822B932B1296FA010C0160
:107F200087BEE89511244E5F5F4FF1E0A038BF0790
:107F300051F7F601A7BEE89507B600FCFDCF97BE46
:107F4000E89526C08437B1F42ED02DD0F82E2BD052
:107F50003CD0F601EF2C8F010F5F1F4F84911BD097
:107F6000EA94F801C1F70894C11CD11CFA94CF0C13
:107F7000D11C0EC0853739F428D08EE10CD085E9AC
:107F80000AD08FE07ACF813511F488E018D01DD067
:107F900080E101D065CF982F8091C00085FFFCCF94
:107FA0009093C60008958091C00087FFFCCF809118
:107FB000C00084FD01C0A8958091C6000895E0E648
:107FC000F0E098E1908380830895EDDF803219F02E
:107FD00088E0F5DFFFCF84E1DECF1F93182FE3DFCA
:107FE0001150E9F7F2DF1F91089580E0E8DFEE27F6
:047FF000FF270994CA
:027FFE00040479
:00000001FF
