:020000040000FA
:100000000C9462000C948A000C948A000C948A0070
:100010000C948A000C948A000C948A000C948A0038
:100020000C948A000C948A000C948A000C942B097E
:100030000C948A000C948A000C948A000C948A0018
:100040000C9489080C948A000C94F9080C94D30839
:100050000C948A000C948A000C948A000C948A00F8
:100060000C948A000C948A000000000024002700F1
:100070002A0000000000250028002B0000000008D6
:10008000000201000003040700000000000000005F
:1000900000000000230026002900040404040404D6
:1000A0000404020202020202030303030303010227
:1000B00004081020408001020408102001020408F6
:1000C0001020E70911241FBECFEFD8E0DEBFCDBF5F
:1000D00012E0A0E0B1E0E8E5F2E202C005900D9286
:1000E000AC36B107D9F723E0ACE6B2E001C01D920F
:1000F000AF3DB207E1F710E0C2E6D0E004C02197BF
:10010000FE010E941B11C136D107C9F70E94D90A0E
:100110000C942A110C940000CF92DF92EF92FF9280
:10012000DC01A03282E0B807D4F5A53BB10514F09C
:10013000A4EBB0E04091DD0328E830E0241B310956
:1001400047FD3395220F331F220F331F6901330FF1
:10015000EE08FF084091DE0328E532E0241B310958
:1001600047FD3395220F331F220F331F032E000C40
:10017000440B550B2C193D094E095F09B7FF02C00E
:10018000B0E0A0E00E94400F24EB30E040E050E0FF
:100190000E94160FC20ED31EE41EF51ED601E0917A
:1001A000DC03EC3080F52091DD0388E890E0821BD1
:1001B000910927FD9395880F991F880F991FA817FC
:1001C000B90784F02091DE0388E592E0821B910953
:1001D00027FD9395880F991F880F991FA817B907B6
:1001E0000CF4CD010297880F991F4FB7F8942E2F6A
:1001F00030E0F901EE0FFF1FE20FF31FE35EFC4F4B
:10020000928381834FBFFF90EF90DF90CF9008954E
:1002100096E0899FD0011124AE5BBC4F90967C93F1
:100220006E935F9791E091969C939197E091AF03C5
:10023000F091B0039091AE03992339F0309751F0CB
:10024000811108C080915E030994309719F05C9683
:100250008C91FACF0895CF92DF92EF92FF92CF93D5
:10026000DF93B091B803A0E08111AB2F8091B90367
:1002700090E0880F991FAC0140575F4FC090BE03BC
:10028000D090BF03E090C003F090C10330E020E0C5
:10029000FA01C591D491E881B90190E080E0EB23A7
:1002A000EA130AC02F5F3F4F6C157D058E059F0531
:1002B00078F36FEF7FEFCB01DF91CF91FF90EF905D
:1002C000DF90CF900895833081F028F4813099F049
:1002D0008230A9F008958730A9F08830C9F08430C1
:1002E000B1F4809180008F7D03C0809180008F7772
:1002F00080938000089584B58F7784BD089584B578
:100300008F7DFBCF8091B0008F778093B0000895F0
:100310008091B0008F7DF9CFCF93DF93282F30E00D
:10032000F901E458FF4F8491F901E255FF4FD49150
:10033000F901E656FF4FC491CC23A1F081110E9430
:100340006301EC2FF0E0EE0FFF1FE057FF4FA59188
:10035000B491EC91ED2381E090E009F480E0DF912D
:10036000CF91089580E090E0FACF1F93CF93DF9371
:10037000282F30E0F901E458FF4F8491F901E2554C
:10038000FF4FD491F901E656FF4FC491CC23A9F059
:10039000162F81110E946301EC2FF0E0EE0FFF1F7A
:1003A000EE58FF4FA591B4918FB7F894EC911111CD
:1003B00008C0D095DE23DC938FBFDF91CF911F91D2
:1003C0000895DE2BF8CFCF93DF9390E0FC01E25548
:1003D000FF4F249186569F4FFC0184918823C9F0DA
:1003E00090E0880F991FFC01E859FF4FA591B49147
:1003F000FC01EE58FF4FC591D49161110DC09FB71C
:10040000F8948C91209582238C93888128232883CB
:100410009FBFDF91CF910895623051F49FB7F89458
:100420003C91822F809583238C93E8812E2BEFCFF4
:100430008FB7F894EC912E2B2C938FBFEACF3FB758
:10044000F89480917C0290917D02A0917E02B091FF
:100450007F0226B5A89B05C02F3F19F00196A11D6C
:10046000B11D3FBFBA2FA92F982F8827BC01CD01FE
:10047000620F711D811D911D42E0660F771F881F5D
:10048000991F4A95D1F708958F929F92AF92BF928C
:10049000CF92DF92EF92FF924B015C010E941F020C
:1004A0006B017C010E941F026C197D098E099F0956
:1004B000683E734081059105A8F321E0821A9108F6
:1004C000A108B10888EEC80E83E0D81EE11CF11C1B
:1004D00081149104A104B10429F7FF90EF90DF90FB
:1004E000CF90BF90AF909F908F9008952FB7F894C2
:1004F000609178027091790280917A0290917B02EA
:100500002FBF08950F931F93CF93DF93C82FD62F3C
:1005100086E0C89FF0011124EE5BFC4F11A2878D8D
:1005200090A181309105F1F058F082309105F1F100
:10053000039709F440C0DF91CF911F910F91089567
:100540006623C9F361E070E08C2F0E9408010E94CD
:10055000760260939A0370939B0380939C0390931D
:100560009D03E9CF0E94760200919A0310919B03AC
:1005700020919C0330919D03AB01BC01401B510BAA
:10058000620B730B8091AC039091AD03B0E0A0E0DF
:1005900084179507A607B70748F462E070E08C2F30
:1005A000DF91CF911F910F910C94080163E070E0EF
:1005B000D111C1CFF4CF70E060E0F1CFCF92DF92E4
:1005C000EF92FF920F931F93CF93DF93CDB7DEB7D8
:1005D000C054D1400FB6F894DEBF0FBECDBF0E940D
:1005E00076020091BA031091BB032091BC033091B5
:1005F000BD036B017C01C01AD10AE20AF30A97011C
:100600008601003D17402105310590F48091C20319
:10061000C05CDE4F0FB6F894DEBF0FBECDBFDF91DA
:10062000CF911F910F91FF90EF90DF90CF900895A1
:100630006093BA037093BB038093BC039093BD0394
:100640001092B5031092B4031092B3031092B20348
:100650001092B10362E08091B6030E94E30161E071
:1006600070E080E090E00E94440261E08091B60377
:100670000E94E30160E08091B6030E94B501809181
:10068000B7038551823020F58BE291E10197F1F7B4
:1006900062E08091B6030E94E3018091C30390E081
:1006A0008230910538F0880F991F880F991F0597A0
:1006B0000197F1F7F89480E00E942B016F3F7F4F84
:1006C0008F4F9F4F61F41092C203789480E0A0CFC7
:1006D00064E170E080E090E00E944402D9CF81E0C4
:1006E0000E942B016F3F7F4F8F4F9F4F61F38E0111
:1006F0000F5F1F4F6E012FEBC21A2EEFD20A780147
:1007000080E00E942B01F7016083718382839383D1
:1007100081E00E942B01F7016483758386839783B0
:10072000F8E0EF0EF11CEC14FD0451F7789430E082
:1007300020E0F801C080D180E280F38044815581BF
:1007400066817781FFEFCF16DF06EF06FF0631F0F7
:100750004F3F8FEF58076807780719F41092C203CC
:10076000B5CFF90183E0F595E7958A95E1F7EF5468
:10077000FC4F8081880FC416D506E606F70610F1F7
:1007800080832F5F3F4F085F1F4F2832310589F666
:100790004091B5032091B1038091B203280F332714
:1007A000331F8091B303280F311D8091B403820F52
:1007B000932F911D99274817190681F681E08093A0
:1007C000C20326CF8160DCCF862F642F0C94E30117
:1007D000862F642F0C94B501862F0C948C01AF9258
:1007E000BF92CF92DF92EF92FF920F931F93CF931E
:1007F000DF936C017B018B01040F151FEB015E0180
:10080000AE18BF08C017D10759F06991D601ED9114
:10081000FC910190F081E02DC6010995892B79F7B3
:10082000C501DF91CF911F910F91FF90EF90DF9065
:10083000CF90BF90AF900895FC01538D448D252F2C
:1008400030E0842F90E0821B930B541710F0CF966A
:10085000089501970895FC01918D828D981761F09C
:10086000A28DAE0FBF2FB11D5D968C91928D9F5FB3
:100870009F73928F90E008958FEF9FEF0895FC0192
:10088000918D828D981731F0828DE80FF11D858D45
:1008900090E008958FEF9FEF0895FC01918D228DD8
:1008A000892F90E0805C9F4F821B91098F7399275D
:1008B000089580E892E00E944D0421E0892B09F41C
:1008C00020E0822F089580E090E0892B29F00E949B
:1008D000590481110C9400000895FC01A48DA80F07
:1008E000B92FB11DA35ABF4F2C91848D90E0019672
:1008F0008F739927848FA689B7892C93A089B18992
:100900008C91837080648C93938D848D981306C032
:100910000288F389E02D80818F7D80830895EF9296
:10092000FF920F931F93CF93DF93EC0181E0888FA9
:100930009B8D8C8D98131AC0E889F989808185FF79
:1009400015C09FB7F894EE89FF896083E889F9891B
:1009500080818370806480839FBF81E090E0DF911D
:10096000CF911F910F91FF90EF900895F62E0B8D70
:1009700010E00F5F1F4F0F731127E02E8C8D8E112B
:100980000CC00FB607FCFACFE889F989808185FF92
:10099000F5CFCE010E946D04F1CFEB8DEC0FFD2F52
:1009A000F11DE35AFF4FF0829FB7F8940B8FEA894D
:1009B000FB8980818062CFCFCF93DF93EC01888D5C
:1009C0008823B9F0AA89BB89E889F9898C9185FDCA
:1009D00003C0808186FD0DC00FB607FCF7CF8C9158
:1009E00085FFF2CF808185FFEDCFCE010E946D049F
:1009F000E9CFDF91CF910895089590E080E00895C8
:100A0000FB0101900020E9F73197AF01461B570B1E
:100A1000DC01ED91FC910280F381E02D09940F93AC
:100A20001F93CF93DF93EC010E9400058C016AE4D1
:100A300071E0CE010E940005800F911FDF91CF91E0
:100A40001F910F9108956115710511F00C94000527
:100A500090E080E00895CF93DF93EC0160E08E8119
:100A60000E94B50161E08E810E94B50160E08E8137
:100A70000E94B5018BE891E00197F1F7DF91CF91EA
:100A80000895CF92DF92EF92FF920F931F93CF932F
:100A9000DF936C017C0187E0E80EF11CD0E0C0E040
:100AA000062F10E0B8010C2E02C0759567950A94C8
:100AB000E2F76170F70181917F010E94B5012196F3
:100AC000C430D10579F7C601DF91CF911F910F9105
:100AD000FF90EF90DF90CF900C942B05CF92DF9298
:100AE000EF92FF920F931F93CF93DF93EC01F62EBB
:100AF000642F8C810E94B5018D818F3F19F060E0D9
:100B00000E94B5010F2D10E08F8584FF25C06E0176
:100B100087E0C80ED11CF12CE12CB8010E2C02C0CC
:100B2000759567950A94E2F76170F60181916F01FE
:100B30000E94B501FFEFEF1AFF0A88E0E816F10402
:100B400061F7CE01DF91CF911F910F91FF90EF9050
:100B5000DF90CF900C942B05B80184E075956795D4
:100B60008A95E1F7CE010E9441056F2DCE01DF91FC
:100B7000CF911F910F91FF90EF90DF90CF900C9449
:100B8000410540E0682F84EC93E00C946E0581E011
:100B90000E94C1058BE39FE10197F1F70895CF9380
:100BA000DF93823029F49091D30398609093D3031C
:100BB0008093D7031092D80380E48093D90380E117
:100BC0008093DA0380E58093DB0361E08091C803C2
:100BD0000E94E3018091C9038F3F19F061E00E94F8
:100BE000E30161E08091CA030E94E301C4ECD3E019
:100BF0009E01245C33408091D30384FD0BC084E0CC
:100C000090E021962817390744F461E08E810E9414
:100C1000E301EECF88E090E0F4CF8BE39DE0019715
:100C2000F1F760E08091C8030E94B50160E0809117
:100C3000CA030E94B5018091C9038F3F19F060E09B
:100C40000E94B5018091D30384FD34C063E084EC3D
:100C500093E00E944105CBE4D6E4CE010197F1F781
:100C600063E084EC93E00E9441052197F1F763E093
:100C700084EC93E00E94410583E592E00197F1F74F
:100C800062E084EC93E00E9441058091D30380628E
:100C90000E94C10584E08093D4038CE00E94C105CA
:100CA0000E94C70582E08093D50386E0DF91CF9153
:100CB0000C94C10580620E94C1058BE496E4019703
:100CC000F1F78091D30380620E94C10583E592E031
:100CD0000197F1F78091D30380620E94C105D5CFBF
:100CE000643008F063E09091D703691710F06FEF5C
:100CF000690FE62FF0E0EC53FC4F9489890F806870
:100D00000C94C10560E080E00E9470066DE471E023
:100D100084EC93E00E940F0561E081E00E94700680
:100D20006EE571E084EC93E00C940F05CF93DF93B4
:100D300064E873E080E090E00E94440260E080E0BC
:100D40000E9470066DE671E084EC93E00E940F054E
:100D500060E081E00E9470066FE671E084EC93E051
:100D60000E94230561E084E00E9470066EE771E056
:100D700084EC93E00E940F0561E08FE00E94700612
:100D80006DE671E084EC93E00E940F0561E080E184
:100D90000E9470066DE671E084EC93E00E940F05FE
:100DA00061E08EE00E9470066DE671E084EC93E0F5
:100DB0000E940F0561E08DE00E9470066DE671E013
:100DC00084EC93E00E940F0584EB90E090936D0219
:100DD00080936C02C0916C02D0916D02D7FD0FC060
:100DE000CE010E948C0065E070E080E090E00E94FF
:100DF00044022597D0936D02C0936C02EBCF60ED57
:100E000077E080E090E00E94440268EE73E080E0CA
:100E100090E00E94440260EB74E080E090E00E9469
:100E200044020E94C7056FE082E00E9470066DE6F2
:100E300071E084EC93E00E940F056EE082E00E9476
:100E400070066DE671E084EC93E00E940F0560E0AF
:100E500082E00E94700668EC70E080E090E00E9402
:100E6000440268E871E084EC93E00E940F0561E0C1
:100E700084E00E9470066BE572E084EC93E00E94CF
:100E8000230568EC70E080E090E00E9444020E943C
:100E9000C70560E082E00E94700669E971E084ECB9
:100EA00093E00E940F0568EE73E080E090E00E94FE
:100EB000440260E082E00E94700669E971E084EC1F
:100EC00093E00E940F0561E084E00E94700661E5F6
:100ED00072E084EC93E00E94230564E670E080E019
:100EE00090E00E9444020E94C70560E082E00E94F8
:100EF000700669E971E084EC93E00E940F0568EEEA
:100F000073E080E090E00E94440260E082E00E9492
:100F1000700669E971E084EC93E00E940F0561E0DE
:100F200084E00E94700668EA71E084EC93E00E941D
:100F3000230564E670E080E090E00E9444020E9495
:100F4000C70560E082E00E94700669E971E084EC08
:100F500093E00E940F0568EE73E080E090E00E944D
:100F6000440260E082E00E94700669E971E084EC6E
:100F700093E00E940F0561E084E00E9470066AEA37
:100F800071E084EC93E00E94230564E670E080E069
:100F900090E00E9444020E94C70560E082E00E9447
:100FA000700669E971E084EC93E00E940F0568EE39
:100FB00073E080E090E00E94440261E084E00E94DF
:100FC00070066CEA71E084EC93E00E94230564E60D
:100FD00070E080E090E00E9444020E94C70560E05B
:100FE00082E00E9470066EEA71E084EC93E00E9459
:100FF0000F0568EE73E080E090E00E94440268E232
:1010000070E080E090E00E9444020E94C70560E02A
:1010100082E00E9470066EEB71E084EC93E00E9427
:10102000230564EF71E080E090E00E94440260E0FC
:101030008CE00E94700669EC71E084EC93E00E9401
:10104000230564EF71E080E090E00E94440260E0DC
:101050008DE00E94700669EC71E084EC93E00E94E0
:10106000230564EF71E080E090E00E94440260E0BC
:101070008EE00E94700669EC71E084EC93E00E94BF
:10108000230560E971E080E090E00E9444020E9444
:10109000C70560E084E00E9470066BEC71E084ECB0
:1010A00093E00E94230568EB71E080E090E00E94ED
:1010B000440268EE73E080E090E00E9444021092E7
:1010C0006D0210926C0280916C0290916D02853BD2
:1010D0009105B4F40E948C006FE070E080E090E035
:1010E0000E9444020E94C7050E94820680916C0201
:1010F00090916D02059690936D0280936C02E3CF00
:10110000DF91CF91089541E00E946E0581E090E06B
:1011100008951F920F920FB60F9211242F933F93B1
:101120008F939F93AF93BF938091780290917902B0
:10113000A0917A02B0917B023091770223E0230FD5
:101140002D3758F50196A11DB11D2093770280938C
:10115000780290937902A0937A02B0937B028091F7
:101160007C0290917D02A0917E02B0917F02019657
:10117000A11DB11D80937C0290937D02A0937E02FD
:10118000B0937F02BF91AF919F918F913F912F912B
:101190000F900FBE0F901F90189526E8230F029610
:1011A000A11DB11DD2CF1F920F920FB60F92112425
:1011B0002F933F934F935F936F937F938F939F935F
:1011C000AF93BF93EF93FF9380E892E00E946D048A
:1011D000FF91EF91BF91AF919F918F917F916F910F
:1011E0005F914F913F912F910F900FBE0F901F90E5
:1011F00018951F920F920FB60F9211242F938F9371
:101200009F93EF93FF93E0919002F0919102808180
:10121000E0919602F091970282FD1BC0908180912F
:1012200099028F5F8F7320919A02821741F0E091AB
:101230009902F0E0E058FD4F958F80939902FF915D
:10124000EF919F918F912F910F900FBE0F901F9054
:1012500018958081F4CF1F920F920FB60F92112430
:101260002F933F934F935F936F937F938F939F93AE
:10127000AF93BF93CF93DF93EF93FF9380916E0271
:10128000C0914103D0E087FF24C0109285001092E6
:10129000840080916E028F5F80936E0280916E0257
:1012A000082E000C990B8C179D0724F480916E0278
:1012B0008C30C4F180918400909185000496803434
:1012C0009C4908F47AC0809184009091850004962E
:1012D00076C080916E02082E000C990B8C179D072A
:1012E000C4F6E0916E028E2FEE0F990BFC01EE0F0B
:1012F000FF1FE80FF91FE35EFC4F808186FFC9CF17
:10130000E0916E028E2FEE0F990BFC01EE0FFF1F86
:10131000E80FF91FE35EFC4F808160E08F730E944D
:10132000B501B7CF2091840030918500E0916E0225
:101330008E2FEE0F990BFC01EE0FFF1FE80FF91F28
:10134000E35EFC4F81819281820F931F909389000D
:1013500080938800E0916E028E2FEE0F990BFC01B6
:10136000EE0FFF1FE80FF91FE35EFC4F808186FF41
:1013700011C0E0916E028E2FEE0F990BFC01EE0F63
:10138000FF1FE80FF91FE35EFC4F808161E08F7360
:101390000E94B501FF91EF91DF91CF91BF91AF9185
:1013A0009F918F917F916F915F914F913F912F917D
:1013B0000F900FBE0F901F90189580E49CE99093BA
:1013C0008900809388008FEF80936E02E3CFCF93E4
:1013D000109283021092820288EE93E0A0E0B0E0C7
:1013E0008093840290938502A0938602B093870233
:1013F00086E291E0909381028093800285EC90E0F8
:1014000090938D0280938C0284EC90E090938F02F5
:1014100080938E0280EC90E09093910280939002F2
:1014200081EC90E0909393028093920282EC90E0A2
:10143000909395028093940286EC90E090939702AB
:10144000809396021092990210929A0210929B0237
:1014500010929C02809141038C3008F0A6C091E06C
:10146000980F909341038093DC0390E0FC01EE0F12
:10147000FF1FE80FF91FE35EFC4F88EB9BE09283B0
:1014800081831092C7031092C60382E491E0909387
:10149000C5038093C40382E18093C8038FEF8093D8
:1014A000C90383E18093CA0381E18093CB0380E188
:1014B0008093CC038FE08093CD03CBE0C093CE0329
:1014C0001092CF031092D0031092D1031092D20346
:1014D0001092D30381E00E94CF058AE08093B60387
:1014E000C093B703E8EBF0E0E491E093B803E4EADB
:1014F000F0E0E491E093B90380E89EE3A0E0B0E07F
:101500008093BE039093BF03A093C003B093C10325
:10151000109244031092480310924703109249031B
:1015200088E391E09093430380934203EEE5F3E078
:101530001082148213821582369683E0EA39F80706
:10154000B9F782E191E09093A5038093A4038FE023
:1015500091E09093A7038093A60384E08093A8036F
:1015600083E08093A90386E191E09093A3038093A5
:10157000A2038AE090E09093AB038093AA0384EFE8
:1015800091E09093AD038093AC031092B00310925E
:10159000AF0310929E0310929F031092A00310922B
:1015A000A1031092AE03CF9108958FEF8093DC03D7
:1015B00068CF789484B5826084BD84B5816084BD31
:1015C00085B5826085BD85B5816085BD80916E00E1
:1015D000816080936E001092810080918100826012
:1015E000809381008091810081608093810080914F
:1015F00080008160809380008091B100846080933E
:10160000B1008091B00081608093B00080917A0039
:10161000846080937A0080917A00826080937A005F
:1016200080917A00816080937A0080917A0080684E
:1016300080937A001092C100E0919002F0919102A3
:1016400082E08083E0918C02F0918D021082E09123
:101650008E02F0918F028FEC808310929802E091BD
:101660009402F091950286E08083E0919202F091DD
:101670009302808180618083E0919202F0919302D5
:10168000808188608083E0919202F0919302808152
:1016900080688083E0919202F091930280818F7D37
:1016A000808363ED71E080E892E00E940F050E9464
:1016B00082068091DC038C3008F051C061E089E043
:1016C0000E94E3018091DC03282F30E0F901EE0F46
:1016D000FF1FE20FF31FE35EFC4F9081907C996047
:1016E00090831092DD031092DE032CE0622F0E94A3
:1016F0000F11829FB001112430E020E0AB01420FB6
:10170000531FFA01EE0FFF1FE40FF51FE35EFC4FBE
:10171000908196FD16C02F5F3F4F2C30310571F739
:1017200081110FC01092800082E08093810010929E
:10173000850010928400B19A80916F00826080933E
:101740006F00E091DC038E2F90E0FC01EE0FFF1F95
:10175000E80FF91FE35EFC4F80818064808382E0A4
:101760000E94CF0562E08091B6030E94E3010E94CF
:101770007602605D7740810991096093BA037093A6
:10178000BB038093BC039093BD0387E38093C303A3
:1017900061E08CE00E94E30161E08DE00E94E301E2
:1017A000812C912C5401839470E0272E70E0372E09
:1017B00020E420937C0080917A00806480937A00FA
:1017C00080917A0086FDFCCF80917800909179001D
:1017D00061E0803991400CF060E08DE00E94B5013D
:1017E0000E94DE02882349F08091B7038B3028F0F5
:1017F0008D3050F085518230C8F1412C512C50EC85
:10180000652E5FE7752E1EC06091B20370E090E018
:1018100080E00E94E80F2DEC3CEC4CEC5DE30E9474
:1018200079106B017C016091B10370E090E080E081
:101830000E94E80F9B01AC01C701B6010E947A0F1C
:101840002B013C010E94DE02882309F474C08091C0
:10185000B7038C3009F487C0D8F48B3091F1C12CD8
:10186000D12C30ECE32E3FE7F32E55C06091B1034D
:101870007091B20376276727762790E080E00E9478
:10188000E60F2DEC3CEC4CEC5DE30E947910D8CFD8
:101890008551823020F7C091B3036C2F70E0762F12
:1018A000662766277F778091B403682B90E080E0FD
:1018B0000E94E60F2DEC3CEC4CEC5DE30E947910AD
:1018C0006EC06091B30370E090E080E00E94E60F8C
:1018D0006B017C01C091B403C7FF0AC0AC019B013E
:1018E00060E070E080E89FEB0E94790F6B017C0163
:1018F000CF706C2F70E090E080E00E94E80F2DEC3C
:101900003CEC4CEC5DE30E947910A70196010E942B
:101910007A0F6B017C01A3019201C301B2010E9405
:10192000E610811108C0A7019601C701B6010E9407
:10193000E6108823E9F160EE71E080E892E00E9411
:101940000F0560ED77E080E090E00E9444022114F2
:10195000310409F42DCF0E945904882309F428CFBB
:101960000E94000025CFC091B3036C2F70E090E07F
:1019700080E00E94E60F6B017C016091B4036F7000
:1019800070E090E080E00E94E80F2DEC3CEC4CEC25
:101990005DE30E947910A70196010E947A0F6B0106
:1019A0007C01C7FFB8CFF7FAF094F7F8F094B3CF03
:1019B00020E030E040EF51E4C701B6010E9474100E
:1019C00087FF0AC020E030E04CE852E4C301B201D6
:1019D0000E94741060E087FF61E08CE00E94B50116
:1019E00081E08093AE030E94760200919E031091E5
:1019F0009F032091A0033091A103AB01BC01401BC8
:101A0000510B620B730B8091AA039091AB03B0E072
:101A1000A0E084179507A607B70708F00FC1C0E03C
:101A20008091A803C81760F4E091A403F091A50386
:101A3000EC0FF11D62E080810E94E301CF5FF0CFE7
:101A4000512C8091A903581608F05FC0052D10E0B5
:101A5000E091A603F091A703E00FF11F61E0808100
:101A60000E94E301E091A603F091A703E00FF11FAC
:101A700060E080810E94B501D501C401052C04C03D
:101A8000880F991FAA1FBB1F0A94D2F76C017C0113
:101A9000E094F094412C8091A8034816F8F4C42DEA
:101AA000D0E0E091A403F091A503EC0FFD1F80812D
:101AB0000E948C012496CC0FDD1FCE5BDC4F892B5E
:101AC00041F4888199818C299D2999838883439445
:101AD000E2CF888199818E219F21F7CFE091A603E3
:101AE000F091A703E00FF11F61E080810E94B50132
:101AF0008091A6039091A703080F191F60E0D801F9
:101B00008C910E94E30153949CCF02E413E0F8010E
:101B1000878D90A1892B31F4148E8FEF9FEF968FD4
:101B2000858F11A2369693E0EE37F90789F7F12CED
:101B30008091A803F81608F050C0E12CCF2DD0E01A
:101B4000CC0FDD1FC65BDC4F2091A903E21608F025
:101B500042C0688179810E2C02C0769567950A94FF
:101B6000E2F7F29E900111242E0D311DE2E4F3E024
:101B700080E0458D568D2417350709F422C18F5F0B
:101B800036968A30B1F760FF24C0E2E4F3E090E0DB
:101B900080E0448D411118C0E091A203F091A303AD
:101BA000E20FF31F4081A6E0A89FF001A99FF00D6E
:101BB0001124EE5BFC4F448F368F258F10A2178EB9
:101BC00061E00E94820205C0019636968A30910536
:101BD00001F7E394B9CFF394ABCFC0E0F80181A152
:101BE0008111C82F0A5F1F4FF3E00E371F07B1F7AF
:101BF0000E94760260939E0370939F038093A003DC
:101C00009093A103CC23D1F0809163038823B1F09A
:101C10008091610390916203019781F4C0915E030A
:101C2000C1110FC080917602811191CE0E94C7052B
:101C30000E94820681E08093760289CE1092AE03E4
:101C4000F1CFCA3249F410927502109274020E94C8
:101C5000C7050E9482067BCE809174029091750226
:101C6000843091050CF073CE20ED2C0F2A3008F053
:101C70006ECE892B61F40E94C70560E080E00E946F
:101C800070066AEE71E084EC93E00E9423052091D7
:101C9000740230917502C901019690937502809388
:101CA000740221593D4FD901CC9361E08A5F0E94B3
:101CB00070066CE571E084EC93E00E94230580914E
:101CC000740290917502049709F041CE109273024C
:101CD00000E011E0D0E0C0E0F801608171818FE6A2
:101CE00092E00E942111892B09F46DC021960B5FAF
:101CF0001F4FC330D10581F768E372E08FE692E0B1
:101D00000E942111892B19F40E94960652C064EF9B
:101D100071E08FE692E00E942111892BA9F364EF14
:101D200071E080E090E00E9444020E94C70560E0FC
:101D300081E00E94700669EF71E084EC93E00E94FC
:101D4000230560E086E00E9470066EEF71E084EC8F
:101D500093E00E94230561E08FE00E9470066DE62B
:101D600071E084EC93E00E940F0561E084E00E9442
:101D7000700668E072E084EC93E00E940F0561E079
:101D80008DE00E9470066DE671E084EC93E00E94A5
:101D90000F0564E172E080E892E00E940F0568EBB5
:101DA0007BE080E090E00E9444020E94C7050E9410
:101DB0008206EFE6F2E0DF0125E01D922A95E9F7C1
:101DC00042CF6170FECE55E05C9FF0015D9FF00D4B
:101DD0001124E050FF4F81E08483C281D3810E94AF
:101DE000C70560E085E00E9470066DE372E084EC58
:101DF00093E00E94230561E085E00E947006BE0129
:101E000084EC93E00E942305BE0180E892E00E94EA
:101E1000230565E472E080E892E00E940F0560ED22
:101E200077E080E090E00E9444026ECF052E97FBA1
:101E30001EF400940E942D0F57FD07D00E94480FFA
:101E400007FC03D04EF40C942D0F5095409530951F
:101E500021953F4F4F4F5F4F089590958095709516
:101E600061957F4F8F4F9F4F08950E946A0FA59FE6
:101E7000900DB49F900DA49F800D911D1124089585
:101E8000B7FF0C94350F0E94350F821B930B0895FA
:101E9000A1E21A2EAA1BBB1BFD010DC0AA1FBB1F6E
:101EA000EE1FFF1FA217B307E407F50720F0A21BE0
:101EB000B30BE40BF50B661F771F881F991F1A944D
:101EC00069F760957095809590959B01AC01BD0177
:101ED000CF010895A29FB001B39FC001A39F700DD1
:101EE000811D1124911DB29F700D811D1124911D22
:101EF00008955058BB27AA270E94910F0C943A10BE
:101F00000E942C1038F00E94331020F039F49F3FCB
:101F100019F426F40C9429100EF4E095E7FB0C94C8
:101F20002310E92F0E944B1058F3BA17620773076A
:101F30008407950720F079F4A6F50C946D100EF443
:101F4000E0950B2EBA2FA02D0B01B90190010C01C9
:101F5000CA01A0011124FF27591B99F0593F50F4E1
:101F6000503E68F11A16F040A22F232F342F442739
:101F7000585FF3CF469537952795A795F040539531
:101F8000C9F77EF41F16BA0B620B730B840BBAF001
:101F90009150A1F0FF0FBB1F661F771F881FC2F76C
:101FA0000EC0BA0F621F731F841F48F48795779580
:101FB0006795B795F7959E3F08F0B0CF9395880F3A
:101FC00008F09927EE0F979587950895E89409C032
:101FD00097FB3EF490958095709561957F4F8F4F5C
:101FE0009F4F9923A9F0F92F96E9BB279395F69572
:101FF000879577956795B795F111F8CFFAF4BB0FF0
:1020000011F460FF1BC06F5F7F4F8F4F9F4F16C053
:10201000882311F096E911C0772321F09EE8872FDD
:10202000762F05C0662371F096E8862F70E060E099
:102030002AF09A95660F771F881FDAF7880F969512
:10204000879597F9089597F99F6780E870E060E0B9
:1020500008959FEF80EC089500240A941616170641
:1020600018060906089500240A9412161306140689
:1020700005060895092E0394000C11F4882352F0EC
:10208000BB0F40F4BF2B11F460FF04C06F5F7F4FA4
:102090008F4F9F4F089557FD9058440F551F59F08B
:1020A0005F3F71F04795880F97FB991F61F09F3F45
:1020B00079F087950895121613061406551FF2CF6E
:1020C0004695F1DF08C0161617061806991FF1CFBE
:1020D00086957105610508940895E894BB276627E5
:1020E0007727CB0197F908950E94EB1008F48FEF42
:1020F00008950E948C100C943A100E942C1038F015
:102100000E94331020F0952311F00C9423100C94AE
:10211000291011240C946E100E944B1070F3959F9F
:10212000C1F3950F50E0551F629FF001729FBB27CE
:10213000F00DB11D639FAA27F00DB11DAA1F649F6A
:102140006627B00DA11D661F829F2227B00DA11D1D
:10215000621F739FB00DA11D621F839FA00D611DA3
:10216000221F749F3327A00D611D231F849F600DC4
:10217000211D822F762F6A2F11249F5750409AF0ED
:10218000F1F088234AF0EE0FFF1FBB1F661F771F79
:10219000881F91505040A9F79E3F510580F00C9444
:1021A00023100C946E105F3FE4F3983ED4F38695B1
:1021B00077956795B795F795E7959F5FC1F7FE2BE4
:1021C000880F911D9695879597F908950E94EB10B9
:1021D000880B990B0895990F0008550FAA0BE0E89A
:1021E000FEEF16161706E807F907C0F012161306D9
:1021F000E407F50798F0621B730B840B950B39F419
:102200000A2661F0232B242B252B21F408950A267E
:1022100009F4A140A6958FEF811D811D0895991B9A
:1022200079E004C0991F961708F0961B881F7A95CD
:10223000C9F780950895EE0FFF1F0590F491E02DEA
:102240000994FB01DC018D91019080190110D9F3F3
:10225000990B0895F894FFCF4E0253020058025D87
:102260000200630268020006070802030405313217
:10227000333435363738392A3023000000008F04D4
:10228000EF031C04DC044D042B043F040000000099
:10229000E403E803EC03000000008308EF03FD04FF
:1022A000FC040D0A002A454E54455220544845204E
:1022B000434F44452A00544F204F50454E20444F31
:1022C0004F522121002000416363657373204772E0
:1022D000616E7465640057454C434F4D45212100A4
:1022E00047455420494E2057495448494E3A3A3AB6
:1022F0000047455420494E2057495448494E3A001A
:1023000033003200310047455420494E205749548C
:1023100048494E3A3A0052452D4C4F434B494E479F
:10232000002E004C4F434B45442100535953544514
:102330004D5F524541445900444854204572726FE4
:10234000720050415353574F52443A00383838388E
:1023500000434F444500494E434F525245435400B9
:10236000474554204157415921212100434F4445BD
:1023700020494E434F525245435420594F55204116
:10238000524520554E415554484F52495A454400F4
:10239000393939390057454C434F4D45002C50527F
:1023A0004553454E540031323334004142444F00CE
:1023B0003233343500484F5544410033343536000C
:0423C000414C490043
:107E0000112484B714BE81FFF0D085E080938100F7
:107E100082E08093C00088E18093C10086E0809377
:107E2000C20080E18093C4008EE0C9D0259A86E02C
:107E300020E33CEF91E0309385002093840096BBD3
:107E4000B09BFECF1D9AA8958150A9F7CC24DD24C4
:107E500088248394B5E0AB2EA1E19A2EF3E0BF2EE7
:107E6000A2D0813461F49FD0082FAFD0023811F036
:107E7000013811F484E001C083E08DD089C08234E0
:107E800011F484E103C0853419F485E0A6D080C0E4
:107E9000853579F488D0E82EFF2485D0082F10E0AE
:107EA000102F00270E291F29000F111F8ED06801E7
:107EB0006FC0863521F484E090D080E0DECF843638
:107EC00009F040C070D06FD0082F6DD080E0C81688
:107ED00080E7D80618F4F601B7BEE895C0E0D1E017
:107EE00062D089930C17E1F7F0E0CF16F0E7DF06D8
:107EF00018F0F601B7BEE89568D007B600FCFDCFD4
:107F0000A601A0E0B1E02C9130E011968C91119780
:107F100090E0982F8827822B932B1296FA010C0160
:107F200087BEE89511244E5F5F4FF1E0A038BF0790
:107F300051F7F601A7BEE89507B600FCFDCF97BE46
:107F4000E89526C08437B1F42ED02DD0F82E2BD052
:107F50003CD0F601EF2C8F010F5F1F4F84911BD097
:107F6000EA94F801C1F70894C11CD11CFA94CF0C13
:107F7000D11C0EC0853739F428D08EE10CD085E9AC
:107F80000AD08FE07ACF813511F488E018D01DD067
:107F900080E101D065CF982F8091C00085FFFCCF94
:107FA0009093C60008958091C00087FFFCCF809118
:107FB000C00084FD01C0A8958091C6000895E0E648
:107FC000F0E098E1908380830895EDDF803219F02E
:107FD00088E0F5DFFFCF84E1DECF1F93182FE3DFCA
:107FE0001150E9F7F2DF1F91089580E0E8DFEE27F6
:047FF000FF270994CA
:027FFE00040479
:00000001FF
