:020000040000FA
:100000000C94FC000C9424010C9424010C94240105
:100010000C9424010C9424010C9424010C942401CC
:100020000C9424010C9424010C9424010C94FD09DB
:100030000C9424010C9424010C9424010C942401AC
:100040000C945B090C9424010C94CB090C94A50925
:100050000C9424010C9424010C9424010C9424018C
:100060000C9424010C9424014C4F434B4544210033
:1000700052452D4C4F434B494E470047455420496C
:100080004E2057495448494E3A3A00474554204972
:100090004E2057495448494E3A0047455420494E4E
:1000A0002057495448494E3A0047455420494E206C
:1000B00057495448494E3A0047455420494E205725
:1000C000495448494E3A0047455420494E20574923
:1000D0005448494E3A0047455420494E2057495408
:1000E00048494E3A0047455420494E205749544804
:1000F000494E3A0047455420494E205749544849F3
:100100004E3A3A3A0057454C434F4D452121004164
:100110006363657373204772616E74656400544F46
:10012000204F50454E20444F4F522121002A454E2A
:100130005445522054484520434F44452A005359C2
:100140005354454D5F52454144590057454C434F28
:100150004D4500434F444520494E434F525245437D
:100160005420594F552041524520554E4155544831
:100170004F52495A4544004745542041574159215F
:10018000212100494E434F525245435400434F44AE
:10019000450050415353574F52443A00000000006D
:1001A000240027002A0000000000250028002B0062
:1001B0000000000800020100000304070000000026
:1001C00000000000000000002300260029000404B5
:1001D00004040404040402020202020203030303EF
:1001E00003030102040810204080010204081020CB
:1001F000010204081020B90A11241FBECFEFD8E075
:10020000DEBFCDBF11E0A0E0B1E0ECEAF3E202C056
:1002100005900D92AA38B107D9F723E0AAE8B1E01A
:1002200001C01D92A530B207E1F710E0CCEFD0E09D
:1002300004C02197FE010E94C511CB3FD107C9F729
:100240000E94AB0B0C94D4110C940000CF92DF925F
:10025000EF92FF92CF93DF93B091DE02A0E0811185
:10026000AB2F8091DF0290E0880F991FAC014C53B7
:100270005E4FC090E402D090E502E090E602F0907C
:10028000E70230E020E0FA01C591D491E881B9019C
:1002900090E080E0EB23EA130AC02F5F3F4F6C151C
:1002A0007D058E059F0578F36FEF7FEFCB01DF9122
:1002B000CF91FF90EF90DF90CF900895CF92DF9293
:1002C000EF92FF92DC01A03282E0B807D4F5A53BA3
:1002D000B10514F0A4EBB0E04091030328E830E04E
:1002E000241B310947FD3395220F331F220F331F83
:1002F0006901330FEE08FF084091040328E532E05E
:10030000241B310947FD3395220F331F220F331F62
:10031000032E000C440B550B2C193D094E095F09A7
:10032000B7FF02C0B0E0A0E00E94EA0F24EB30E08B
:1003300040E050E00E94C00FC20ED31EE41EF51E26
:10034000D601E0910203EC3080F52091030388E8A8
:1003500090E0821B910927FD9395880F991F880FC4
:10036000991FA817B90784F02091040388E592E04B
:10037000821B910927FD9395880F991F880F991F5C
:10038000A817B9070CF4CD010297880F991F4FB732
:10039000F8942E2F30E0F901EE0FFF1FE20FF31F4C
:1003A000ED5BFD4F928381834FBFFF90EF90DF9015
:1003B000CF90089596E0899FD0011124A859BD4F90
:1003C00090967C936E935F9791E091969C93919712
:1003D000E091D502F091D6029091D402992339F0A0
:1003E000309751F0811108C08091840209943097B0
:1003F00019F05C968C91FACF0895833081F028F43F
:10040000813099F08230A9F008958730A9F08830C2
:10041000C9F08430B1F4809180008F7D03C0809159
:1004200080008F7780938000089584B58F7784BD96
:10043000089584B58F7DFBCF8091B0008F77809336
:10044000B00008958091B0008F7DF9CFCF93DF93F6
:10045000282F30E0F901E055FE4F8491F901EE516B
:10046000FE4FD491F901E253FE4FC491CC23A1F089
:1004700081110E94FD01EC2FF0E0EE0FFF1FEC5305
:10048000FE4FA591B491EC91ED2381E090E009F449
:1004900080E0DF91CF91089580E090E0FACF1F9344
:1004A000CF93DF93282F30E0F901E055FE4F849180
:1004B000F901EE51FE4FD491F901E253FE4FC49180
:1004C000CC23A9F0162F81110E94FD01EC2FF0E042
:1004D000EE0FFF1FEA55FE4FA591B4918FB7F89428
:1004E000EC91111108C0D095DE23DC938FBFDF9112
:1004F000CF911F910895DE2BF8CFCF93DF9390E03B
:10050000FC01EE51FE4F249182539E4FFC018491D9
:100510008823C9F090E0880F991FFC01E456FE4F34
:10052000A591B491FC01EA55FE4FC591D49161119A
:100530000DC09FB7F8948C91209582238C9388816D
:10054000282328839FBFDF91CF910895623051F413
:100550009FB7F8943C91822F809583238C93E881F8
:100560002E2BEFCF8FB7F894EC912E2B2C938FBFBF
:10057000EACF3FB7F8948091A2019091A301A09196
:10058000A401B091A50126B5A89B05C02F3F19F085
:100590000196A11DB11D3FBFBA2FA92F982F882703
:1005A000BC01CD01620F711D811D911D42E0660FDE
:1005B000771F881F991F4A95D1F708958F929F92B0
:1005C000AF92BF92CF92DF92EF92FF924B015C010C
:1005D0000E94B9026B017C010E94B9026C197D096D
:1005E0008E099F09683E734081059105A8F321E0BB
:1005F000821A9108A108B10888EEC80E83E0D81EBF
:10060000E11CF11C81149104A104B10429F7FF90AD
:10061000EF90DF90CF90BF90AF909F908F90089514
:100620002FB7F89460919E0170919F018091A00175
:100630009091A1012FBF0895CF92DF92EF92FF9288
:100640000F931F93CF93DF93CDB7DEB7C054D14044
:100650000FB6F894DEBF0FBECDBF0E94100300910D
:10066000E0021091E1022091E2023091E3026B017D
:100670007C01C01AD10AE20AF30A97018601003D03
:1006800017402105310590F48091E802C05CDE4FEF
:100690000FB6F894DEBF0FBECDBFDF91CF911F9193
:1006A0000F91FF90EF90DF90CF9008956093E0025C
:1006B0007093E1028093E2029093E3021092DB02D6
:1006C0001092DA021092D9021092D8021092D70238
:1006D00062E08091DC020E947D0261E070E080E0D7
:1006E00090E00E94DE0261E08091DC020E947D02C7
:1006F00060E08091DC020E944F028091DD02855112
:10070000823020F58BE291E10197F1F762E0809170
:10071000DC020E947D028091E90290E08230910526
:1007200038F0880F991F880F991F05970197F1F7E7
:10073000F89480E00E9426016F3F7F4F8F4F9F4FBC
:1007400061F41092E802789480E0A0CF64E170E058
:1007500080E090E00E94DE02D9CF81E00E94260175
:100760006F3F7F4F8F4F9F4F61F38E010F5F1F4F82
:100770006E012FEBC21A2EEFD20A780180E00E94A0
:100780002601F701608371838283938381E00E9455
:100790002601F7016483758386839783F8E0EF0E63
:1007A000F11CEC14FD0451F7789430E020E0F801DE
:1007B000C080D180E280F380448155816681778159
:1007C000FFEFCF16DF06EF06FF0631F04F3F8FEF4A
:1007D00058076807780719F41092E802B5CFF901B5
:1007E00083E0F595E7958A95E1F7E952FD4F808121
:1007F000880FC416D506E606F70610F180832F5F32
:100800003F4F085F1F4F2832310589F64091DB02C8
:100810002091D7028091D802280F3327331F80916F
:10082000D902280F311D8091DA02820F932F911D7A
:1008300099274817190681F681E08093E80226CFB0
:100840008160DCCF0F931F93CF93DF93C82FD62FF8
:1008500086E0C89FF0011124E859FD4F11A2878D51
:1008600090A181309105F1F058F082309105F1F1BD
:10087000039709F440C0DF91CF911F910F91089524
:100880006623C9F361E070E08C2F0E94DA010E94B8
:1008900010036093C0027093C1028093C2029093D0
:1008A000C302E9CF0E9410030091C0021091C1025F
:1008B0002091C2023091C302AB01BC01401B510B1D
:1008C000620B730B8091D2029091D302B0E0A0E052
:1008D00084179507A607B70748F462E070E08C2FED
:1008E000DF91CF911F910F910C94DA0163E070E0DA
:1008F000D111C1CFF4CF70E060E0F1CF862F642F2B
:100900000C947D02862F642F0C944F02862F0C943A
:100910002602EF92FF920F931F93CF93DF938C01E8
:100920007B01D0E0C0E0F701EC0FFD1F649166236E
:1009300061F0D801ED91FC910190F081E02DC801AA
:100940000995892B11F02196EECFCE01DF91CF9141
:100950001F910F91FF90EF900895AF92BF92CF92A9
:10096000DF92EF92FF920F931F93CF93DF936C016F
:100970007B018B01040F151FEB015E01AE18BF0850
:10098000C017D10759F06991D601ED91FC91019002
:10099000F081E02DC6010995892B79F7C501DF911A
:1009A000CF911F910F91FF90EF90DF90CF90BF906C
:1009B000AF900895FC01538D448D252F30E0842F96
:1009C00090E0821B930B541710F0CF960895019777
:1009D0000895FC01918D828D981761F0A28DAE0F64
:1009E000BF2FB11D5D968C91928D9F5F9F73928FEB
:1009F00090E008958FEF9FEF0895FC01918D828D17
:100A0000981731F0828DE80FF11D858D90E00895E3
:100A10008FEF9FEF0895FC01918D228D892F90E03B
:100A2000805C9F4F821B91098F739927089586EAF6
:100A300091E00E940B0521E0892B09F420E0822F30
:100A4000089580E090E0892B29F00E94170581111C
:100A50000C9400000895FC01A48DA80FB92FB11DBE
:100A6000A35ABF4F2C91848D90E001968F739927E4
:100A7000848FA689B7892C93A089B1898C918370C2
:100A800080648C93938D848D981306C00288F389BB
:100A9000E02D80818F7D80830895EF92FF920F93E8
:100AA0001F93CF93DF93EC0181E0888F9B8D8C8D1A
:100AB00098131AC0E889F989808185FF15C09FB70E
:100AC000F894EE89FF896083E889F98980818370D1
:100AD000806480839FBF81E090E0DF91CF911F9180
:100AE0000F91FF90EF900895F62E0B8D10E00F5FA1
:100AF0001F4F0F731127E02E8C8D8E110CC00FB677
:100B000007FCFACFE889F989808185FFF5CFCE010E
:100B10000E942B05F1CFEB8DEC0FFD2FF11DE35A59
:100B2000FF4FF0829FB7F8940B8FEA89FB89808191
:100B30008062CFCFCF93DF93EC01888D8823B9F00B
:100B4000AA89BB89E889F9898C9185FD03C08081D8
:100B500086FD0DC00FB607FCF7CF8C9185FFF2CF55
:100B6000808185FFEDCFCE010E942B05E9CFDF917B
:100B7000CF910895089590E080E00895FB010190E1
:100B80000020E9F73197AF01461B570BDC01ED91CF
:100B9000FC910280F381E02D09940F931F93CF9372
:100BA000DF93EC010E94BE058C016AE471E0CE0186
:100BB0000E94BE05800F911FDF91CF911F910F9171
:100BC00008950F931F93CF93DF93EC010E94890444
:100BD0008C016AE471E0CE010E94BE05800F911F76
:100BE000DF91CF911F910F9108956115710511F05B
:100BF0000C94BE0590E080E00895CF93DF93EC0164
:100C000060E08E810E944F0261E08E810E944F025F
:100C100060E08E810E944F028BE891E00197F1F72E
:100C2000DF91CF910895CF92DF92EF92FF920F93D1
:100C30001F93CF93DF936C017C0187E0E80EF11CDA
:100C4000D0E0C0E0062F10E0B8010C2E02C0759570
:100C500067950A94E2F76170F70181917F010E9424
:100C60004F022196C430D10579F7C601DF91CF91AB
:100C70001F910F91FF90EF90DF90CF900C94FD05A6
:100C8000CF92DF92EF92FF920F931F93CF93DF9358
:100C9000EC01F62E642F8C810E944F028D818F3FD4
:100CA00019F060E00E944F020F2D10E08F8584FF45
:100CB00025C06E0187E0C80ED11CF12CE12CB801D3
:100CC0000E2C02C0759567950A94E2F76170F601E3
:100CD00081916F010E944F02FFEFEF1AFF0A88E037
:100CE000E816F10461F7CE01DF91CF911F910F91CA
:100CF000FF90EF90DF90CF900C94FD05B80184E059
:100D0000759567958A95E1F7CE010E9413066F2DC0
:100D1000CE01DF91CF911F910F91FF90EF90DF9067
:100D2000CF900C94130640E0682F8AEE92E00C946A
:100D3000400681E00E9493068BE39FE10197F1F763
:100D40000895CF93DF93823029F49091F90298604F
:100D50009093F9028093FD021092FE0280E480934A
:100D6000FF0280E18093000380E58093010361E04E
:100D70008091EE020E947D028091EF028F3F19F078
:100D800061E00E947D0261E08091F0020E947D029C
:100D9000CAEED2E09E012A5E32408091F90284FDC3
:100DA0000BC084E090E021962817390744F461E0F5
:100DB0008E810E947D02EECF88E090E0F4CF8BE33D
:100DC0009DE00197F1F760E08091EE020E944F02F2
:100DD00060E08091F0020E944F028091EF028F3F0D
:100DE00019F060E00E944F028091F90284FD34C046
:100DF00063E08AEE92E00E941306CBE4D6E4CE01D3
:100E00000197F1F763E08AEE92E00E9413062197C2
:100E1000F1F763E08AEE92E00E94130683E592E028
:100E20000197F1F762E08AEE92E00E94130680914A
:100E3000F90280620E94930684E08093FA028CE0BB
:100E40000E9493060E94990682E08093FB0286E04E
:100E5000DF91CF910C94930680620E9493068BE4FD
:100E600096E40197F1F78091F90280620E9493065F
:100E700083E592E00197F1F78091F90280620E9488
:100E80009306D5CF643008F063E09091FD026917B6
:100E900010F06FEF690FE62FF0E0E651FD4F9489F7
:100EA000890F80680C94930660E080E00E944207FE
:100EB0006DE271E08AEE92E00E94E10561E081E07E
:100EC0000E9442076EE171E08AEE92E00C94E10527
:100ED000CF93DF9364E873E080E090E00E94DE024D
:100EE00060E080E00E9442076DE471E08AEE92E0EB
:100EF0000E94CD0560E081E00E9442076FE071E052
:100F00008AEE92E00E94890461E084E00E94420738
:100F100065E071E08AEE92E00E94E10561E08FE019
:100F20000E9442076DE471E08AEE92E00E94CD05D6
:100F300061E080E10E9442076DE471E08AEE92E098
:100F40000E94CD0561E08EE00E9442076DE471E0F1
:100F50008AEE92E00E94CD0561E08DE00E9442079A
:100F60006DE471E08AEE92E00E94CD0584EB90E0A2
:100F700090938B0180938A01C0918A01D0918B015B
:100F8000D7FD0FC0CE010E945E0165E070E080E0F9
:100F900090E00E94DE022597D0938B01C0938A01D6
:100FA000EBCF60ED77E080E090E00E94DE0268EE3B
:100FB00073E080E090E00E94DE0260EB74E080E08D
:100FC00090E00E94DE020E9499066FE082E00E949B
:100FD00042076DE471E08AEE92E00E94CD056EE07A
:100FE00082E00E9442076DE471E08AEE92E00E9486
:100FF000CD0560E082E00E94420768EC70E080E08E
:1010000090E00E94DE0264EF70E08AEE92E00E94BF
:10101000E10561E084E00E94420769E771E08AEE41
:1010200092E00E94F50568EC70E080E090E00E949C
:10103000DE020E94990660E082E00E94420765EEAF
:1010400070E08AEE92E00E94E10568EE73E080E0D5
:1010500090E00E94DE0260E082E00E94420766EDBE
:1010600070E08AEE92E00E94E10561E084E00E9477
:1010700042076FE671E08AEE92E00E94F50564E6B1
:1010800070E080E090E00E94DE020E94990660E03D
:1010900082E00E94420767EC70E08AEE92E00E94D4
:1010A000E10568EE73E080E090E00E94DE0260E01F
:1010B00082E00E94420768EB70E08AEE92E00E94B4
:1010C000E10561E084E00E9442076FE471E08AEE8E
:1010D00092E00E94F50564E670E080E090E00E94F6
:1010E000DE020E94990660E082E00E94420769EAFF
:1010F00070E08AEE92E00E94E10568EE73E080E025
:1011000090E00E94DE0260E082E00E9442076AE90D
:1011100070E08AEE92E00E94E10561E084E00E94C6
:10112000420761E571E08AEE92E00E94F50564E60F
:1011300070E080E090E00E94DE020E94990660E08C
:1011400082E00E9442076BE870E08AEE92E00E9423
:10115000E10568EE73E080E090E00E94DE0261E06D
:1011600084E00E94420763E571E08AEE92E00E940B
:10117000F50564E670E080E090E00E94DE020E94E7
:10118000990660E082E00E9442076BE770E08AEE19
:1011900092E00E94E10568EE73E080E090E00E943A
:1011A000DE0268E270E080E090E00E94DE020E94D1
:1011B000990660E082E00E94420760E770E08AEEF4
:1011C00092E00E94890464EF71E080E090E00E9468
:1011D000DE0260E08CE00E94420765E571E08AEE85
:1011E00092E00E94F50564EF71E080E090E00E94DB
:1011F000DE0260E08DE00E94420765E571E08AEE64
:1012000092E00E94F50564EF71E080E090E00E94BA
:10121000DE0260E08EE00E94420765E571E08AEE42
:1012200092E00E94F50560E971E080E090E00E94A4
:10123000DE020E94990660E084E00E94420768E6B0
:1012400070E08AEE92E00E94890468EB71E080E031
:1012500090E00E94DE0268EE73E080E090E00E9481
:10126000DE0210928B0110928A0180918A01909186
:101270008B01853B9105B4F40E945E016FE070E044
:1012800080E090E00E94DE020E9499060E945407CE
:1012900080918A0190918B01059690938B018093A8
:1012A0008A01E3CFDF91CF91089541E00E9440068B
:1012B00081E090E008951F920F920FB60F921124D3
:1012C0002F933F938F939F93AF93BF9380919E01F2
:1012D00090919F01A091A001B091A10130919D0139
:1012E00023E0230F2D3758F50196A11DB11D209342
:1012F0009D0180939E0190939F01A093A001B093C4
:10130000A1018091A2019091A301A091A401B091AB
:10131000A5010196A11DB11D8093A2019093A30187
:10132000A093A401B093A501BF91AF919F918F911C
:101330003F912F910F900FBE0F901F90189526E8A8
:10134000230F0296A11DB11DD2CF1F920F920FB68F
:101350000F9211242F933F934F935F936F937F933B
:101360008F939F93AF93BF93EF93FF9386EA91E0A0
:101370000E942B05FF91EF91BF91AF919F918F91AB
:101380007F916F915F914F913F912F910F900FBE81
:101390000F901F9018951F920F920FB60F92112465
:1013A0002F938F939F93EF93FF93E091B601F0916A
:1013B000B7018081E091BC01F091BD0182FD1BC0AD
:1013C00090818091BF018F5F8F732091C001821740
:1013D00041F0E091BF01F0E0EA55FE4F958F809318
:1013E000BF01FF91EF919F918F912F910F900FBEB1
:1013F0000F901F9018958081F4CF1F920F920FB617
:101400000F9211242F933F934F935F936F937F938A
:101410008F939F93AF93BF93CF93DF93EF93FF93FC
:1014200080918C01C0916702D0E087FF24C01092A8
:1014300085001092840080918C018F5F80938C01D5
:1014400080918C01082E000C990B8C179D0724F4B9
:1014500080918C018C30C4F1809184009091850042
:10146000049680349C4908F47AC08091840090915D
:101470008500049676C080918C01082E000C990B93
:101480008C179D07C4F6E0918C018E2FEE0F990BFF
:10149000FC01EE0FFF1FE80FF91FED5BFD4F808190
:1014A00086FFC9CFE0918C018E2FEE0F990BFC01C6
:1014B000EE0FFF1FE80FF91FED5BFD4F808160E02D
:1014C0008F730E944F02B7CF209184003091850026
:1014D000E0918C018E2FEE0F990BFC01EE0FFF1F98
:1014E000E80FF91FED5BFD4F81819281820F931F01
:1014F0009093890080938800E0918C018E2FEE0FED
:10150000990BFC01EE0FFF1FE80FF91FED5BFD4F7C
:10151000808186FF11C0E0918C018E2FEE0F990B18
:10152000FC01EE0FFF1FE80FF91FED5BFD4F8081FF
:1015300061E08F730E944F02FF91EF91DF91CF9195
:10154000BF91AF919F918F917F916F915F914F91DB
:101550003F912F910F900FBE0F901F90189580E430
:101560009CE990938900809388008FEF80938C0191
:10157000E3CFCF931092A9011092A80188EE93E0D7
:10158000A0E0B0E08093AA019093AB01A093AC01DE
:10159000B093AD0186E291E09093A7018093A601FC
:1015A00085EC90E09093B3018093B20184EC90E0DD
:1015B0009093B5018093B40180EC90E09093B701D3
:1015C0008093B60181EC90E09093B9018093B801CB
:1015D00082EC90E09093BB018093BA0186EC90E09E
:1015E0009093BD018093BC011092BF011092C00185
:1015F0001092C1011092C201809167028C3008F0F4
:10160000A6C091E0980F909367028093020390E048
:10161000FC01EE0FFF1FE80FF91FED5BFD4F88EB9C
:101620009BE0928381831092ED021092EC0282E49F
:1016300091E09093EB028093EA0282E18093EE02C4
:101640008FEF8093EF0283E18093F00281E180933A
:10165000F10280E18093F2028FE08093F302CBE00D
:10166000C093F4021092F5021092F6021092F70263
:101670001092F8021092F90281E00E94A1068AE01D
:101680008093DC02C093DD02ECEEF1E0E491E093A4
:10169000DE02E8EDF1E0E491E093DF0280E89EE312
:1016A000A0E0B0E08093E4029093E502A093E6020C
:1016B000B093E70210926A0210926E0210926D02CD
:1016C00010926F0288E391E0909369028093680220
:1016D000E4E8F2E01082148213821582369682E0EA
:1016E000E03CF807B9F782E191E09093CB02809358
:1016F000CA028FE091E09093CD028093CC0284E007
:101700008093CE0283E08093CF0286E191E09093B4
:10171000C9028093C8028AE090E09093D10280933E
:10172000D00284EF91E09093D3028093D202109282
:10173000D6021092D5021092C4021092C5021092E5
:10174000C6021092C7021092D402CF9108958FEF73
:101750008093020368CF789484B5826084BD84B599
:10176000816084BD85B5826085BD85B5816085BD9C
:1017700080916E00816080936E0010928100809154
:1017800081008260809381008091810081608093DC
:101790008100809180008160809380008091B10001
:1017A00084608093B1008091B00081608093B0002C
:1017B00080917A00846080937A0080917A008260C0
:1017C00080937A0080917A00816080937A00809182
:1017D0007A00806880937A001092C100E091B6018F
:1017E000F091B70182E08083E091B201F091B30102
:1017F0001082E091B401F091B5018FEC80831092DA
:10180000BE01E091BA01F091BB0186E08083E091D6
:10181000B801F091B901808180618083E091B801C5
:10182000F091B901808188608083E091B801F091E6
:10183000B901808180688083E091B801F091B9019D
:1018400080818F7D80836EE371E086EA91E00E9463
:10185000E1050E945407809102038C3008F051C0CA
:1018600061E089E00E947D0280910203282F30E030
:10187000F901EE0FFF1FE20FF31FED5BFD4F9081AB
:10188000907C9960908310920303109204032CE0E3
:10189000622F0E94B911829FB001112430E020E034
:1018A000AB01420F531FFA01EE0FFF1FE40FF51FAC
:1018B000ED5BFD4F908196FD16C02F5F3F4F2C30A2
:1018C000310571F781110FC01092800082E0809382
:1018D00081001092850010928400B19A80916F006F
:1018E000826080936F00E09102038E2F90E0FC01F4
:1018F000EE0FFF1FE80FF91FED5BFD4F8081806445
:10190000808382E00E94A10662E08091DC020E9456
:101910007D020E941003605D774081099109609308
:10192000E0027093E1028093E2029093E30287E386
:101930008093E90261E08CE00E947D0261E08DE02D
:101940000E947D02812C912C5401839422242A949C
:10195000322C70E0672E70E0772E0E941003009109
:101960008D0110918E0120918F0130919001601BAB
:10197000710B820B930B683E73408105910510F14A
:101980000E94100360938D0170938E0180938F01EC
:101990009093900150E450937C0080917A00806491
:1019A00080937A0080917A0086FDFCCF8091780048
:1019B0009091790061E0803991400CF060E08DE019
:1019C0000E944F020E941003009191011091920118
:1019D0002091930130919401601B710B820B930B4A
:1019E000603D77408105910508F477C00E9410039F
:1019F000609391017093920180939301909394016D
:101A00000E941C03882309F468C08091DD028C3099
:101A100009F493C048F48B3001F1C12CD12C30EC87
:101A2000E32E3FE7F32E43C085518230B0F7C091DB
:101A3000D9026C2F70E0762F662766277F7780911A
:101A4000DA02682B90E080E00E9490102DEC3CECD4
:101A50004CEC5DE30E9423118CC06091D90270E0D0
:101A600090E080E00E9490106B017C01C091DA024E
:101A7000C7FF0AC0AC019B0160E070E080E89FEB0B
:101A80000E9423106B017C01CF706C2F70E090E0FE
:101A900080E00E9492102DEC3CEC4CEC5DE30E9447
:101AA0002311A70196010E9424106B017C01A7015C
:101AB0009601C701B6010E94901181110EC020E06D
:101AC00030E040EF51E4C701B6010E941E1161E011
:101AD00087FD60E08CE00E944F0281E08093D40299
:101AE0000E9410030091C4021091C5022091C60209
:101AF0003091C702AB01BC01401B510B620B730B51
:101B00008091D0029091D102B0E0A0E084179507B7
:101B1000A607B70708F03EC1C0E08091CE02C81703
:101B200088F5E091CA02F091CB02EC0FF11D62E062
:101B300080810E947D02CF5FF0CFC091D9026C2FCF
:101B400070E090E080E00E9490106B017C01609159
:101B5000DA026F7070E090E080E00E9492102DEC4D
:101B60003CEC4CEC5DE30E942311A70196010E941E
:101B700024106B017C01C7FF9ACFF7FAF094F7F8B5
:101B8000F09495CF512C8091CF02581608F05FC089
:101B9000052D10E0E091CC02F091CD02E00FF11F95
:101BA00061E080810E947D02E091CC02F091CD0243
:101BB000E00FF11F60E080810E944F02D501C40157
:101BC000052C04C0880F991FAA1FBB1F0A94D2F7C7
:101BD0006C017C01E094F094412C8091CE02481677
:101BE000F8F4C42DD0E0E091CA02F091CB02EC0FE2
:101BF000FD1F80810E9426022496CC0FDD1FC8594C
:101C0000DD4F892B41F4888199818C299D29998305
:101C100088834394E2CF888199818E219F21F7CFD9
:101C2000E091CC02F091CD02E00FF11F61E08081E4
:101C30000E944F028091CC029091CD02080F191F93
:101C400060E0F80180810E947D0253949CCF08E6F9
:101C500012E0F801878D90A1892B21F4148E368E25
:101C6000258E11A2369622E0E43AF20799F7F12C7C
:101C70008091CE02F81608F050C0E12CCF2DD0E0B4
:101C8000CC0FDD1FC059DD4F2091CF02E21608F0C6
:101C900042C0688179810E2C02C0769567950A94BE
:101CA000E2F7F29E900111242E0D311DE8E6F2E0DC
:101CB00080E0458D568D2417350709F42CC18F5FC0
:101CC00036968A30B1F760FF24C0E8E6F2E090E093
:101CD00080E0448D411118C0E091C802F091C90222
:101CE000E20FF31F408156E0589FF001599FF00D1D
:101CF0001124E859FD4F448F368F258F10A2178E7F
:101D000061E00E94220405C0019636968A30910552
:101D100001F7E394B9CFF394ABCFC0E0D80191962B
:101D20008C918111C82F0A5F1F4FB2E0043A1B0744
:101D3000A9F70E9410036093C4027093C5028093B8
:101D4000C6029093C702CC2329F18091890288238F
:101D500009F180918702909188020197D9F4C0918E
:101D60008402C1111AC080919C01811107C00E9498
:101D700099060E94540781E080939C0161147104CC
:101D800009F4EBCD0E941705882309F4E6CD0E94E3
:101D90000000E3CD1092D402E6CFCA3249F410928B
:101DA0009B0110929A010E9499060E945407E6CF67
:101DB00080919A0190919B0184309105FCF620ED71
:101DC0002C0F2A30D8F6892B61F40E94990660E026
:101DD00080E00E94420762E971E08AEE92E00E9490
:101DE000890420919A0130919B01C9010196909339
:101DF0009B0180939A012B563E4FF901C08361E00D
:101E00008A5F0E94420767E571E08AEE92E00E94D5
:101E1000F50580919A0190919B01049709F0AECF4E
:101E20001092990100E011E0D0E0C0E0D8016D917E
:101E30007C9185E991E00E94CB11892B09F46DC05A
:101E400021960B5F1F4FC330D10581F76EE571E01E
:101E500085E991E00E94CB11892B19F40E94680753
:101E600052C069E571E085E991E00E94CB11892BB0
:101E7000A9F364EF71E080E090E00E94DE020E942E
:101E8000990660E081E00E9442076DE871E08AEE09
:101E900092E00E94890460E086E00E94420763E8C5
:101EA00071E08AEE92E00E94890461E08FE00E9476
:101EB00042076DE471E08AEE92E00E94CD0561E098
:101EC00084E00E94420767E771E08AEE92E00E9498
:101ED000E10561E08DE00E9442076DE471E08AEE69
:101EE00092E00E94CD0563E571E086EA91E00E94F0
:101EF000E10568EB7BE080E090E00E94DE020E945A
:101F000099060E945407E5E9F1E0DF0125E01D9202
:101F10002A95E9F744CF6170F4CE55E05C9FF0015B
:101F20005D9FF00D1124E050FF4F81E08483C2815A
:101F3000D3810E94990660E085E00E9442076BE42D
:101F400071E08AEE92E00E94890461E085E00E94DF
:101F50004207BE018AEE92E00E94F505BE0186EAC4
:101F600091E00E94F50563E671E086EA91E00E9447
:101F7000CD0560ED77E080E090E00E94DE026ECF5C
:101F8000052E97FB1EF400940E94D70F57FD07D033
:101F90000E94F20F07FC03D04EF40C94D70F50951B
:101FA0004095309521953F4F4F4F5F4F0895909545
:101FB0008095709561957F4F8F4F9F4F08950E9438
:101FC0001410A59F900DB49F900DA49F800D911D9E
:101FD00011240895B7FF0C94DF0F0E94DF0F821BBE
:101FE000930B0895A1E21A2EAA1BBB1BFD010DC085
:101FF000AA1FBB1FEE1FFF1FA217B307E407F507B9
:1020000020F0A21BB30BE40BF50B661F771F881F94
:10201000991F1A9469F760957095809590959B012A
:10202000AC01BD01CF010895A29FB001B39FC001D3
:10203000A39F700D811D1124911DB29F700D811DF4
:102040001124911D08955058BB27AA270E943B10C8
:102050000C94E4100E94D61038F00E94DD1020F09D
:1020600039F49F3F19F426F40C94D3100EF4E09544
:10207000E7FB0C94CD10E92F0E94F51058F3BA1726
:10208000620773078407950720F079F4A6F50C948E
:1020900017110EF4E0950B2EBA2FA02D0B01B901EC
:1020A00090010C01CA01A0011124FF27591B99F0CE
:1020B000593F50F4503E68F11A16F040A22F232FDA
:1020C000342F4427585FF3CF469537952795A7952A
:1020D000F0405395C9F77EF41F16BA0B620B730BD1
:1020E000840BBAF09150A1F0FF0FBB1F661F771F42
:1020F000881FC2F70EC0BA0F621F731F841F48F4F7
:10210000879577956795B795F7959E3F08F0B0CF7F
:102110009395880F08F09927EE0F97958795089566
:10212000E89409C097FB3EF4909580957095619571
:102130007F4F8F4F9F4F9923A9F0F92F96E9BB2727
:102140009395F695879577956795B795F111F8CFA3
:10215000FAF4BB0F11F460FF1BC06F5F7F4F8F4F0E
:102160009F4F16C0882311F096E911C0772321F004
:102170009EE8872F762F05C0662371F096E8862F9C
:1021800070E060E02AF09A95660F771F881FDAF7F3
:10219000880F9695879597F9089597F99F6780E836
:1021A00070E060E008959FEF80EC089500240A94A9
:1021B0001616170618060906089500240A94121622
:1021C0001306140605060895092E0394000C11F455
:1021D000882352F0BB0F40F4BF2B11F460FF04C002
:1021E0006F5F7F4F8F4F9F4F089557FD9058440F5B
:1021F000551F59F05F3F71F04795880F97FB991F66
:1022000061F09F3F79F08795089512161306140622
:10221000551FF2CF4695F1DF08C0161617061806AF
:10222000991FF1CF86957105610508940895E8948A
:10223000BB2766277727CB0197F908950E94951150
:1022400008F48FEF08950E9436110C94E4100E9458
:10225000D61038F00E94DD1020F0952311F00C9478
:10226000CD100C94D31011240C9418110E94F51069
:1022700070F3959FC1F3950F50E0551F629FF001D9
:10228000729FBB27F00DB11D639FAA27F00DB11DF2
:10229000AA1F649F6627B00DA11D661F829F22277B
:1022A000B00DA11D621F739FB00DA11D621F839F02
:1022B000A00D611D221F749F3327A00D611D231FD8
:1022C000849F600D211D822F762F6A2F11249F5726
:1022D00050409AF0F1F088234AF0EE0FFF1FBB1F29
:1022E000661F771F881F91505040A9F79E3F5105E8
:1022F00080F00C94CD100C9418115F3FE4F3983EDD
:10230000D4F3869577956795B795F795E7959F5F91
:10231000C1F7FE2B880F911D9695879597F9089523
:102320000E949511880B990B0895990F0008550F7D
:10233000AA0BE0E8FEEF16161706E807F907C0F04B
:1023400012161306E407F50798F0621B730B840B53
:10235000950B39F40A2661F0232B242B252B21F42D
:1023600008950A2609F4A140A6958FEF811D811DCD
:102370000895991B79E004C0991F961708F0961BE1
:10238000881F7A95C9F780950895EE0FFF1F059075
:10239000F491E02D0994FB01DC018D9101908019ED
:1023A0000110D9F3990B0895F894FFCF6C017101D6
:1023B0000076017B01008101860100060708020307
:1023C00004053132333435363738392A30230000AA
:1023D00000004D05AD04DA049A050B05E904FD047F
:1023E000000000007E0482048604000000005509FD
:1023F000AD04BB05BA050D0A0020003300320031E0
:10240000002E002A00383838380039393939002C84
:1024100050524553454E540031323334004142440A
:102420004F003233343500484F5544410033343582
:062430003600414C49009A
:107E0000112484B714BE81FFF0D085E080938100F7
:107E100082E08093C00088E18093C10086E0809377
:107E2000C20080E18093C4008EE0C9D0259A86E02C
:107E300020E33CEF91E0309385002093840096BBD3
:107E4000B09BFECF1D9AA8958150A9F7CC24DD24C4
:107E500088248394B5E0AB2EA1E19A2EF3E0BF2EE7
:107E6000A2D0813461F49FD0082FAFD0023811F036
:107E7000013811F484E001C083E08DD089C08234E0
:107E800011F484E103C0853419F485E0A6D080C0E4
:107E9000853579F488D0E82EFF2485D0082F10E0AE
:107EA000102F00270E291F29000F111F8ED06801E7
:107EB0006FC0863521F484E090D080E0DECF843638
:107EC00009F040C070D06FD0082F6DD080E0C81688
:107ED00080E7D80618F4F601B7BEE895C0E0D1E017
:107EE00062D089930C17E1F7F0E0CF16F0E7DF06D8
:107EF00018F0F601B7BEE89568D007B600FCFDCFD4
:107F0000A601A0E0B1E02C9130E011968C91119780
:107F100090E0982F8827822B932B1296FA010C0160
:107F200087BEE89511244E5F5F4FF1E0A038BF0790
:107F300051F7F601A7BEE89507B600FCFDCF97BE46
:107F4000E89526C08437B1F42ED02DD0F82E2BD052
:107F50003CD0F601EF2C8F010F5F1F4F84911BD097
:107F6000EA94F801C1F70894C11CD11CFA94CF0C13
:107F7000D11C0EC0853739F428D08EE10CD085E9AC
:107F80000AD08FE07ACF813511F488E018D01DD067
:107F900080E101D065CF982F8091C00085FFFCCF94
:107FA0009093C60008958091C00087FFFCCF809118
:107FB000C00084FD01C0A8958091C6000895E0E648
:107FC000F0E098E1908380830895EDDF803219F02E
:107FD00088E0F5DFFFCF84E1DECF1F93182FE3DFCA
:107FE0001150E9F7F2DF1F91089580E0E8DFEE27F6
:047FF000FF270994CA
:027FFE00040479
:00000001FF
