:100000000C94AE000C94D6000C94D6000C94D60040
:100010000C94D6000C94D6000C94D6000C94D60008
:100020000C94D6000C94D6000C94D6000C949F0926
:100030000C94D6000C94D6000C94D6000C94D600E8
:100040000C94FD080C94D6000C946D090C9447098F
:100050000C94D6000C94D6000C94D6000C94D600C8
:100060000C94D6000C94D600504F5254452046456F
:10007000524D4545004645524D45545552452E2E4C
:100080002E00454E5452455A205241504944454D48
:10009000454E5400504F52544520204F555645521E
:1000A0005445004143434553204155544F52495311
:1000B000450053595354454D5F52454144590043FF
:1000C0004F444520494E434F5252454354004163EB
:1000D00063657320202072656675736500434F4425
:1000E0004520494E434F5252454354004249454EE4
:1000F00056454E55450050415353574F52443A00D0
:1001000000000000240027002A0000000000250055
:1001100028002B0000000008000201000003040773
:100120000000000000000000000000002300260086
:10013000290004040404040404040202020202026A
:10014000030303030303010204081020408001029B
:10015000040810200102040810205B0A11241FBEAD
:10016000CFEFD8E0DEBFCDBF12E0A0E0B1E0E0E825
:10017000F6E202C005900D92AA30B107D9F723E04C
:10018000AAE0B2E001C01D92AE38B207E1F710E07C
:10019000CEEAD0E004C02197FE010E942F13CD3A91
:1001A000D107C9F70E944E0B0C943E130C9400002B
:1001B000CF92DF92EF92FF92DC01A03282E0B8078B
:1001C000D4F5A53BB10514F0A4EBB0E040918C034D
:1001D00028E830E0241B310947FD3395220F331FF7
:1001E000220F331F6901330FEE08FF0840918D0382
:1001F00028E532E0241B310947FD3395220F331FD8
:10020000220F331F032E000C440B550B2C193D09F4
:100210004E095F09B7FF02C0B0E0A0E00E94AE1037
:1002200024EB30E040E050E00E948410C20ED31E68
:10023000E41EF51ED601E0918B03EC3080F5209191
:100240008C0388E890E0821B910927FD9395880F25
:10025000991F880F991FA817B90784F020918D0363
:1002600088E592E0821B910927FD9395880F991FDD
:10027000880F991FA817B9070CF4CD010297880FB2
:10028000991F4FB7F8942E2F30E0F901EE0FFF1FA2
:10029000E20FF31FE453FD4F928381834FBFFF9022
:1002A000EF90DF90CF900895CF92DF92EF92FF9280
:1002B000CF93DF93B0916703A0E08111AB2F8091C2
:1002C000680390E0880F991FAC01485D5E4FC090B5
:1002D0006D03D0906E03E0906F03F090700330E0F8
:1002E00020E0FA01C591D491E881B90190E080E065
:1002F000EB23EA130AC02F5F3F4F6C157D058E0577
:100300009F0578F36FEF7FEFCB01DF91CF91FF90E7
:10031000EF90DF90CF90089596E0899FD00111244F
:10032000AF50BD4F90967C936E935F9791E09196FE
:100330009C939197E0915E03F0915F0390915D0330
:10034000992339F0309751F0811108C080910D0345
:100350000994309719F05C968C91FACF0895833008
:1003600081F028F4813099F08230A9F00895873027
:10037000A9F08830C9F08430B1F4809180008F7D7D
:1003800003C0809180008F7780938000089584B5AA
:100390008F7784BD089584B58F7DFBCF8091B000A9
:1003A0008F778093B00008958091B0008F7DF9CF52
:1003B000CF93DF93282F30E0F901EC5EFE4F84915C
:1003C000F901EA5BFE4FD491F901EE5CFE4FC49156
:1003D000CC23A1F081110E94AF01EC2FF0E0EE0FD1
:1003E000FF1FE85DFE4FA591B491EC91ED2381E0F4
:1003F00090E009F480E0DF91CF91089580E090E0F3
:10040000FACF1F93CF93DF93282F30E0F901EC5EF2
:10041000FE4F8491F901EA5BFE4FD491F901EE5C45
:10042000FE4FC491CC23A9F0162F81110E94AF0179
:10043000EC2FF0E0EE0FFF1FE65FFE4FA591B491A9
:100440008FB7F894EC91111108C0D095DE23DC939E
:100450008FBFDF91CF911F910895DE2BF8CFCF93FF
:10046000DF9390E0FC01EA5BFE4F24918E5C9E4F8F
:10047000FC0184918823C9F090E0880F991FFC014A
:10048000E050FF4FA591B491FC01E65FFE4FC5918E
:10049000D49161110DC09FB7F8948C91209582235F
:1004A0008C938881282328839FBFDF91CF91089563
:1004B000623051F49FB7F8943C91822F809583234A
:1004C0008C93E8812E2BEFCF8FB7F894EC912E2BE5
:1004D0002C938FBFEACF3FB7F89480912B02909175
:1004E0002C02A0912D02B0912E0226B5A89B05C02A
:1004F0002F3F19F00196A11DB11D3FBFBA2FA92FA3
:10050000982F8827BC01CD01620F711D811D911D9F
:1005100042E0660F771F881F991F4A95D1F708950B
:100520008F929F92AF92BF92CF92DF92EF92FF9203
:100530004B015C010E946B026B017C010E946B020B
:100540006C197D098E099F09683E734081059105EC
:10055000A8F321E0821A9108A108B10888EEC80E1C
:1005600083E0D81EE11CF11C81149104A104B104A4
:1005700029F7FF90EF90DF90CF90BF90AF909F90C2
:100580008F9008952FB7F8946091270270912802F8
:100590008091290290912A022FBF0895CF92DF9275
:1005A000EF92FF920F931F93CF93DF93CDB7DEB7F8
:1005B000C054D1400FB6F894DEBF0FBECDBF0E942D
:1005C000C2020091690310916A0320916B0330917C
:1005D0006C036B017C01C01AD10AE20AF30A97018D
:1005E0008601003D17402105310590F4809171038B
:1005F000C05CDE4F0FB6F894DEBF0FBECDBFDF91FB
:10060000CF911F910F91FF90EF90DF90CF900895C1
:100610006093690370936A0380936B0390936C03F8
:1006200010926403109263031092620310926103AC
:100630001092600362E0809165030E942F0261E0E6
:1006400070E080E090E00E94900261E0809165039C
:100650000E942F0260E0809165030E940102809158
:1006600066038551823020F58BE291E10197F1F725
:1006700062E0809165030E942F028091720390E0F6
:100680008230910538F0880F991F880F991F0597C0
:100690000197F1F7F89480E00E9454016F3F7F4F7B
:1006A0008F4F9F4F61F410927103789480E0A0CF38
:1006B00064E170E080E090E00E949002D9CF81E098
:1006C0000E9454016F3F7F4F8F4F9F4F61F38E0108
:1006D0000F5F1F4F6E012FEBC21A2EEFD20A780167
:1006E00080E00E945401F7016083718382839383C9
:1006F00081E00E945401F7016483758386839783A8
:10070000F8E0EF0EF11CEC14FD0451F7789430E0A2
:1007100020E0F801C080D180E280F38044815581DF
:1007200066817781FFEFCF16DF06EF06FF0631F017
:100730004F3F8FEF58076807780719F4109271033D
:10074000B5CFF90183E0F595E7958A95E1F7E05A91
:10075000FC4F8081880FC416D506E606F70610F117
:1007600080832F5F3F4F085F1F4F2832310589F686
:10077000409164032091600380916103280F332727
:10078000331F80916203280F311D80916303820F14
:10079000932F911D99274817190681F681E08093C0
:1007A000710326CF8160DCCF0F931F93CF93DF932C
:1007B000C82FD62F86E0C89FF0011124EF50FD4FBF
:1007C00011A2878D90A181309105F1F058F082300F
:1007D0009105F1F1039709F440C0DF91CF911F918A
:1007E0000F9108956623C9F361E070E08C2F0E9499
:1007F0008C010E94C2026093490370934A03809364
:100800004B0390934C03E9CF0E94C202009149032D
:1008100010914A0320914B0330914C03AB01BC0172
:10082000401B510B620B730B80915B0390915C0337
:10083000B0E0A0E084179507A607B70748F462E088
:1008400070E08C2FDF91CF911F910F910C948C0150
:1008500063E070E0D111C1CFF4CF70E060E0F1CF80
:10086000862F642F0C942F02862F642F0C94010284
:10087000862F0C94D801DC01ED91FC910190F08160
:10088000E02D0994EF92FF920F931F93CF93DF9384
:100890008C017B01D0E0C0E0F701EC0FFD1F6491FB
:1008A000662361F0D801ED91FC910190F081E02D7B
:1008B000C8010995892B11F02196EECFCE01DF9169
:1008C000CF911F910F91FF90EF900895AF92BF923B
:1008D000CF92DF92EF92FF920F931F93CF93DF930C
:1008E0006C017B018B01040F151FEB015E01AE183B
:1008F000BF08C017D10759F06991D601ED91FC915D
:100900000190F081E02DC6010995892B79F7C50189
:10091000DF91CF911F910F91FF90EF90DF90CF90DB
:10092000BF90AF900895FC01538D448D252F30E08A
:10093000842F90E0821B930B541710F0CF960895EC
:1009400001970895FC01918D828D981761F0A28D19
:10095000AE0FBF2FB11D5D968C91928D9F5F9F73DF
:10096000928F90E008958FEF9FEF0895FC01918D95
:10097000828D981731F0828DE80FF11D858D90E002
:1009800008958FEF9FEF0895FC01918D228D892F9F
:1009900090E0805C9F4F821B91098F739927089587
:1009A0008FE292E00E94C40421E0892B09F420E048
:1009B000822F089580E090E0892B29F00E94D004D6
:1009C00081110C9400000895FC01A48DA80FB92F8B
:1009D000B11DA35ABF4F2C91848D90E001968F7367
:1009E0009927848FA689B7892C93A089B1898C9186
:1009F000837080648C93938D848D981306C00288D5
:100A0000F389E02D80818F7D80830895EF92FF929E
:100A10000F931F93CF93DF93EC0181E0888F9B8D21
:100A20008C8D98131AC0E889F989808185FF15C0DB
:100A30009FB7F894EE89FF896083E889F9898081FE
:100A40008370806480839FBF81E090E0DF91CF91CD
:100A50001F910F91FF90EF900895F62E0B8D10E0EF
:100A60000F5F1F4F0F731127E02E8C8D8E110CC05E
:100A70000FB607FCFACFE889F989808185FFF5CFA9
:100A8000CE010E94E404F1CFEB8DEC0FFD2FF11DA0
:100A9000E35AFF4FF0829FB7F8940B8FEA89FB89E6
:100AA00080818062CFCFCF93DF93EC01888D882344
:100AB000B9F0AA89BB89E889F9898C9185FD03C0C1
:100AC000808186FD0DC00FB607FCF7CF8C9185FFA6
:100AD000F2CF808185FFEDCFCE010E94E404E9CF03
:100AE000DF91CF910895089590E080E00895FB0193
:100AF00001900020E9F73197AF01461B570BDC014D
:100B0000ED91FC910280F381E02D09948F929F92E8
:100B1000AF92BF92EF92FF920F931F93CF93DF9309
:100B2000CDB7DEB7A1970FB6F894DEBF0FBECDBF2D
:100B30007C01FA01CB0119A2223008F42AE08E01CF
:100B40000F5D1F4F822E912CB12CA12CBF01A5014E
:100B500094010E94B610F901CA016A300CF5605D7B
:100B6000D8016E938D01232B242B252B79F790E050
:100B700080E0109721F0BD01C7010E947705A19682
:100B80000FB6F894DEBF0FBECDBFDF91CF911F919E
:100B90000F91FF90EF90BF90AF909F908F9008952E
:100BA000695CDECF6115710511F00C94770590E05A
:100BB00080E008952F923F924F925F926F927F92C2
:100BC0008F929F92AF92BF92CF92DF92EF92FF925D
:100BD0001F93CF93DF93EC016A017B01722EAB016F
:100BE0009601CB01B6010E941E136AE471E08111E7
:100BF00026C046015701E894B7F82FEF3FEF4FE7C3
:100C00005FE7C501B4010E941E1381110CC02FEFD4
:100C10003FEF4FE75FE7C501B4010E9454116EE456
:100C200071E0181664F02FEF3FEF4FE75FE4C70164
:100C3000B6010E94AC121816B4F462E571E0CE0160
:100C4000DF91CF911F91FF90EF90DF90CF90BF90F9
:100C5000AF909F908F907F906F905F904F903F905C
:100C60002F900C9477052FEF3FEF4FE75FECC70114
:100C7000B6010E94541187FDE0CF20E030E0A901C9
:100C8000C701B6010E945411312C212C87FF09C0E5
:100C90006DE2CE010E943B041C01F7FAF094F7F8D4
:100CA000F09410E060E070E080E09FE3711641F0A6
:100CB00020E030E040E251E40E9459111F5FF6CF7E
:100CC000A70196010E94E8102B013C010E94CB1164
:100CD0004B015C012AE0BC01A401CE010E94860503
:100CE0007C01E20CF31C1123C1F1C501B4010E9487
:100CF000FA119B01AC01C301B2010E94E7104B0144
:100D00005C016EE2CE010E943B04E80EF91E115018
:100D100020F120E030E040E251E4C501B4010E943E
:100D2000B1122B013C010E94CB114B01B12CA12C23
:100D30002AE0B501A401CE010E948605E80EF91E45
:100D4000C501B4010E94FA119B01AC01C301B201BB
:100D50000E94E7104B015C01DACFC701DF91CF9110
:100D60001F91FF90EF90DF90CF90BF90AF909F903A
:100D70008F907F906F905F904F903F902F9008954D
:100D8000CF93DF93EC0160E08E810E94010261E06D
:100D90008E810E94010260E08E810E9401028BE838
:100DA00091E00197F1F7DF91CF910895CF92DF9213
:100DB000EF92FF920F931F93CF93DF936C017C010F
:100DC00087E0E80EF11CD0E0C0E0062F10E0B8018B
:100DD0000C2E02C0759567950A94E2F76170F701D1
:100DE00081917F010E9401022196C430D10579F7DB
:100DF000C601DF91CF911F910F91FF90EF90DF908F
:100E0000CF900C94C006CF92DF92EF92FF920F9397
:100E10001F93CF93DF93EC01F62E642F8C810E94F9
:100E200001028D818F3F19F060E00E9401020F2DB9
:100E300010E08F8584FF25C06E0187E0C80ED11CAD
:100E4000F12CE12CB8010E2C02C0759567950A941F
:100E5000E2F76170F60181916F010E940102FFEFDC
:100E6000EF1AFF0A88E0E816F10461F7CE01DF917E
:100E7000CF911F910F91FF90EF90DF90CF900C9446
:100E8000C006B80184E0759567958A95E1F7CE01B3
:100E90000E94D6066F2DCE01DF91CF911F910F9149
:100EA000FF90EF90DF90CF900C94D60640E0682F33
:100EB00083E793E00C94030781E00E9456078BE3DD
:100EC0009FE10197F1F70895CF93DF93613029F007
:100ED00090918203986090938203609386031092AE
:100EE000870390E49093880380938903805C8093C8
:100EF0008A0361E0809177030E942F02809178033A
:100F00008F3F19F061E00E942F0261E08091790328
:100F10000E942F02C3E7D3E09E0123573340809104
:100F2000820384FD0BC084E090E0219628173907E6
:100F300044F461E08E810E942F02EECF88E090E0C1
:100F4000F4CF8BE39DE00197F1F760E080917703A8
:100F50000E94010260E0809179030E940102809169
:100F600078038F3F19F060E00E94010280918203B4
:100F700084FD34C063E083E793E00E94D606CBE4AF
:100F8000D6E4CE010197F1F763E083E793E00E9496
:100F9000D6062197F1F763E083E793E00E94D60637
:100FA00083E592E00197F1F762E083E793E00E9426
:100FB000D6068091820380620E94560784E0809367
:100FC00083038CE00E9456070E945C0782E08093B6
:100FD000840386E0DF91CF910C94560780620E94D3
:100FE00056078BE496E40197F1F7809182038062C3
:100FF0000E94560783E592E00197F1F78091820302
:1010000080620E945607D5CF90918603691710F031
:101010006FEF690FE62FF0E0ED58FC4F9489890FD0
:1010200080680C94560760E080E00E94040866E542
:1010300071E083E793E00E94D20561E080E00E94C6
:1010400004086BE671E083E793E00C94D205CF933C
:10105000C0E06C2F80E00E94040861E871E083E743
:1010600093E00E94D205CF5FC33099F7CF910895E6
:1010700041E00E94030781E090E00895CF92DF9263
:10108000EF92FF92CF93DF9364EF71E080E090E006
:101090000E9490020E94270860E083E00E940408FA
:1010A00063EA70E083E793E00E94420461E083E03A
:1010B0000E94040864E970E083E793E00E94420420
:1010C00084EB90E090930C0280930B02C0910B0292
:1010D000D0910C02D7FD0FC0CE010E94D8006AE06B
:1010E00070E080E090E00E9490022597D0930C027F
:1010F000C0930B02EBCF60ED77E080E090E00E94C0
:10110000900285E0C82ED12CE12CF12C0E942708FA
:1011100060E082E00E94040862E870E083E793E008
:101120000E94420461E089E00E9404082AE0B701BD
:10113000A60183E793E00E9486056CEB72E080E0F5
:1011400090E00E94900281E0C81AD108E108F108FD
:10115000E9F60E94270861E084E00E94040865E740
:1011600070E083E793E00E94420468EE73E080E061
:1011700090E00E9490020E94270861E084E00E94B3
:10118000040868E670E083E793E00E94420460E2AE
:1011900073E080E090E00E94900264EF71E080E0F4
:1011A00090E00E94900210920C0210920B02C091EB
:1011B0000B02D0910C02C53BD1057CF4CE010E94FC
:1011C000D8006FE070E080E090E00E9490022596E9
:1011D000D0930C02C0930B02EACF64EF71E080E081
:1011E00090E00E9490020E942708DF91CF91FF902B
:1011F000EF90DF90CF900C9413081F920F920FB6D0
:101200000F9211242F933F938F939F93AF93BF938C
:101210008091270290912802A0912902B0912A0280
:101220003091260223E0230F2D3758F50196A11D9A
:10123000B11D209326028093270290932802A09349
:101240002902B0932A0280912B0290912C02A09146
:101250002D02B0912E020196A11DB11D80932B028B
:1012600090932C02A0932D02B0932E02BF91AF91C8
:101270009F918F913F912F910F900FBE0F901F90D4
:10128000189526E8230F0296A11DB11DD2CF1F92FB
:101290000F920FB60F9211242F933F934F935F93AA
:1012A0006F937F938F939F93AF93BF93EF93FF932E
:1012B0008FE292E00E94E404FF91EF91BF91AF9121
:1012C0009F918F917F916F915F914F913F912F915E
:1012D0000F900FBE0F901F9018951F920F920FB690
:1012E0000F9211242F938F939F93EF93FF93E0918D
:1012F0003F02F09140028081E0914502F091460268
:1013000082FD1BC09081809148028F5F8F73209176
:101310004902821741F0E0914802F0E0E15DFD4FA3
:10132000958F80934802FF91EF919F918F912F911C
:101330000F900FBE0F901F9018958081F4CF1F92D1
:101340000F920FB60F9211242F933F934F935F93F9
:101350006F937F938F939F93AF93BF93CF93DF93BD
:10136000EF93FF9380910A02C091F002D0E087FFD3
:1013700024C0109285001092840080910A028F5F31
:1013800080930A0280910A02082E000C990B8C1798
:101390009D0724F480910A028C30C4F1809184006E
:1013A00090918500049680349C4908F47AC080911D
:1013B000840090918500049676C080910A02082EE0
:1013C000000C990B8C179D07C4F6E0910A028E2F32
:1013D000EE0F990BFC01EE0FFF1FE80FF91FE4530E
:1013E000FD4F808186FFC9CFE0910A028E2FEE0F5C
:1013F000990BFC01EE0FFF1FE80FF91FE453FD4F9F
:10140000808160E08F730E940102B7CF2091840039
:1014100030918500E0910A028E2FEE0F990BFC01AE
:10142000EE0FFF1FE80FF91FE453FD4F81819281FA
:10143000820F931F9093890080938800E0910A02A5
:101440008E2FEE0F990BFC01EE0FFF1FE80FF91F17
:10145000E453FD4F808186FF11C0E0910A028E2F78
:10146000EE0F990BFC01EE0FFF1FE80FF91FE4537D
:10147000FD4F808161E08F730E940102FF91EF9127
:10148000DF91CF91BF91AF919F918F917F916F919C
:101490005F914F913F912F910F900FBE0F901F9032
:1014A000189580E49CE990938900809388008FEFE1
:1014B00080930A02E3CFCF9310923202109231024E
:1014C00088EE93E0A0E0B0E0809333029093340282
:1014D000A0933502B093360286E291E090933002F9
:1014E00080932F0285EC90E090933C0280933B0226
:1014F00084EC90E090933E0280933D0280EC90E07B
:101500009093400280933F0281EC90E090934202DE
:101510008093410282EC90E09093440280934302D6
:1015200086EC90E090934602809345021092480228
:101530001092490210924A0210924B028091F002DE
:101540008C3008F0A7C091E0980F9093F002809340
:101550008B0390E0FC01EE0FFF1FE80FF91FE4532F
:10156000FD4F88EB9BE0928381831092760310926B
:10157000750382E491E0909374038093730382E196
:10158000809377038FEF8093780383E180937903CF
:1015900081E180937A0380E180937B038FE08093E5
:1015A0007C03CBE0C0937D0310927E0310927F03F7
:1015B00010928003109281031092820361E080E117
:1015C0000E9464078AE080936503C0936603E0E5A8
:1015D000F1E0E491E0936703ECE3F1E0E491E09360
:1015E000680380E89EE3A0E0B0E080936D039093F1
:1015F0006E03A0936F03B09370031092F3021092E6
:10160000F7021092F6021092F80288E391E09093AC
:10161000F2028093F102EDE0F3E010821482138273
:101620001582369683E0E934F807B9F782E191E054
:1016300090935403809353038FE091E0909356036B
:101640008093550384E08093570383E0809358038D
:1016500086E191E090935203809351038AE090E0F9
:1016600090935A038093590384EF91E090935C0325
:1016700080935B0310925F0310925E0310924D0300
:1016800010924E0310924F031092500310925D037C
:10169000CF9108958FEF80938B0367CF789484B5B3
:1016A000826084BD84B5816084BD85B5826085BD5E
:1016B00085B5816085BD80916E00816080936E00EC
:1016C00010928100809181008260809381008091DE
:1016D000810081608093810080918000816080938F
:1016E00080008091B10084608093B1008091B0004F
:1016F00081608093B00080917A00846080937A004A
:1017000080917A00826080937A0080917A00816073
:1017100080937A0080917A00806880937A0010929A
:10172000C100E0913F02F091400282E08083E091AD
:101730003B02F0913C021082E0913D02F0913E02AA
:101740008FEC808310924702E0914302F0914402B3
:1017500086E08083E0914102F091420280818061C5
:101760008083E0914102F091420280818860808311
:10177000E0914102F0914202808180688083E09193
:101780004102F091420280818F7D808362EB70E0A4
:101790008FE292E00E94420466E971E08FE292E0FB
:1017A0000E94770580918B038C3008F051C061E076
:1017B00089E00E942F0280918B03282F30E0F901ED
:1017C000EE0FFF1FE20FF31FE453FD4F9081907C5B
:1017D0009960908310928C0310928D032CE0622FFD
:1017E0000E942313829FB001112430E020E0AB015E
:1017F000420F531FFA01EE0FFF1FE40FF51FE453D2
:10180000FD4F908196FD16C02F5F3F4F2C30310564
:1018100071F781110FC01092800082E080938100E7
:101820001092850010928400B19A80916F008260BE
:1018300080936F00E0918B038E2F90E0FC01EE0F00
:10184000FF1FE80FF91FE453FD4F80818064808300
:1018500064E084E10E94640762E0809165030E9475
:101860002F020E94C202605D774081099109609356
:10187000690370936A0380936B0390936C0387E30F
:101880008093720361E08CE00E942F0261E08DE0A2
:101890000E942F020E941308412C512C32014394C4
:1018A00064EB262E312C11E00E94C202C09015027A
:1018B000D0901602E0901702F09018026C197D0982
:1018C0008E099F09603D77408105910508F4C4C1E8
:1018D0000E94C20260931502709316028093170251
:1018E000909318020E94CE02882341F080916603F3
:1018F0008C3009F468C048F48B3001F1C12CD12C34
:1019000030ECE32E3FE7F32E43C085518230B0F731
:10191000C09162036C2F70E0762F662766277F7771
:1019200080916303682B90E080E00E94FA112DEC17
:101930003CEC4CEC5DE30E94B11261C0609162032B
:1019400070E090E080E00E94FA116B017C01C09190
:101950006303C7FF0AC0AC019B0160E070E080E850
:101960009FEB0E94E7106B017C01CF706C2F70E041
:1019700090E080E00E94FC112DEC3CEC4CEC5DE32F
:101980000E94B112A70196010E94E8106B017C0130
:10199000C0921102D0921202E0921302F09214024D
:1019A0000E94CE02882351F0809166038B3030F084
:1019B0008D3070F18551823008F4A4C060E070E091
:1019C00080EC9FE741C0C09162036C2F70E090E013
:1019D00080E00E94FA116B017C01609163036F70DB
:1019E00070E090E080E00E94FC112DEC3CEC4CECAF
:1019F0005DE30E94B112A70196010E94E8106B01FD
:101A00007C01C7FFC5CFF7FAF094F7F8F094C0CF88
:101A10006091610370E090E080E00E94FC112DEC89
:101A20003CEC4CEC5DE30E94B1124B015C01609117
:101A3000600370E090E080E00E94FC119B01AC012B
:101A4000C501B4010E94E81060930D0270930E026C
:101A500080930F0290931002C0912502A701960176
:101A6000C701B6010E941E138111F6C020E030E0CC
:101A700048E452E4C701B6010E94AC1287FD54C08D
:101A8000C11155C0109325020E945C0761E082E0FD
:101A90000E94040869E971E083E793E00E94D2059F
:101AA0006AEA71E08FE292E00E94D2054091110251
:101AB00050911202609113027091140222E08FE2A1
:101AC00092E00E94DA0566E971E08FE292E00E94FE
:101AD000770530920C0220920B02C0910B02D0913C
:101AE0000C02D7FDB9C0CE010E94D8006AE070E0B8
:101AF00080E090E00E9490022597D0930C02C09362
:101B00000B02EBCF6091600370916103762767272A
:101B1000762790E080E00E94FA112DEC3CEC4CEC32
:101B20005DE30E94B11290CFCC2309F448C020E0BD
:101B300030E040EF51E4C701B6010E94541187FF25
:101B40003EC0109225020E945C0761E082E00E9484
:101B5000040865EB71E083E793E00E94D2056CED29
:101B600075E080E090E00E9490026CEB71E08FE203
:101B700092E00E94770566E971E08FE292E00E94B0
:101B8000770510920C0210920B02C0910B02D091BB
:101B90000C02C53BD1057CF4CE010E94D8006FE059
:101BA00070E080E090E00E9490022596D0930C02B5
:101BB000C0930B02EACF0E945C070E941308809139
:101BC00025028111ADC120E030E040EF51E4609189
:101BD00011027091120280911302909114020E94DE
:101BE000AC1261E087FD60E08CE00E94010263E0DE
:101BF00080E00E94040863EC71E083E793E00E94B8
:101C0000D20540911102509112026091130270911D
:101C1000140221E083E793E00E94DA056FED83E789
:101C200093E00E943B046AEC71E083E793E00E943A
:101C3000D20540910D0250910E0260910F027091F9
:101C4000100220E083E793E00E94DA0562ED71E084
:101C500083E793E00E94D20500912502011160C143
:101C60000E94C202C0901902D0901A02E0901B029A
:101C7000F0901C026C197D098E099F09683E734023
:101C80008105910510F10E94C202609319027093C0
:101C90001A0280931B0290931C0280E480937C00C4
:101CA00080917A00806480937A0080917A0086FD2A
:101CB000FCCF809178009091790061E0803991406B
:101CC0000CF060E08DE00E94010210935D030E9421
:101CD000C202C0904D03D0904E03E0904F03F090AD
:101CE0005003AB01BC014C195D096E097F0980915D
:101CF000590390915A03B0E0A0E084179507A60716
:101D0000B70708F01AC1C0E080915703C81760F404
:101D1000E0915303F0915403EC0FF11D62E08081D8
:101D20000E942F02CF5FF0CF912C8091580398161C
:101D300008F05FC0E92CF12CE0915503F0915603B7
:101D4000EE0DFF1D61E080810E942F02E09155039E
:101D5000F0915603EE0DFF1D60E080810E940102AC
:101D6000D301C201092C04C0880F991FAA1FBB1FF1
:101D70000A94D2F75C016C01C094D094812C8091BC
:101D800057038816F8F4C82DD0E0E0915303F09182
:101D90005403EC0FFD1F80810E94D8012496CC0FC4
:101DA000DD1FCF50DD4F892B41F4888199818A292D
:101DB0009B29998388838394E2CF888199818C21A0
:101DC0009D21F7CFE0915503F0915603EE0DFF1DD5
:101DD00061E080810E940102809155039091560339
:101DE000E80EF91E60E0F70180810E942F029394B3
:101DF0009CCFC1EFD2E0FE01878D90A1892B31F4F9
:101E0000148E8FEF9FEF968F858F11A2369693E0F9
:101E1000ED32F90789F7F12C80915703F81608F095
:101E200053C0E12CCF2CD12CCC0CDD1CD601A750FB
:101E3000BD4F6D0120915803E21608F043C0F60132
:101E4000608171810E2C02C0769567950A94E2F745
:101E5000F29E900111242E0D311DE1EFF2E080E0A1
:101E6000458D568D2417350709F412C18F5F3696BC
:101E70008A30B1F760FF24C0E1EFF2E090E080E04B
:101E8000448D411118C0E0915103F0915203E20FCB
:101E9000F31F408156E0589FF001599FF00D112427
:101EA000EF50FD4F448F368F258F10A2178E61E0C3
:101EB0000E94D40305C0019636968A30910501F739
:101EC000E394B8CFF394A8CF89A18111082F269667
:101ED00083E0CD32D807C1F70E94C20260934D0360
:101EE00070934E0380934F0390935003002329F186
:101EF00080911203882309F18091100390911103BE
:101F00000197D9F4C0910D03C1111AC08091240228
:101F1000811106C00E9427080E9413081093240212
:101F200080E090E0892B09F4BFCC0E94D004882384
:101F300009F4B9CC0E940000B6CC10925D03E6CF44
:101F4000CA3249F410922302109222020E942708FA
:101F50000E941308E5CF80912202909123028430E1
:101F60009105F4F620ED2C0F2A30D0F6892B61F480
:101F70000E94270860E080E00E94040866EF70E09D
:101F800083E793E00E9442042091220230912302D1
:101F9000C90101969093230280932202235E3D4F54
:101FA000D901CC9361E08A5F0E94040867ED71E07B
:101FB00083E793E00E94D205809122029091230250
:101FC000049709F0ADCF1092210280E0E82E81E065
:101FD000F82ED0E0C0E0F701608171818DE192E0E0
:101FE0000E943513892B09F455C02196F5E0EF0EB8
:101FF000F11CC330D10579F767EE71E08DE192E015
:102000000E943513892B09F47CC069ED71E08DE1E4
:1020100092E00E943513892B09F473C00E942708AF
:1020200060E083E00E9404086DED70E083E793E0D8
:102030000E94420461E083E00E9404086EEC70E0BC
:1020400083E793E00E9442046FEB70E08FE292E03E
:102050000E94420466E971E08FE292E00E947705F7
:102060006CED75E080E090E00E9490020E942708ED
:102070000E941308EDE1F2E0DF0125E01D922A95B0
:10208000E9F710922302109222020E945C0760CFAF
:1020900061700ECF95E09C9FF0019D9FF00D112483
:1020A000E050FF4F1483C281D3810E94270860E073
:1020B00086E00E9404086CEE70E083E793E00E94E3
:1020C000420461E086E00E940408BE0183E793E0D9
:1020D0000E94D205BE018FE292E00E94D2056EED11
:1020E00071E08FE292E00E94770566E971E08FE28D
:1020F00092E00E94770560ED77E080E090E00E943A
:1021000090020E943E08B6CF052E97FB1EF4009465
:102110000E949B1057FD07D00E94B61007FC03D009
:102120004EF40C949B1050954095309521953F4F5F
:102130004F4F5F4F089590958095709561957F4FB3
:102140008F4F9F4F08950E94D810A59F900DB49F68
:10215000900DA49F800D911D11240895B7FF0C943C
:10216000A3100E94A310821B930B0895A1E21A2EC4
:10217000AA1BBB1BFD010DC0AA1FBB1FEE1FFF1F2B
:10218000A217B307E407F50720F0A21BB30BE40B7B
:10219000F50B661F771F881F991F1A9469F76095C2
:1021A0007095809590959B01AC01BD01CF0108957C
:1021B000A29FB001B39FC001A39F700D811D112488
:1021C000911DB29F700D811D1124911D08955058CD
:1021D000BB27AA270E94FF100C9472120E9464125F
:1021E00038F00E946B1220F039F49F3F19F426F466
:1021F0000C9461120EF4E095E7FB0C945B12E92F4E
:102200000E94831258F3BA17620773078407950771
:1022100020F079F4A6F50C94A5120EF4E0950B2E9F
:10222000BA2FA02D0B01B90190010C01CA01A00128
:102230001124FF27591B99F0593F50F4503E68F183
:102240001A16F040A22F232F342F4427585FF3CFC4
:10225000469537952795A795F0405395C9F77EF495
:102260001F16BA0B620B730B840BBAF09150A1F0DE
:10227000FF0FBB1F661F771F881FC2F70EC0BA0F64
:10228000621F731F841F48F4879577956795B795EC
:10229000F7959E3F08F0B0CF9395880F08F09927E7
:1022A000EE0F9795879508950E94371208F481E004
:1022B00008950E946D110C9472120E946B1258F0D6
:1022C0000E94641240F029F45F3F29F00C945B12E5
:1022D00051110C94A6120C9461120E94831268F39F
:1022E0009923B1F3552391F3951B550BBB27AA27CF
:1022F00062177307840738F09F5F5F4F220F331F09
:10230000441FAA1FA9F335D00E2E3AF0E0E832D0D0
:1023100091505040E695001CCAF72BD0FE2F29D0D3
:10232000660F771F881FBB1F261737074807AB07A5
:10233000B0E809F0BB0B802DBF01FF2793585F4F1A
:102340003AF09E3F510578F00C945B120C94A61263
:102350005F3FE4F3983ED4F3869577956795B795FC
:10236000F7959F5FC9F7880F911D9695879597F907
:102370000895E1E0660F771F881FBB1F6217730780
:102380008407BA0720F0621B730B840BBA0BEE1F95
:1023900088F7E09508950E948B1288F09F5798F077
:1023A000B92F9927B751B0F0E1F0660F771F881F5A
:1023B000991F1AF0BA95C9F714C0B13091F00E9474
:1023C000A512B1E008950C94A512672F782F8827E5
:1023D000B85F39F0B93FCCF3869577956795B3959B
:1023E000D9F73EF490958095709561957F4F8F4F0A
:1023F0009F4F0895E89409C097FB3EF4909580950F
:10240000709561957F4F8F4F9F4F9923A9F0F92FBA
:1024100096E9BB279395F695879577956795B79538
:10242000F111F8CFFAF4BB0F11F460FF1BC06F5F1E
:102430007F4F8F4F9F4F16C0882311F096E911C030
:10244000772321F09EE8872F762F05C0662371F051
:1024500096E8862F70E060E02AF09A95660F771F65
:10246000881FDAF7880F9695879597F90895990F41
:102470000008550FAA0BE0E8FEEF16161706E8074E
:10248000F907C0F012161306E407F50798F0621B6F
:10249000730B840B950B39F40A2661F0232B242B44
:1024A000252B21F408950A2609F4A140A6958FEF63
:1024B000811D811D089597F99F6780E870E060E0B5
:1024C00008959FEF80EC089500240A9416161706CD
:1024D00018060906089500240A9412161306140615
:1024E00005060895092E0394000C11F4882352F078
:1024F000BB0F40F4BF2B11F460FF04C06F5F7F4F30
:102500008F4F9F4F089557FD9058440F551F59F016
:102510005F3F71F04795880F97FB991F61F09F3FD0
:1025200079F087950895121613061406551FF2CFF9
:102530004695F1DF08C0161617061806991FF1CF49
:1025400086957105610508940895E894BB27662770
:102550007727CB0197F908950E94371208F48FEF7F
:1025600008950E94C4120C9472120E94641238F0F2
:102570000E946B1220F0952311F00C945B120C94C6
:10258000611211240C94A6120E94831270F3959F7D
:10259000C1F3950F50E0551F629FF001729FBB275A
:1025A000F00DB11D639FAA27F00DB11DAA1F649FF6
:1025B0006627B00DA11D661F829F2227B00DA11DA9
:1025C000621F739FB00DA11D621F839FA00D611D2F
:1025D000221F749F3327A00D611D231F849F600D50
:1025E000211D822F762F6A2F11249F5750409AF079
:1025F000F1F088234AF0EE0FFF1FBB1F661F771F05
:10260000881F91505040A9F79E3F510580F00C94CF
:102610005B120C94A6125F3FE4F3983ED4F38695C8
:1026200077956795B795F795E7959F5FC1F7FE2B6F
:10263000880F911D9695879597F908950E943712F6
:10264000880B990B0895991B79E004C0991F961780
:1026500008F0961B881F7A95C9F780950895EE0FAC
:10266000FF1F0590F491E02D0994FB01DC018D9191
:10267000019080190110D9F3990B0895F894FFCFB8
:10268000EC01F10100F601FB010001020602000667
:102690000708020304053132333435363738392A16
:1026A0003023000000000605660493045305C404AB
:1026B000A204B60400000000300434043804000012
:1026C000000038086604740573056E616E00696E5B
:1026D00066006F76660020202053797374656D65FF
:1026E0002064276163636573202000202020456EED
:1026F0007472657A20206C6520636F6465202020E9
:1027000000202020202020202020202020202020E9
:102710002020202020000D0A00534F52544945200C
:102720004427555247454E434500454D4552474580
:102730004E43592C005245544F5552204E4F524D46
:10274000414C0054656D703A2000432048756D3A45
:10275000200025202020002A0038383838002C504E
:10276000524553454E5400393939390031323334EA
:10277000004142444F003233343500484F55444104
:0A278000003334353600414C4900A7
:00000001FF
